S00C00006261636B2E7372656387
S1130000902100208D1C0000891C0000891C000028
S113001000000000000000000000000000000000DC
S1130020000000000000000000000000891C000027
S11300300000000000000000891C0000891C000072
S1130040891C0000891C0000891C0000891C000018
S1130050891C0000891C0000891C0000891C000008
S1130060891C00008115000091150000A1150000F5
S1130070B1150000C1150000D1150000F50E0000F7
S1130080050F0000150F0000891C0000891C0000EA
S1130090891C00000000000000000000891C000012
S11300A0891C000000000000891C00000000000002
S11300B00000000010B5064C2378002B07D1054B37
S11300C0002B02D0044800E000BF0123237010BDC0
S11300D0700000200000000000290000084B10B54B
S11300E0002B03D00749084800E000BF0748036815
S11300F0002B00D110BD064B002BFBD09847F9E72D
S11301000000000074000020002900000029000005
S113011000000000F0B55F4656464D464446F0B434
S113012087B08046049116001F000022002300219E
S11301308B463F2401202100009601975C460394DE
S113014044460594202464420C1903D40500A540B8
S1130150A84604E02024641A0500E540A8460400EB
S11301608C40A14614001D00A4185D4122002B0000
S1130170059E4F463E40B246049E47463E40B44626
S1130180564667463E4303D00600264332002B0002
S1130190009C019D9D420ED801D194420BD8009C35
S11301A0019D121BAB415C464D462C43A346039C68
S11301B045462C4303940139C4D2039B5846190085
S11301C007B03CBC90469946A246AB46F0BDC0463B
S11301D010B5490840230024814201D20AE01C00E2
S11301E0091A631C9BB28842F9D94023FF2C01D819
S11301F014800023180010BDF0B583B00F00160062
S113020008AA117804004C434022BC4236D8002B83
S113021012D10200080000211A4CA04701003A0044
S113022000230020184CA04700220123121A8B41FE
S1130230120C1B041A431FE00022012B1CD10A00DC
S1130240002300210F4CA04702000B0000920193F1
S1130250380000210C4CA0470500402280239B015C
S113026098420BD8790FF800009A019BA047EA0046
S1130270821AD2B252032A4332800022100003B001
S1130280F0BDC046611F00001501000010B582B02A
S113029004000E4B1B78002B01D000290DD001A9BE
S11302A00C7013200A4B984713200A4B9847074BAE
S11302B05C7001221A70002006E0044B5B788342D4
S11302C001D01D2000E0002002B010BD8C000020F1
S11302D0311B0000A51A0000444B984233D006D8C5
S11302E0434B98420DD0434B98421BD06FE0424B96
S11302F098424AD0414B984258D0414B984266D1DB
S113030032E0012906D0002963D0022906D003294E
S113031006D001E03B4867E0002065E03A4863E02E
S11303203A4861E0012906D0002954D0022906D0B8
S1130330032906D001E0364856E0002054E0354851
S113034052E0354850E0012906D0002945D0022961
S113035006D0032906D001E0304845E0002043E000
S11303602F4841E02F483FE0012906D0002936D02C
S1130370022906D0032906D001E02B4834E00020EE
S113038032E02A4830E02A482EE0012906D000292C
S113039027D0022906D0032906D001E0254823E00E
S11303A0002021E024481FE024481DE0012906D054
S11303B0002918D0022906D0032906D001E02048DC
S11303C012E0002010E01F480EE01F480CE000205F
S11303D00AE01E4808E0032006E01D4804E01D482A
S11303E002E01D4800E01D487047C046001000426E
S11303F000080042000C004200180042001C0042A9
S11304000014004203000500030006000300070077
S11304100300010003001E0003001F0002000D0082
S113042002000E0002000F0003001100030012007E
S11304300300130005003F0005003E0005005200C4
S11304400300170003001800030019000300040050
S113045002000C0003001000050053000300160006
S113046030B587B00C4B6A4632CB32C232CB32C283
S1130470009B834206D001239A0069465258824267
S113048003D100E00023D8B203E00133062BF3D1FB
S1130490002007B030BDC046BC270000F0B5474679
S11304A080B40C00904600280DD1002A0EDD8F1870
S11304B0084E094D306821002B6898470134A74243
S11304C0F8D1404603E00120404200E0002004BC93
S11304D09046F0BDDC000020D4000020F0B5474673
S11304E080B40E0015000138022811D8002A12D059
S11304F000240C4B98460C4F43461868315D3B680A
S11305009847002809DB0134A542F5D1200006E014
S11305100120404203E0002001E00120404204BCED
S11305209046F0BDDC000020D800002010B502ACDD
S1130530247801704270002242800371447110BD1E
S113054010B500234380017900220248024B9847EA
S113055010BDC046E00000208D0E000010B5034A17
S1130560428001790248034B984710BDFF2F0000D9
S1130570E00000208D0E000010B5044B438001798B
S1130580034A0448044B984710BDC046FF2F00009F
S1130590FF0F0000E00000208D0E000070B50C007D
S11305A0002A05D1114B98472000114B98471BE0B6
S11305B0012A04D10D4DA8472000A84714E0022ABF
S11305C004D10B4DA8472000A8470DE0042A05D10B
S11305D0074B98472000054B984705E0032A03D1B1
S11305E0044DA8472000A84770BDC0465D05000023
S11305F079050000410500007047C04610B50400AD
S11306001A4B1B786D2B2BD1184B5B78DBB2642B08
S113061015D004D8202B1ED0612B0AD020E0732BD8
S113062013D0772B1CD11249881F0022114B9847F5
S113063016E00F49881F01220E4B984710E00C4921
S1130640881F02220B4B98470AE00949881F04229D
S1130650084B984704E00649881F0322054B984736
S1130660052202492000044B984710BD6001002078
S11306705A0100209D0500006913000070B582B086
S113068005000E0000226B46DA80064C6B46991D6D
S11306902800A0470028F9D16B4606331B88337025
S11306A002B070BD9112000070B505008CB2034E0B
S11306B021002800B0470028FAD170BD651200005F
S11306C070B5040000220649064DA84701220649D8
S11306D02000A8473122A15C03230B43A35470BD1F
S11306E0F905000051130000FD05000070B590B03D
S11306F004008023DB05009300230193FF22694655
S11307000A8100228B72CB72962189010891012102
S113071024206D4629540130295425316B5401316C
S11307206B540A9305316B5401316B5405932B823E
S1130730EB762A762A776A761323AB766A77802358
S11307405B0303931E4B0C931E4B0D9301235B42DF
S11307500E930F931C4E1D4D6A4631002000A8478E
S11307600028F9D125682800194B98471F23184001
S11307701E3B8340174A13602268D369002BFCD1C7
S11307802A68023313432B602000134B9847134B02
S11307901C60134A134B1A60134A144B1A606A46BE
S11307A009492000094B9847114D2B68986800218E
S11307B0104CA0472B6858680021A04710B070BDAA
S11307C0030004000300050000080042250F000098
S11307D05515000000E100E0C1060000DC00002027
S11307E0A9060000D80000207D060000D4000020E7
S11307F06C0000202720000070B5AAB00500274E29
S113080001AC31002000264B98470023A372254BEE
S113081063600122E272022323767633EB5C0633B3
S11308209B00E3187621695A59607923EB5CE1183F
S113083098310A701900163189007420285C085117
S11308401E339B007521695C19517E23EB5C0633D2
S11308509B00E3187C21695A59607F23EB5CE11803
S113086098310A701A00163292007A21695C11518B
S11308701E339B007B22AA5C1A51220031002800FF
S1130880094B98472A68022193681942FCD11168E0
S113089002230B4313602AB070BDC04600200042FF
S11308A051090000FFFF00009D0A0000084B984218
S11308B00AD0084B984205D00023074A904205D13C
S11308C0023302E0012300E00023DBB2180070478A
S11308D0002000420024004200280042F8B50F0026
S11308E015001E0004682000164B9847164B1A5C2E
S11308F01723BA4223D98000144BC2581723AA42A3
S11309001DD3002E10D080225202BA40236B1A420B
S1130910FCD180221203BA40A3681A42FCD11C37CE
S1130920BF003D5100230AE080225200BA40A36870
S11309301A42FCD11037BF00E41965600023180087
S1130940F8BDC046AD080000F0270000E427000011
S113095010B5040008004F4B984700232360800023
S11309604D4A82586260A372E372237363722372E6
S1130970E36123626362A36223756375A375E37500
S11309802376637623746374A374E3742C22A354D0
S11309900132A3540132A3540132A3540132A354AB
S11309A00132A3540132A3540132A3540132A3549B
S11309B00132A3540132A3540132A3540132A3548B
S11309C00132A3540132A3540132A3540132A3547B
S11309D00132A3540132A3540132A3540132A3546B
S11309E00132A3540132A3540132A3540132A3545B
S11309F00132A3540132A3540132A3540132A3544B
S1130A000132A3540132A3540132A3540132A3543A
S1130A100132A3540132A3540132A3540132A3542A
S1130A200132A3540132A3540132A3540132A3541A
S1130A300132A3540132A3540132A3544132A354CA
S1130A40A365A3670132A354E365E3670132A354AA
S1130A5023661A3AA3501B32A3546366173AA35071
S1130A601832A354A366143AA3501532A354E36670
S1130A70113AA3501232A35423670E3AA3500F32F3
S1130A80A35463670B3AA35001210C32A1540132E1
S1130A90A35410BDAD080000E4270000F0B55F4684
S1130AA056464D464446F0B48FB001900C001600F3
S1130AB00800834B9847030001008248076A9D00A1
S1130AC0814AAA583A43026222681C20920700D540
S1130AD0C5E122681B3802401B30002A00D0BEE169
S1130AE07A4FEF5917203568AF4200D2B7E17568E5
S1130AF0AF4200D2B3E1F069874200D29AE1306A92
S1130B00874200D298E1706A874200D296E1B06AC7
S1130B10874200D294E198208446B444604606900B
S1130B2000270578002D04D0694D6D5CBD4200DCC2
S1130B3088E101370130082FF3D10020029080258D
S1130B406D04AC4635182D7C012D09D1614D6D5CC9
S1130B50854200DA78E165468540029F2F4302977B
S1130B6001300428EED1A121715C002904D0802138
S1130B700901029808430290317A481E8141890094
S1130B800591717A012902D10598084305905149CC
S1130B90C95C080004913521775C874200D35DE18C
S1130BA02C21715C0F2900D958E1307B0890F07A30
S1130BB0099030002D3000259046A1462C00B34604
S1130BC0060007930AE09F7C049ABA4200D845E1E4
S1130BD0597A0A3604340F2900D93FE10906F02373
S1130BE01B051940330035782D04FF2212041540EB
S1130BF0AA46727880200390002A01D142460392CB
S1130C009A780820002A00D14046DA7894461022C7
S1130C106546002D00D14246BF02C0252D012F405C
S1130C2039431F7903252F40394355460D435F79D6
S1130C307F0160210F403D4399790902C027BF001D
S1130C4039400D43D9790903E027FF0139400D43A9
S1130C5003990D43284302430CA96250042CB2D1DA
S1130C604C465E46079B1A4AD25C9146594650311F
S1130C7058464130002700220125AA460225FF35A7
S1130C80AB4680256D02A846A4461C004B460D7851
S1130C90002D09D0934200D8D8E0454695402F4313
S1130CA00578002D06D11AE00578002D17D093425F
S1130CB000D8CDE0022D0FD15D4695402F430EE0C4
S1130CC0AD08000000040040D8270000E42700001D
S1130CD0F4270000F0270000554695402F430132C9
S1130CE001310230082AD2D1994623006446727E2B
S1130CF0120130210A40317E072001400A43924606
S1130D000022802040025546B118097D002906D0F2
S1130D100499914200DC9DE0010091400D430132B1
S1130D20042AF1D1AA460198020004323430002189
S1130D3002C28242FCD1002201984263826399007C
S1130D404A4A88500460A022B15C643A81540BA9D9
S1130D50B27A0A70464AD55C2800464B9847280068
S1130D60454B98474B46002B22DD350058359833C8
S1130D709846B04401239946B3464646A046069C8D
S1130D802378002B0ED00AAB4A469A7000230AAA95
S1130D90D3702B6A137013004A465A7028781900CE
S1130DA0364B984701340435B442E9D144465E4693
S1130DB0089B1A03099B1B021343029A13432360E3
S1130DC00422A3681A42FCD1FF2323710422A368DE
S1130DD01A42FCD16B461B7D63710C9BE3600D9B37
S1130DE02361A761264AA3681342FCD15346E363F7
S1130DF01022A3681A42FCD133686363214AA368B2
S1130E001342FCD1736823640498002824DD1C3643
S1130E1000211D4D2A008A40A3681A42FCD104CE49
S1130E200B0010339B00E3185A6001318842F1DC57
S1130E30002014E0172012E0172010E017200EE025
S1130E4017200CE017200AE0172008E0172006E01E
S1130E50172004E0172002E0002000E017200FB064
S1130E603CBC90469946A246AB46F0BD68010020C2
S1130E70D4270000311B0000A51A0000291C000023
S1130E8040000200800004000001080010B53C236B
S1130E90C35C014CA04710BDDD080000F8B54F4607
S1130EA04646C0B48000114BC35899461B68DF6A9C
S1130EB04B465B6B1F404B469B6B1F400C4D4B4698
S1130EC01C1D34234B4498462E683E4205D04846A8
S1130ED0236898474B461B68DE6204350434444556
S1130EE0F2D10CBC90469946F8BDC046680100207A
S1130EF0F827000010B50020014B984710BDC046EC
S1130F009D0E000010B50120014B984710BDC0464E
S1130F109D0E000010B50220014B984710BDC0463D
S1130F209D0E0000F0B55F4656464D464446F0B46B
S1130F3091B005000C00160029600800BB4B9847CF
S1130F4022680523D20700D567E122681733920788
S1130F5000D562E1B6490A6A871C1B3BBB401343B8
S1130F600B620FA92D27F35D0B701430C3B20293EB
S1130F701800B04B98470298AF4B9847F05D00219A
S1130F80AE4B9847F37A6B712423F35CAB71252342
S1130F90F35CEB71F37E2B72337F6B722B68994693
S1130FA01800A24B9847143000220E2306A98C4641
S1130FB063441A80328A02928023DB019A421AD057
S1130FC004D880239B019A420BD007E1C023DB01A4
S1130FD0029A9A420AD080231B029A4200D102E16B
S1130FE0FCE0102306930F3B079300E108230693CC
S1130FF0073B0793FBE033680493F3680393736937
S11310009846337E9B462623F35C059373689A4681
S1131010002B15D080235B059A4536D12723F35C3A
S1131020002B36D1336A1F00C0B2854B98470100AC
S11310300E2206AB9C4662443800824B984725E05A
S113104008230693002307932723F35C002B0BD07C
S1131050069B0093079B0E2206A98C466244B16A44
S1131060306A794FB84711E0336A1F00C0B2744B3D
S113107098470100069B0093079B0E2206A884460E
S113108062443800704FB84700E00020031E00D0CF
S1131090C3E0737E002B02D0B37E4A4693732A6862
S11310A0029FD369002BFCD10E3306AA94466344F5
S11310B01B884A469381049B039A13434246134375
S11310C0524613433B435A4612021343059A5707A9
S11310D01F432723F35C002B01D104331F43717E8C
S11310E08902337F5B021943737F1B021943242354
S11310F0F35C5B0419432523F05C00040A000243FB
S1131100B17AF37A194311433389FF2B04D0802237
S113111052041743194305E0F37E002B02D08023C9
S1131120DB041F432C23F35C002B03D1474B9B7838
S11311309B0701D580231F432A68D369002BFCD168
S11311404B4659602A68D369002BFCD14B461F607B
S11311500EAB80221A7000225A70DA709A70336BC8
S11311600A93736B0B93B36B0C93F36B02930D9312
S113117000270EAEF9B2BB000AAA9858002802D183
S11311802000334B9847431C05D03070000CC0B28C
S11311903100304B98470137042FEBD10023EB602B
S11311A02B616B61AB61EB612B62AB626B62002202
S11311B0EB85AB853033EA540133EA540133EA5406
S11311C00133EA542868194B984704002249234BF9
S11311D09847A400224BE55000231EE010230693F9
S11311E00023079303E00323069300230793336844
S11311F00493F368039373699846337E9B462623CE
S1131200F35C059373689A46002B00D11CE7802396
S11312105B059A4500D101E73BE7180011B03CBCDF
S113122090469946A246AB46F0BDC0466104000014
S113123000040040311B0000A51A00008D020000CC
S11312404D1B0000D1010000F90100000020004105
S1131250D9020000291C00008913000019150000A0
S113126074010020C2791C23002A0ED0C28D92B2D0
S1131270173B002A09D10368DA69002AFCD11985D1
S113128002211A7E0A42FCD0002318007047C0468F
S113129082791C23002A30D0828D92B2173B002A17
S11312A02BD10268107E400727D5D369002BFCD1CF
S11312B0538BDBB298061DD0980703D502235383C2
S11312C018331AE0580703D5042353831A3314E060
S11312D0D80703D50123538312330EE0D80603D570
S11312E010235383323308E09B0603D52023538312
S11312F0213302E0138D0B80002318007047C04691
S1131300F8B504000D00160007680F4B9847A38D2D
S11313109BB2002B03D00D4B9847052013E0A68504
S11313200A4B9847656205223223E2542E3BBB7573
S1131330237A002B01D02023BB75637A0020002B75
S113134001D00823BB75F8BD21160000611600000A
S1131350931C9B00C3185960302101239340425CC5
S1131360134343547047C04610B51723002A06D0D0
S113137084790533002C02D0024B984703001800EF
S113138010BDC04601130000F8B58000604BC5587D
S11313902C68E369002BFCD1237EA67D1E403023FC
S11313A0EB5C3122AF5C1F40F30722D5EB8D9BB27F
S11313B0002B1CD0AA6A1378DBB2511CA96269798C
S11313C0012901D09BB204E0517809020B43023297
S11313D0AA62DB05DB0D2385EB8D013B9BB2EB851C
S11313E0002B06D1013323750133A37501E00123DA
S11313F02375B30709D50223237500223133EA5438
S1131400FB0702D52800EB689847730760D5AB8DBE
S11314109BB2002B5AD0638BDBB21A0702D43F2253
S1131420134001E037221340002B2DD09A0705D535
S11314301A223223EA54303B63831FE05A0705D54E
S11314401E223223EA542E3B638317E0DA0705D5C4
S113145013223223EA54313B63830FE0DA0605D5C5
S113146042223223EA54223B638307E020221A42B9
S113147004D021323223EA54123B63837B0727D5FD
S113148028006B69984723E0238DDB05DB0DDAB276
S1131490696A0A706A6A511C69626979012904D10E
S11314A01B0A53706B6A01336B62AB8D013B9BB2B9
S11314B0AB85002B0CD10433237500222E33EA5460
S11314C0BB0705D528002B69984701E00423237541
S11314D0F30607D5102323752376FB0602D52800CF
S11314E0EB699847B30607D52023237523763B077A
S11314F002D52800AB699847330707D5082323751D
S11315002376BB0602D52B6A28009847F8BDC0464F
S1131510740100207047C046F0B50A4B1B78002BBD
S11315200CD1094F094E0A4D0024DE515A1914609A
S11315300433182BF9D10122024B1A708000024B9C
S1131540C150F0BD8E000020900000201515000051
S11315507401002010B582B00400062205496846D3
S1131560054B98472000054B98476B46185602B028
S113157010BDC046282800000520000061040000BA
S113158010B5024B1B680020984710BD9000002046
S113159010B5024B5B680120984710BD90000020F5
S11315A010B5024B9B680220984710BD90000020A4
S11315B010B5024BDB680320984710BD9000002053
S11315C010B5024B1B690420984710BD9000002001
S11315D010B5024B5B690520984710BD90000020B0
S11315E070B50020084B98470500084CFA21890083
S11315F0A047074B186007492800A047064B18600E
S11316000522064B1A6070BD191A0000491E00001D
S11316100400002040420F000000002010E000E021
S11316200C4B1B68002B10D1EFF31083002B09D156
S113163072B6BFF35F8F0022074B1A700132074B5B
S11316401A7002E00022054B1A70024A1368013333
S113165013607047A800002008000020AC000020A0
S1131660084B1A68013A1A601B68002B09D1064B13
S11316701B78002B05D00122044B1A70BFF35F8F37
S113168062B67047A8000020AC00002008000020CB
S1131690F0B583B001AC012565700027A7702570F3
S11316A021001320064EB04780221203054B9A6195
S11316B02770657021001C20B04703B0F0BDC04600
S11316C0C91600000044004100B583B001AB80227C
S11316D01A700A785A704A789A708A78DA701900FF
S11316E0014B984703B000BD291C000010B5082821
S11316F003D880001B4B1B589F46002030E01A4B38
S113170018692DE0194B1B6A9B059B0F1848D8409C
S113171026E0154B586923E0134B1B680220184040
S11317201ED012491022CB681A42FCD00E4B1B6803
S11317305B0714D500200F4B98470B4B9B681B0489
S11317401B0C58430CE05023084AD35C00205B0771
S113175006D5054BD86803E08020000200E0064867
S113176010BDC04630280000B00000200008004032
S113177000127A004D1B0000006CDC0270B50C4CAA
S1131780236A01788578427801200240920140263C
S1131790B343134302002A40D2017F3083431343EF
S11317A003220A40120203490B401343236270BD13
S11317B000080040FFFCFFFF082803D88000254BE9
S11317C01B589F46172044E0234A116A02230B4307
S11317D0136200203DE0204A916902230B43936188
S11317E0002036E01C4A118A02230B431382002096
S11317F02FE0194A918A02230B439382002028E0A8
S113180016490B68022213430B60134B9A84190088
S11318100E32CB681A42FCD0104A91680E4BD96242
S113182052689A6200229A8419001032CB681A42D4
S1131830FCD00A4B1B689BB2074A9384002008E043
S113184005494422885C022303438B54002000E0B2
S1131850002070475428000000080040B000002019
S113186030B585B0C222D2001A4B9A601A4A536826
S11318701E218B43536001236A4613700024174DC5
S1131880E0B26946A8470134252CF9D103A8002405
S11318904470012585700470114B98470620114B44
S11318A09847114B9847114B1C725C729C72DC7206
S11318B001956B465C7006236A4613701472547269
S11318C0694600200A4B984700200A4B984705B008
S11318D030BDC0460008004000400041311B0000FC
S11318E07D170000B9170000F9180000000400403B
S11318F01D190000D5190000064A916908230B43FD
S113190093610122044B1A7019000B781342FCD125
S11319107047C04600040040000C004070B506004B
S113192005000C78240204434B78002B02D080235A
S1131930DB021C434B7A002B02D080231B031C4385
S11319404868012818D9431E184210D1022806D924
S11319500223002201325B009842FBD800E00022FF
S113196012023243150080235B031C4304E005028A
S1131970354380239B021C430B7A002B02D0802327
S11319809B031C430F4A53785BB2002BFBDB0E4BCB
S113199098470E4B1E700B4A53785BB2002BFBDB4F
S11319A0084B9D601A0053785BB2002BFBDB054AA1
S11319B0516880235B020B401C435460044B9847DE
S11319C070BDC046000C004021160000080C004009
S11319D06116000010B504000B4A53785BB2002B6B
S11319E0FBDB0A4B98470A4B1C70074A53785BB2DF
S11319F0002BFBDB044A5368802149020B435360EC
S1131A00044B984710BDC046000C0040211600004E
S1131A10040C00406116000070B504001A4A5378A3
S1131A205BB2002BFBDB194B9847194B1C70164A11
S1131A3053785BB2002BFBDB134E7068C004C00EFE
S1131A40144B98470500124B1C707668F602F60F8B
S1131A50114B1C700C4A53785BB2002BFBDB0A4B16
S1131A609C682402240C0D4B9847002E07D1012CAE
S1131A7007D9210028000A4B9847050001E00134EA
S1131A80E540280070BDC046000C0040211600004F
S1131A90040C0040ED160000080C00406116000024
S1131AA0491E000010B50400064B9847064B1C70F5
S1131AB0064A51888023DB010B435380044B98472B
S1131AC010BDC04621160000020C0040000C00406E
S1131AD06116000010B504000F4B98470F4B1C70A3
S1131AE00F4B5A881205100F59880E4A0A405A8023
S1131AF059880D4A0A405A8019008022D2014B8825
S1131B001342FCD106494C880202064B234013437E
S1131B104B80064B984710BD21160000020C004074
S1131B20000C0040FFF0FFFFFFBFFFFF6116000045
S1131B3010B50C7824020443024B9847A4B2024B1C
S1131B405C8010BDD51A0000000C004010B50400E4
S1131B50064B9847064B1C70064B5C882405240FE3
S1131B60054B98472000054B984710BD21160000EF
S1131B70020C0040000C004061160000191A00001D
S1131B8030B5D378002B1ED11378802B04D01B06DC
S1131B9080246402234300E0002354780225AC43EC
S1131BA00AD19478002C03D18024A402234302E0B8
S1131BB0C024E402234341605478013C012C12D830
S1131BC0184C23400FE041600B041B0CA024E405D7
S1131BD0234383620B0CD024240623438362D378EB
S1131BE0002B18D01CE00C04240CA025ED052C437C
S1131BF01C4384620C0CD0252D062C431C438462A8
S1131C00D478002C0CD15B0305D59378012B01D13A
S1131C10816100E041615378013B012B00D8816070
S1131C2030BDC046FFFFFBFF10B503000A00C10929
S1131C300020002904D15809C00105498C4660449C
S1131C401F210B401E399940024B984710BDC046D6
S1131C5000440041811B00007047C04610B5054B8D
S1131C609847054B9847054B9847054B9847054BB4
S1131C70984710BD6118000091160000591C00001F
S1131C80591C0000591C0000FEE7C04670B52E4BDD
S1131C902E4A9A4203D02E4B2B4A9A4204D32D4B00
S1131CA02D4A9A4210D31EE02C4A294B03339B1A27
S1131CB09B0801339B000022234824498C588450FC
S1131CC004329A42FAD1EAE7254A224B03339B1A9B
S1131CD09B0801339B0000221F4800211418216037
S1131CE004329A42FAD11F4AFF211F4B8B4393605F
S1131CF0FD3990235B001D4AD1501D48C37803244D
S1131D00A34302221343C370C3780C26B3430821B0
S1131D100B43C370174B987B3025A8430500202044
S1131D2028439873987BB04301439973997BA143EB
S1131D300A439A73104A516880230B4353600F4B34
S1131D4098470F4B9847FEE7000000200029000049
S1131D50700000209001002070000020040000208A
S1131D607400002000ED00E000000000007000415D
S1131D70005000410048004100400041B91F0000EC
S1131D803D1E00000300064A1268002A02D10549DC
S1131D90034A1160024A1068C31813607047C046B2
S1131DA0C800002090210020012040427047C04616
S1131DB080239B014B6000207047C0460020704781
S1131DC070B582B0144B9847144B9847144C2000BC
S1131DD0144B98472000343002230093052212212B
S1131DE0114DA84720003A30032300930522132104
S1131DF0A847200040380D4B984701220C4B1A701D
S1131E00BFF35F8F62B60B4E054D0B4C05223100BC
S1131E102800A047FAE7C0465D1C0000E115000059
S1131E2020010020ED0600002D050000F907000048
S1131E3008000020600100206913000010B5014B68
S1131E409847C046C11D0000002243088B4274D34A
S1131E5003098B425FD3030A8B4244D3030B8B42A7
S1131E6028D3030C8B420DD3FF22090212BA030CB0
S1131E708B4202D31212090265D0030B8B4219D391
S1131E8000E0090AC30B8B4201D3CB03C01A5241B1
S1131E90830B8B4201D38B03C01A5241430B8B42F9
S1131EA001D34B03C01A5241030B8B4201D30B03E2
S1131EB0C01A5241C30A8B4201D3CB02C01A524109
S1131EC0830A8B4201D38B02C01A5241430A8B42CC
S1131ED001D34B02C01A5241030A8B4201D30B02B5
S1131EE0C01A5241CDD2C3098B4201D3CB01C01ACF
S1131EF0524183098B4201D38B01C01A52414309D9
S1131F008B4201D34B01C01A524103098B4201D3C6
S1131F100B01C01A5241C3088B4201D3CB00C01A33
S1131F20524183088B4201D38B00C01A52414308AB
S1131F308B4201D34B00C01A5241411A00D20146D0
S1131F40524110467047FFE701B5002000F006F843
S1131F5002BDC0460029F7D076E770477047C046F7
S1131F60F0B54F464646C0B41604360C99463300C5
S1131F7005042C0C070C150C63437E436F43654327
S1131F801C0CAD1964199C46A64203D980235B023C
S1131F90984647446346250CEF191D044B464A43B3
S1131FA043432D0C240464199918C91920000CBC4E
S1131FB090469946F0BDC0460E4B70B500251E00F4
S1131FC00D4CE41AA410A54204D0AB00F358984772
S1131FD00135F8E700F084FC084B00251E00084C8E
S1131FE0E41AA410A54204D0AB00F3589847013575
S1131FF0F8E770BDEC280000EC280000EC28000095
S1132000F0280000002310B59A4203D0CC5CC454DD
S11320100133F9E710BD03008218934202D019700E
S11320200133FAE770474A424A41802310B552000F
S1132030DB0000F001F810BDF0B51D00514B85B078
S11320401E6804000F000092002E05D0B369002B17
S113205002D1300000F094F94B4B9C4201D17468DA
S113206008E04A4B9C4201D1B46803E0484B9C42CF
S113207000D1F468009B022B05D0012B00D97CE031
S1132080002D00DA79E02100300000F00BF9616BDB
S1132090002908D023004433994202D0300000F0D4
S11320A033FA002363630023A3616360A3891B06DF
S11320B003D52169300000F027FAA289354B13407B
S11320C0A381009B022B21D003AB02AA2100300084
S11320D000F0EAF9A3891843A081002D01D1029DE3
S11320E001E0002F25D1280000F004FA0195071E15
S11320F01AD1029B0193AB4202D10120404206E077
S1132100019800F0F7F9071E0ED1F6E7002002222D
S1132110A3891343A3810023A360230047332360CF
S11321202361012363612AE08022A389019D134373
S1132130A381B369002B02D1300000F021F9009B88
S1132140012B03D1A389009A1A43A2810823A289EF
S11321502760134027616561181E0CD001231A40C3
S11321600023101E984204D06D42A360A56118009C
S113217005E0A56003E0A36001E00120404205B052
S1132180F0BDC0466C00002080280000A02800009C
S1132190C02800005CF3FFFFF7B58A8905000C0036
S11321A013075AD44B68002B02DC0B6C002B19DD8F
S11321B0E76A002F16D000232E682B6080235B0172
S11321C01A4001D0606D14E00123216A2800B84749
S11321D0431C0ED12B68002B0BD01D2B01D0162BCA
S11321E002D12E6000205AE04022A3891343A38128
S11321F055E0A3895B0706D56368C01A636B002B9F
S113220001D0236CC01A00230200216A2800E76A67
S1132210B847A389421C06D129681D293AD8204A07
S1132220CA40D20736D50022626022692260DB04EC
S113223005D5431C02D12B68002B00D16065616B6E
S11322402E600029CED023004433994202D02800C6
S113225000F05AF90020606321E00F69002FC1D01B
S11322600B680F60DB1B01930023920700D14B69BD
S1132270A36003E0019B3F181B1A0193019B002BF1
S1132280B0DD019B3A00216A2800A66AB047002805
S1132290F0DCA389402201201343A3814042FEBD08
S11322A0010040200B6970B505000C00002B01D122
S11322B000201CE0002804D08369002B01D100F029
S11322C05FF80B4B9C4201D16C6808E0094B9C42BF
S11322D001D1AC6803E0084B9C4200D1EC680C22AD
S11322E0A35E002BE4D021002800FFF755FF70BD4A
S11322F080280000A0280000C028000010B5024972
S113230000F0B0F810BDC046A5220000002310B5AF
S1132310040003604360836081814366C28103617A
S113232043618361190008225C30FFF774FE054B9A
S113233024626362044BA362044BE362044B236391
S113234010BDC046652600008D260000C52600008D
S1132350F126000070B568254B1E5D430E00290070
S1132360743100F017F9041E08D000212A0001601E
S113237046600C30A0606832FFF74DFE200070BD4F
S1132380836913B50400002B28D18364C3640365F7
S1132390134B144A1B6882620193984201D10123B2
S11323A08361200000F020F86060200000F01CF839
S11323B0A060200000F018F80022E06004216068AA
S11323C0FFF7A4FF01220921A068FFF79FFF022263
S11323D01221E068FFF79AFF0123A36113BDC046F1
S11323E07C280000FD220000F8B51D4B06001D6886
S11323F0AB69002B02D12800FFF7C2FF4835AC6857
S11324006B68013B05D40C22A75E002F10D0683402
S1132410F7E72B68002B01D02D68F0E7042130008A
S1132420FFF798FF28600028F6D10C23336016E0EC
S1132430012320005B42E3810233A38167662760A6
S1132440A760676027616761A7615C300822390073
S1132450FFF7E1FD20006763A763A764E764F8BDA5
S11324607C280000F7B504000700002601914834D9
S1132470002C16D06368A5680093009B013B009371
S11324800DD4AB89012B08D90E22AB5E013304D0E5
S113249029003800019B984706436835EDE7246816
S11324A0E6E73000FEBD000070B50E001D000E23EF
S11324B0C95E90B01400002906DA00232B60B389AA
S11324C01B060FD540230FE001AA00F03DF90028B8
S11324D0F3DBF023029A1B021340054A9B185A426D
S11324E053412B608023DB000020236010B070BDBB
S11324F000E0FFFF10B5034B0100186800F04AF834
S113250010BDC0466C00002030B500293ED004390F
S11325100B68002B00DAC9181D4A13681400002B3D
S113252002D14B60116031E08B420DD90A688818E2
S1132530834203D118685B6882180A604B6021608B
S113254024E08A4203D813005A68002AF9D11D688E
S11325505C198C420BD109686918581819608242B9
S113256014D110685268411819605A600EE08C4208
S113257002D90C23036009E008680C18A24203D1B5
S113258014685268201808604A60596030BDC0461B
S1132590D0000020032370B5CD1C9D4308350600F0
S11325A00C2D01D20C2505E0002D03DA0C230020AC
S11325B0336040E0A942F9D81F4B1C681A0021007F
S11325C0002913D00B685B1B0DD40B2B02D90B60B5
S11325D0CC181EE08C4202D1636813601AE04B6889
S11325E063600C0016E00C004968E9E7134C2368AB
S11325F0002B03D1300000F023F8206029003000C4
S113260000F01EF8431CD1D00323C41C9C43A042F9
S11326100AD12560200007220B30231D9043C31AE2
S113262009D05A42E25006E0211A300000F008F8BE
S1132630431CEED1BAE770BDD0000020CC000020CE
S1132640002370B5064C050008002360FFF79AFBD1
S1132650431C03D12368002B00D02B6070BDC046FF
S11326608C01002070B50C000E25495F00F092F833
S1132670002803DB636D1B18636503E0A289024B2A
S11326801340A38170BDC046FFEFFFFFF8B51F00E4
S11326908B8905000C001600DB0505D50E23C95EE9
S11326A00022022300F062F8A289054B280013409F
S11326B0A38132000E23E15E3B0000F01FF8F8BD59
S11326C0FFEFFFFF70B50C000E25495F00F04EF8D8
S11326D0A389421C03D1054A1340A38104E080224C
S11326E052011343A381606570BDC046FFEFFFFF35
S11326F010B50E23C95E00F015F810BD70B50500C5
S1132700080011000022064C22601A00FDF7E6FEC4
S1132710431C03D12368002B00D02B6070BDC0463E
S11327208C010020002370B5064C050008002360CE
S1132730FFF73AFB431C03D12368002B00D02B6026
S113274070BDC0468C010020002370B5064C050006
S1132750080011002360FFF72BFB431C03D12368FF
S1132760002B00D02B6070BD8C01002070B50500DB
S1132770080011000022064C22601A00FFF71EFB1D
S1132780431C03D12368002B00D02B6070BDC046CE
S11327908C01002070B50500080011000022064CD1
S11327A022601A00FDF77AFE431C03D12368002B34
S11327B000D02B6070BDC0468C0100200008004290
S11327C0000C0042001000420014004200180042B5
S11327D0001C00421A1A1B00000100000002000045
S11327E000040000FFFFFF00FFFFFF00FFFF0000E9
S11327F004020200080402000100000002000000BC
S11328000400000008000000001000000020000088
S113281000400000008000000000010000000200F1
S11328200000040000000800090A0B0C0D0E000053
S1132830FE160000FA160000FA16000058170000F1
S113284058170000121700000417000018170000A2
S113285046170000E4170000C4170000C417000066
S113286050180000D6170000F2170000C817000027
S11328700018000040180000430000000C00002075
S11328800000000000000000000000000000000044
S11328900000000000000000000000000000000034
S11328A00000000000000000000000000000000024
S11328B00000000000000000000000000000000014
S11328C00000000000000000000000000000000004
S11328D000000000000000000000000000000000F4
S11328E0F8B5C046F8BC08BC9E467047DD00000041
S11328F0F8B5C046F8BC08BC9E467047B500000059
S113290008000000401F000001000000000000005B
S113291080280000A0280000C0280000000000005B
S11329200000000000000000000000007828000003
S11329300000000000000000000000000000000093
S11329400000000000000000000000000000000083
S11329500000000000000000000000000000000073
S11329600000000000000000000000000C00002037
S9031C8D53
