S00D000066726F6E742E73726563EE
S1130000B8430020092C0000052C0000052C00003A
S113001000000000000000000000000000000000DC
S1130020000000000000000000000000052C00009B
S11300300000000000000000052C0000052C00005A
S1130040052C0000052C0000052C0000052C0000E8
S1130050490F0000052C0000052C0000052C0000B1
S1130060052C00003515000045150000551500004D
S11300706515000075150000851500006509000070
S11300807509000085090000E5280000F528000036
S1130090052900000000000000000000052C0000FD
S11300A0052C000000000000052C000000000000EA
S11300B00000000010B5064C2378002B07D1054B37
S11300C0002B02D0044800E000BF0123237010BDC0
S11300D0DC0100200000000020B00000084B10B537
S11300E0002B03D00749084800E000BF0748036815
S11300F0002B00D110BD064B002BFBD09847F9E72D
S113010000000000E001002020B0000020B000004A
S1130110000000000323D92202498B54024A1370C1
S11301207047C046C40800201022002070B5574B09
S11301301B78013B012B1ED9CC23554AD458554971
S1130140201C554B984700282ED00121D923504A12
S1130150D1544E4B4E48D922825C1A70D022825818
S11301605A609C60D4228258DA60783005224B4968
S11301704B4B984717E00021D923454AD154434BB0
S11301804348D922825C1A70D02282585A60CC2209
S113019082589A60D4228258DA60783005223F4926
S11301A010313F4B984770BDD023394AD5583D494B
S11301B0281C394B984700280CD03B49D423344A97
S11301C0D058354B984700283BD00021D923304ADA
S11301D0D154D4E73549281C354B984700280CD016
S11301E03249D4232A4AD058314B9847002804D0A6
S11301F00021D923264AD154C1E72A49281C264B79
S11302009847002823D1D423214AD6582649301CA4
S1130210274B9847002804D00221D9231C4AD154E3
S113022019E02449301C1C4B9847002804D00121B4
S1130230D923174AD1548CE70021D923144AD15425
S11302409DE71A49281C1A4B9847002814D102210B
S1130250D9230F4AD1540D4B0D48D922825C1A7010
S11302605D609C60D4228258DA60783005220B49A4
S113027008310B4B984796E70C49D423044AD058CD
S11302800B4B98470028B3D1E1E7C0461022002069
S1130290C4080020000028417982000044AA00001C
S11302A0CD1D00000000E0400000D0400000A0414F
S11302B0A1820000000020400022014B1A70704708
S11302C0F801002010B50B4B1B78002B00D010BD9B
S11302D009480A334381012404734473074B0361BF
S11302E005230375064B8361064B9847014B1C702D
S11302F0EDE7C046F8010020A009002008220020F4
S1130300B9020000B52E000010B50B4B1B78002B72
S113031000D010BD09480A33438101240473447397
S1130320074B036105230375064B8361064B98470E
S1130330014B1C70EDE7C046F8010020A009002025
S113034024220020B9020000B52E000010B50B4B8A
S11303501B78002B00D010BD09480A3343810124C7
S113036004734473074B036105230375064B8361D0
S1130370064B9847014B1C70EDE7C046F80100207E
S1130380A0090020C0090020B9020000B52E000019
S113039070B50C4C052221000B480C4DA8472100D8
S11303A0083105220A48A8472100103105220948CE
S11303B0A8470023084A1360084A1370084A1370B8
S11303C070BDC04678AA0000242200201154000009
S11303D008220020C009002020220020F80100206B
S11303E006220020F8B583681A78012A00D0F8BDE7
S11303F05A78022AFBD11A79042A43D893002D4A49
S1130400D3589F462C482D4B98470021D8232C4A7B
S1130410D15432242B4D18352B4F2C4E0522290054
S11304203800B047013C002CF8D12948294B9847A3
S1130430DDE72948294B9847D9E72948274B9847AE
S11304400122284B1A700021D8231D4AD1540A24B2
S11304501C4D18351C4F1D4E052229003800B0478D
S1130460013C002CF8D11A481A4B9847BFE71E48A4
S11304701A4B98470121D823114AD1541448154BDB
S11304809847B4E719480D4B98470021D8230C4AE4
S1130490D15432240B4D18350B4F0C4E0522290034
S11304A03800B047013C002CF8D111480B4B984759
S11304B09DE7C04664AA0000A4AA0000155D0000E0
S11304C0C408002078AA00003C090020CD1D0000CB
S11304D01002002065430000B0AA0000315E000055
S11304E0B4AA000006220020C0AA0000CCAA000082
S11304F0E4AA000010B5836819780C4C21705A786E
S113050062700B480B4B984723781E2B07D0074B80
S11305105B781E2B03D00022074B1A6010BD0748DE
S1130520074B98470222074B1A70F4E7C0080020D3
S113053098AA0000155D000020220020FC01002084
S11305406543000006220020F8B5CE46474680B534
S113055083681C786101091B224BC9180023826837
S1130560D25CCA5401331F2BF9D11F4B1B689C4228
S11305700CD0013B9C4211D01C4B1B781A4A1268C8
S113058093420FD00CBC90469946F8BD1848194BBD
S11305909847154A136801331360EDE71648154B65
S11305A09847E9E70021154A1170002BEADD0D4C4C
S11305B000239846124E134F134B994625001F35BE
S11305C021783000B8470134AC42F9D10A20C84739
S11305D001239C46E0442C00044B1B784345EDDC8E
S11305E0D0E7C046C809002020220020C00800200F
S11305F0FC010020654300002402002006220020A4
S1130600A0AA0000155D0000495D000010B50400BB
S113061081680C480C4B98470C4B1B78012B09D074
S1130620002B03D0022B09D0012010BD2000084B61
S11306309847F9E72000074B9847F5E72000064B59
S11306409847F1E7F8AA0000155D00000622002093
S1130650E5030000F50400004905000010B5124B45
S113066098470B20114B98471148124B98470E207E
S1130670114B98470120114B984711490120114B08
S11306809847114B6421996000221A730F4818612E
S11306900F4B99601A730F4818610F4B99601A73C6
S11306A00E4A1A6110BDC04691030000112E0000CD
S11306B067450000252E00008D40000079400000B1
S11306C00D060000392E0000FC010020C5020000C8
S11306D02402002009030000100200204D03000042
S11306E00170427000238370002343607047000050
S11306F0F0B585B003A901224A7000238B7002ADC6
S11307002B706A70AB70684603704270837001ACE2
S113071023706270A3700A70094FB533F85C094EF8
S1130720B047B423F85C2900B047BC23F85C21002F
S1130730B047C423F85C6946B04705B0F0BDC04675
S1130740C4080020AD100000F0B583B00400427866
S1130750D1090023002904D15309DB015C498C46EB
S113076063441F21114001228A405A612820594BB9
S113077098476278D1090023002904D15309DB0189
S113078053498C4663441F21114001228A409A61D7
S11307900A20504B98476278D1090023002904D1DC
S11307A05309DB014A498C4663441F21114001224D
S11307B08A405A61484B1A68D37B5BB2002BFBDB3F
S11307C000231371D37B5BB2002BFBDB40235371FB
S11307D023781F221A4001209040DA090021002AC0
S11307E004D15909C9013A4B9C4661443B4B0A6AFE
S11307F0024205D1013B9BB2002BF8D1606862E054
S11308003548374B9847050023781F221A400120AA
S11308109040DA090021002A04D15909C9012C4B5E
S11308209C4661442D4B0A6A024205D0013B9BB2AF
S1130830002BF8D1606846E0274E3000284B9847DB
S11308403268D37B5BB2002BFBDB80235371000443
S1130850000C2D042D0C401B224FB847224B984707
S1130860224A234B234DA847234B984701906568A0
S1130870A6783000B847071C011C281C1F4B98475A
S1130880011C01981E4B9847002809D1391C281CCB
S11308901C4B9847011C01981B4B9847002805D016
S11308A0731CDBB2032B10D8A3700195134F1749A7
S11308B00198B847061C1649281CB847011C301C6F
S11308C0144B9847606003B0F0BD0023A370EDE7BC
S11308D0004400416D0D0000C408002001FF000029
S11308E0892B0000618C000051A800009CC420B03A
S11308F07268913F899B0000F5A80000218A0000DE
S1130900A18200004186000079820000CCCCCC3E5C
S11309109A99193F1D830000F0B5C64600B58000C2
S11309200E4BC7583B68DE6ABB6B7A6B13401E40A4
S113093000240B4B984602E00434302C0AD0434682
S1130940E5583542F8D03B195B68380098473B6856
S1130950DD62F1E704BC9046F0BDC0462C220020C5
S1130960FCAA000010B50020014B984710BDC046FA
S11309701909000010B50120014B984710BDC0466D
S11309801909000010B50220014B984710BDC0465C
S1130990190900007047000010B504000B4B1B78C8
S11309A0DBB2202B0BD0772B03D105220849094B4E
S11309B09847052205492000074B984710BD05229A
S11309C003490831034B9847F3E7C046002200204F
S11309D02CAB0000CD1D0000ED1D000070B582B0F1
S11309E005000E0000226B46DA80064C6B46991D0A
S11309F02800A0470028F9D16B4606331B883370C2
S1130A0002B070BDB91C000070B505008CB2034E75
S1130A1021002800B0470028FAD170BD8D1C0000C9
S1130A2010B58EB001AA0023002193709371138135
S1130A30002050709172117391735173117453614A
S1130A40936111771362536213855385938503333E
S1130A501370C0239B0093800123D372074C084971
S1130A602000084B98472268D37B5BB2002BFBDB4A
S1130A70138802210B4313800EB010BDC40800205C
S1130A80003000424D29000070B5040000220649E0
S1130A90064DA847012206492000A8473122A35C3D
S1130AA003210B43A35470BD95090000B51D00003C
S1130AB09909000070B590B004008023DB05009311
S1130AC000230193FF2269460A8100228B72CB72B4
S1130AD0962189010891012124206D462954013071
S1130AE0295425316B5401316B540A9305316B54ED
S1130AF001316B5405932B82EB762A762A776A763A
S1130B001323AB766A7780235B0303931E4B0C930A
S1130B101E4B0D9301235B420E930F931C4E1D4DF0
S1130B206A4631002000A8470028F9D1256828002A
S1130B30194B98471F2318401E3B8340174A1360E4
S1130B402268D369002BFCD12B68022213432B604B
S1130B502000134B9847134B1C60134A134B1A6025
S1130B60134A144B1A606A4609492000094B9847F6
S1130B70114D2B6898680021104CA0472B685868C9
S1130B800021A04710B070BD03000400030005005D
S1130B90000800424D1900000515000000E100E0C6
S1130BA0890A0000A8220020090A0000A4220020CB
S1130BB0DD090000A02200200C000020BD5E000022
S1130BC070B5094E3000094DA8473400B43CB061FB
S1130BD02000C430A847D423E0502000BC30A847EC
S1130BE0D023E05070BDC0467809002049070000BA
S1130BF010B58EB001AA0023002193711381002047
S1130C0050709172D1721173917351731174536155
S1130C10936111771362536213855385938504336B
S1130C209370013B1370E023DB009380322129236E
S1130C30D154084C08492000084B98472268D37BBC
S1130C405BB2002BFBDB138802210B4313800EB035
S1130C5010BDC046E0080020003400424D290000C9
S1130C6010B50E4A138801339BB21380052B08D8A4
S1130C700B4A138801339BB213800A2B07D8012037
S1130C8010BD084B98470022044B1A80F0E7064B2E
S1130C9098470022024B1A80F1E7C0463A0200202E
S1130CA038020020C10B00002D01000010B5D8232C
S1130CB0084AD35C012B06D0022B09D00021D8238B
S1130CC0044AD15404E0044B9847D823014AD05431
S1130CD010BDC046C4080020610C000010B50D4CC6
S1130CE000220D4920000D4B984720681C3C0C4BFA
S1130CF098470C4B1A5C1F231340012211009940A2
S1130D00094B19603521635C012003436354E36993
S1130D105A7310BDE0080020AD0C00004D280000FF
S1130D20152900003CAB000000E100E070B5002094
S1130D30084B98470500084CFA218900A047074B47
S1130D40186007492800A047064B18600522064B87
S1130D501A6070BDDD250000ED7E0000000000205B
S1130D6040420F000400002010E000E030B5084BC2
S1130D701C68084A002580214902013807D3002C49
S1130D80FBD05460956013680B42FCD0F5E730BD8E
S1130D900400002010E000E00C4B1B68002B06D17F
S1130DA0EFF31083002B07D00022094B1A70074A77
S1130DB0136801331360704772B6BFF35F8F00226C
S1130DC0044B1A700132024B1A70F0E73C02002007
S1130DD04002002008000020084B1A68013A1A60FB
S1130DE01B68002B09D1064B1B78002B05D0012270
S1130DF0044B1A70BFF35F8F62B670473C02002049
S1130E004002002008000020F0B5C64600B582B0BC
S1130E1001AC012666700027A770267021001320FC
S1130E20274DA847274B984680231B0342469361CE
S1130E302770667021001C20A8476670A770267072
S1130E4021005220A84721003E20A84721003F202E
S1130E50A84721002F20A84721001420A84780225A
S1130E60D202194B9A61194B8022D2059A618022D1
S1130E7012069A61802212029A6180235B03424621
S1130E809361277021005320A847114A116A8023D7
S1130E909B030B43136204220E4B1A806B469E7015
S1130EA0DF7005236A4613705670694609200A4CA0
S1130EB0A04769460C20A04702B004BC9046F0BD90
S1130EC0AD10000000440041004500418044004151
S1130ED00004004000540042ED2700001723002ABC
S1130EE001D0180070478B00064A9B58002B03D092
S1130EF0834205D01D23F4E7890088500023F0E7DE
S1130F000023EEE73C2200201723002901D018001B
S1130F10704700221F2800D8024A01238340D3606F
S1130F200023F4E7001800401723002901D018001B
S1130F30704700221F2800D8024A0123834093608F
S1130F400023F4E70018004070B50022104B1A701B
S1130F50002310491F25104E0D4C0AE00D4908E0EE
S1130F6023780133DBB223700F2B10D800211F2B01
S1130F70F4D9280018400122824008691042EFD0B9
S1130F800A619B009B59002BEAD09847E8E770BDA3
S1130F9038220020001800403C220020044A137824
S1130FA002210B43137053785BB2002BFBDB7047B9
S1130FB00018004000B583B0124A936940210B43E6
S1130FC0936101A900230B7005200F4B984705205E
S1130FD00E4B98470E4A137801210B431370537834
S1130FE05BB2002BFBDB0B4B19004031002204C326
S1130FF09942FCD11022084B1A60084B984703B061
S113100000BDC04600040040F5260000692600002B
S1131010001800403C22002000E100E09D0F000089
S1131020002303604360012202724272837202331E
S1131030C3727047F0B583B005000C0001A900230A
S11310404B70CB7023790B70237A8B702078154BFF
S1131050984700201F2D00D8134807222A409200E9
S1131060E77AA37A002B01D008231F43EB089B00E7
S1131070C31899690F269640B14397403A000A4332
S11310809A61637A002B06D143690122AA409343F3
S1131090436103B0F0BD42690123AB401343436194
S11310A0F7E7C046ED2700000018004000B583B004
S11310B001AB80221A700A785A704A789A708A783A
S11310C0DA701900014B984703B000BDED2700000A
S11310D010B5490840230024814202D2180010BDF3
S11310E01C00091A631C9BB28842F9D94023FF2CC7
S11310F0F4D814800023F1E7F0B5DE4657464E4697
S11311004546E0B589B00C00059212AA1178050095
S11311104D434022A54207D9100009B03CBC90467B
S11311209946A246AB46F0BD002B55D102000800FB
S11311300021634DA847834626000027002300248E
S113114000930194002200233F2020218C461F3964
S11311500296039714E06446241A0D00E540A8465D
S113116015E0029C039D121BAB414D46009E019F5E
S113117035433C00464634430095019401381DD361
S1131180202464420419E6D40D00A540A8460C00AE
S11311908440A14692185B4114001D0046465F46F8
S11311A03E4203D00E00264332002B00029C039DD6
S11311B09D42E3D8D5D19442E0D8D2E7002201235E
S11311C000980199121A8B411900130C0A041A434E
S11311D0059B1A8000229FE70022012BF8D1630FA0
S11311E00493E30098460A0000230021344CA047EE
S11311F004000D0000239C46069320339B460126E1
S11312006346079348E05946C91B3000C8408246EC
S113121010E000980199121A8B4102994846014343
S11312200291013F25D3202149427918EBD43000A3
S1131230884082463100B940894692185B411000CB
S1131240190044464D462C40A4465446049D2C4067
S1131250A246644655462C4303D03400044322007E
S11312600B00009801999942DBD8D2D19042D8D88A
S1131270CFE7009C019D0299079A8B1ADB0811495C
S11312808B4214D9069B0133DBB219000693130079
S113129001330793082908D0002302930022002376
S11312A03F21009401950F00BDE7402234E740221E
S11312B00699082900D12FE74A031A4388E7C04654
S11312C0C9820000FF1F000010B582B004000E4B5D
S11312D01B78002B07D0002905D10B4B5B78834288
S11312E010D01D200CE001A90C701320074B984767
S11312F01320074B9847044B5C7001221A7000209E
S113130002B010BD0020FBE744020020F5260000D7
S113131069260000404B984231D00AD93F4B98428D
S11313204DD03F4B98425AD03E4B984237D0002084
S113133070473D4B98420CD03C4B9842F7D1012961
S113134017D000295DD0022915D0032915D000201B
S1131350EEE7012907D0002951D0022905D003293D
S113136005D00020E4E73248E2E73248E0E73248BB
S1131370DEE73248DCE73248DAE73248D8E70129C9
S113138007D000293FD0022905D0032905D0002029
S1131390CEE72D48CCE72D48CAE72D48C8E70129F8
S11313A007D0002931D0022905D0032905D0002017
S11313B0BEE72848BCE72848BAE72848B8E7012927
S11313C007D0002923D0022905D0032905D0002005
S11313D0AEE72348ACE72348AAE72348A8E7012956
S11313E007D0002915D0022905D0032905D00020F3
S11313F09EE71E489CE71E489AE71E4898E71E4849
S113140096E7032094E71D4892E71D4890E71D489E
S11314108EE71D488CE7C0460010004200180042C9
S1131420001C00420014004200080042000C00426C
S11314300300050003000600030007000300010089
S113144003001E0003001F0002000D0002000E0036
S113145002000F0003001100030012000300130038
S113146005003F0005003E00050052000300170080
S113147003001800030019000300040002000C001C
S113148003001000050053000300160030B587B0B8
S11314900B4B6A4632CB32C232CB32C2009B834200
S11314A00BD001239A0069465258824206D0013378
S11314B0062BF7D1002007B030BD0023D8B2FAE7DD
S11314C040AB000070470000F0B50A4B1B78002BBE
S11314D00CD1094F094E0A4D0024DE515A191460EB
S11314E00433182BF9D10122024B1A708000024BED
S11314F0C150F0BD4602002048020020C51400007F
S11315007C22002000B583B009236A46137001339E
S11315105370013393700133D3700133137101336A
S11315205371034B98476B46185603B000BDC04631
S11315308D14000010B5024B1B680020984710BDA5
S11315404802002010B5024B5B680120984710BD8B
S11315504802002010B5024B9B680220984710BD3A
S11315604802002010B5024BDB680320984710BDE9
S11315704802002010B5024B1B690420984710BD97
S11315804802002010B5024B5B690520984710BD46
S113159048020020F0B5D6464F4680B58BB0814650
S11315A00F001400030019600B689B0709D40B6833
S11315B00520DB0700D498E00BB00CBC91469A469A
S11315C0F0BD936A0593D36A0693136B0793536B29
S11315D00893002605AB01930AE03800934B984723
S11315E00CE00F23184081422DD10136042E2FD058
S11315F0F1B2B300019A98580028EED0431CF4D0FD
S11316000104090C000CC3B29C460023020605D455
S113161063465B09DB01864A924653441F226046B7
S11316200240981840300078824680205546ED07E5
S1131630D9D552089B1830331878C0B26346DB07FB
S1131640CFD50009CFE700234A4613601C20B3E737
S11316501320784B984722780025012A27D0636805
S1131660A2681343E26813432B43227C617C002964
S113167001D080210B43A17C002902D08021890262
S11316800A43E17C002902D0802189000A43217D9C
S1131690002902D0802189010A43396802200343CA
S11316A08B4218D000234A4613601C2084E704AA06
S11316B00100A069604B984703001720002B00D05D
S11316C07AE73B7BDBB204AA127805309A4200D059
S11316D072E70C35C3E77B689342E3D123784A462B
S11316E05371237C9371002066E70800534B98479D
S11316F0534A116A851C0123AB400B43136209A9A9
S11317002426A35D0B701430C5B228004D4B9847B6
S113171028004D4B9847A05D00214C4B98472378F7
S1131720012B19D04B461E6804AB80221A7000228C
S11317305A7001219970DA702378002B01D104AB1F
S11317409A70A36A0593E36A0693236B0793636B0A
S11317500893002705AD11E03B680C2213433B605E
S1131760E0E73000314B98470DE004A90870000C05
S1131770C0B2374B98470137042F07D0F9B2BB00EA
S113178058590028EDD0431CEFD1F4E723784A469A
S11317905371237C9371A37CD371237D1372002234
S11317A002ABDA802378012B28D06368A268134344
S11317B0E2681343217C627C002A03D1254A927893
S11317C0920701D580221343A27C002A02D08022F2
S11317D092021143E27C002A02D08022920011433B
S11317E0227D002A02D080229201114332681343E1
S11317F0336073680B4373600020DDE64B46186862
S11318000E4B98471430C0B20A4B9847010002AB04
S11318109A1DA069084B984703001720002B00D09D
S1131820CAE602AB06331B783373BEE71513000018
S11318300044004111270000D11000008D14000065
S113184000040040F526000069260000C9120000CB
S1131850ED2700000020004110B544791523012C28
S113186001D0180010BD047A0023002CF9D1002AFD
S113187058D04B78002B44D003681B7EDB0710D470
S11318800A78D1090023002904D15309DB012E4928
S11318908C4663441F21114001228A409A6105232A
S11318A0DFE70A78D4090023002C04D15309DB01B3
S11318B0254CA44663441F2414400122A2405A61CB
S11318C003681A7ED20701D58A789A62C279002306
S11318D0002AC6D102680421137E0B42FCD0117E7B
S11318E000234907BDD5538B5B0701D504235383DC
S11318F08379012B02D0936A0023B2E7936A002311
S1131900AFE70A78D1090023002904D15309DB0188
S11319100D498C4663441F21114001228A405A61BB
S113192000239EE70A78D1090023002904D1530932
S1131930DB0105498C4663441F21114001228A4082
S11319409A6100238DE7C04600440041F0B5DE46AD
S113195057464E464546E0B591B005000C001600CA
S113196029600800BB4B9847020023680520DB0769
S113197006D511B03CBC90469946A246AB46F0BD94
S1131980236817309B07F4D4B349086A971C0123D2
S1131990BB4003430B620FA92D27F35D0B70143278
S11319A0D3B202931800AD4B98470298AC4B9847BA
S11319B0F05D0021AB4B9847F37A6B712423F35C01
S11319C0AB712523F35CEB71F37E2B72337F6B7267
S11319D02B68984618009F4B9847143000220E231A
S11319E006A98C4663441A80328A02928023DB0162
S11319F09A4200D19CE00FD9C023DB01029A9A429B
S1131A0000D190E080231B029A4200D01DE1032301
S1131A1006930023079308E080239B019A4200D099
S1131A2013E1102306930F3B079333680593F36880
S1131A309B4673690393337E04932623F35C9A468F
S1131A4073689946002B00D19EE080235B0599457D
S1131A5000D182E0737E002B02D0B37E42469373A2
S1131A602A68029FD369002BFCD10E3306AA944640
S1131A7063441B8842469381059B5A461343039A49
S1131A8013434A4613431F43049B1B021F435346FD
S1131A905B071F432723F35C002B01D104331F434F
S1131AA0737E9B02327F52021343727F12021343EE
S1131AB02422B25C520413432522B25C1204134361
S1131AC0F17A19433389FF2B00D181E0802252043B
S1131AD0174319432C23F35C002B03D1624B9B78EF
S1131AE09B0701D580231F432A68D369002BFCD1AF
S1131AF0434659602A68D369002BFCD143461F60D2
S1131B000EAB80221A7000225A70DA709A70336B0E
S1131B100A93736B0B93B36B0C93F36B02930D9358
S1131B2000270AAE63E008230693073B07937CE78C
S1131B3033680593F3689B4673690393337E049378
S1131B402623F35C9A4673689946002B18D08023A9
S1131B505B05994501D0002025E02723F35C002B89
S1131B6000D077E7336A1F00C0B2404B98470100AA
S1131B700E2206AB9C46624438003D4B984712E067
S1131B8008230693002307932723F35C002B0ED02E
S1131B90069B0093079B0E2206A98C466244B16AF9
S1131BA0306A344FB847002800D0E2E652E7336A7F
S1131BB01F00C0B22D4B98470100069B0093079B62
S1131BC00E2206A88446624438002A4FB847EAE742
S1131BD0F37E002B00D17DE78023DB041F4379E7EC
S1131BE02000254B984707E00137042F0DD0F9B2A8
S1131BF0BB0098590028F3D0431CF5D00EA90870F7
S1131C00000CC0B21D4B9847EEE70023EB602B613C
S1131C106B61AB61EB612B62AB626B620022EB85A3
S1131C20AB853033EA540133EA540133EA540133C7
S1131C30EA542868074B984704001149114B984708
S1131C40A400114BE550002093E6102306930023D3
S1131C500793EAE68D14000000040040F526000016
S1131C6069260000C912000000200041112700006D
S1131C70D1100000F910000015130000ED2700003A
S1131C800D1E0000C91400007C220020C2791C2310
S1131C90002A01D118007047C28D92B2173B002A66
S1131CA0F8D10368DA69002AFCD1198502211A7E69
S1131CB00A42FCD00023EDE782791C23002A01D1DB
S1131CC018007047828D92B2173B002AF8D102683F
S1131CD0107E4007F4D5D369002BFCD1538BDBB2C3
S1131CE098061DD0980703D5022353831833E7E7DA
S1131CF0580703D5042353831A33E1E7D80703D5E0
S1131D00012353831233DBE7D80603D5102353830F
S1131D103233D5E79B0603D5202353832133CFE702
S1131D20138D0B800023CBE7F8B506000C001500DB
S1131D3007680A4B9847F38D9BB2002B03D0084BDE
S1131D4098470520F8BDF585054B9847B4620522F0
S1131D503323F254323BBB750020F3E7990D0000A6
S1131D60D90D0000F8B504000D00160007680F4BEC
S1131D709847A38D9BB2002B03D00D4B98470520A9
S1131D80F8BDA6850A4B9847656205223223E254C2
S1131D902E3BBB75237A002B01D02023BB75637ABD
S1131DA00020002BECD00823BB75E9E7990D000057
S1131DB0D90D0000931C9B00C318596030210123E6
S1131DC093401A00435C13434354704710B51723E0
S1131DD0002A01D1180010BDC4790533002CF9D0B4
S1131DE0014B98470300F5E7291D000010B51723A0
S1131DF0002A01D1180010BD84790533002CF9D0D4
S1131E00014B98470300F5E7651D0000F8B5800015
S1131E10624BC5582C68E369002BFCD1237EA67D58
S1131E201E403023EB5C3122AF5C1F40F30722D508
S1131E30EB8D9BB2002B1CD0AA6A1378DBB2511C29
S1131E40A962697901290ED09BB2DB05DB0D2385DC
S1131E50EB8D013B9BB2EB85002B0CD10133237539
S1131E600133A37507E0517809020B430232AA62D9
S1131E70EBE701232375B30706D50223237500225C
S1131E803133EA54FB071AD4730765D5AB8D9BB283
S1131E90002B5FD0638BDBB21A0714D43F221340AC
S1131EA0002B34D09A0711D51A223223EA54303B3E
S1131EB063837B0750D528006B6998474CE0280062
S1131EC0EB689847E0E737221340E9E75A0705D55E
S1131ED01E223223EA542E3B6383EAE7DA0705D550
S1131EE013223223EA54313B6383E2E7DA0605D551
S1131EF042223223EA54223B6383DAE720221A4245
S1131F00D7D021323223EA54123B6383D1E7238DA5
S1131F10DB05DB0DDAB2696A0A706A6A511C696210
S1131F206979012910D0AB8D013B9BB2AB85002BA5
S1131F3012D10433237500222E33EA54BB070BD588
S1131F4028002B69984707E01B0A53706B6A01331A
S1131F506B62E8E704232375F30604D51023237585
S1131F602376FB060ED4B30604D5202323752376EB
S1131F703B070BD4330704D5082323752376BB060C
S1131F8008D4F8BD2800EB699847ECE72800AB6952
S1131F909847EFE72B6A28009847F2E77C22002055
S1131FA010B5082803D880001B4B1B589F460020FF
S1131FB030E01A4B18692DE0194B1B6A9B059B0FE7
S1131FC01848D84026E0154B586923E0134B1B688A
S1131FD000209B071ED512491022CB681A42FCD060
S1131FE00E4B1B685B0701D40F4813E000200F4B16
S1131FF098470A4B9B681B041B0C58430AE0502368
S1132000074AD35C00205B0704D5044BD86801E081
S11320108020000210BDC04658AB000060020020C2
S11320200008004000127A00006CDC021127000056
S113203070B50C490B6A0478857840780122104009
S113204080014026B34303432A40D20180208343C6
S113205013430322224012020348034013430B623A
S113206070BDC04600080040FFFCFFFFF0B5CE463F
S1132070474680B5194B99469B6941788C4605784B
S11320800679C778447980780121084080000422C9
S11320909343034360460840C00004329343034320
S11320A03800084080014027BB4303433000084008
S11320B0C0018026B3430343072005402D0208488E
S11320C003402B4321400903064803400B434A467F
S11320D093610CBC90469946F0BDC0460008004090
S11320E0FFF8FFFFFFEFFFFFF0B5DE4657464E4611
S11320F04546E0B50100264B9B469B8A457800780F
S11321004242424191468878CA7894460A79904678
S11321104E7B0F7B8C7B8A681E494A6101214A46AB
S113212092009146042293434A46134342460A408E
S1132130D2009046082293434246134362460A4023
S1132140120194461022934362461343084040010F
S11321502022934303430F40BF01402083433B436A
S11321600E40F601403083433343793805402D0255
S1132170094803402B4321400903084803400B430B
S11321805A4693823CBC90469946A246AB46F0BD63
S11321900008004060020020FFF8FFFFFFEFFFFF90
S11321A010B5037A9B061B0C42899205920D1343CA
S11321B018494B608379C279134342888488224347
S11321C013434278D20113430B600378042B11D0DC
S11321D0202B0ED1037B9B06028A1343C28912046F
S11321E00D490A4013430B4A936011680B4B0B4390
S11321F0136010BD037B9B06028A1343C289120439
S113220005490A401343034A9360136804210B43AE
S11322101360EEE7600200200000FF0324040000C6
S1132220082803D88000254B1B589F46172044E0FC
S1132230234A136A02210B43136200203DE0204A23
S1132240936902210B439361002036E01C4A138AF0
S113225002210B43138200202FE0194A938A0221A2
S11322600B439382002028E016490B680222134393
S11322700B60134B9A8419000E32CB681A42FCD0BF
S1132280104A91680E4BD96252689A6200229A846D
S113229019001032CB681A42FCD00A4B1B689BB25F
S11322A0074A9384002008E0054944228B5C0220FD
S11322B003438B54002000E0002070477CAB0000F7
S11322C00008004060020020F0B5D6464F4646465E
S11322D0C0B590B0C222D200694B9A60694A536873
S11322E01E218B431A390B435360052201AB1A702C
S11322F00024654DE0B201A9A8470134252CF9D189
S11323000CA800230370802212028260C370012291
S113231002710373837306214170827043735B4BB4
S1132320984705205A4B984755490222CB681A42D0
S1132330FCD053498B8A802213438B82554C2368EB
S1132340DB048A695B0E1B045348024013438B6110
S11323500AA80123437083700371072202700025C9
S11323604571C3704D4B98470420494B984705ABC2
S113237000225D809D809A71DA713F2159813B3939
S113238019705A7023689B0E3F2B00D175E005A885
S11323900372B723DB000382072303733833C3813B
S11323A03F4B984704A800254570057085703D4B48
S11323B098470620364B994698473B4B984701ACC3
S11323C001266660657025726572052323702100FD
S11323D00120364B984698470120354FB847657021
S11323E06572042323701C339A46636026722100AD
S11323F00220C0470220B847666065700623237038
S11324002572657221000320C0470320B847657018
S113241025726572032323705346636021000420F0
S1132420C0470420B847267021000020164B984767
S11324300020204B98470720C8471149D022CB6879
S11324401340D02BFBD11C4A002313725372937296
S1132450D37201A901224A604B700B724B7207338D
S11324600B700020114B98470020114B984710B077
S11324701CBC90469946A246F0BD203B87E7C04667
S11324800008004000400041F5260000E92000005B
S11324902122000024608000FFFF80FF6D200000E7
S11324A0A121000031200000BD240000E12400002F
S11324B0992500006926000000040040064A93693B
S11324C008210B4393610122044B1A7019000B7805
S11324D01342FCD17047C04600040040000C004089
S11324E070B5060004000D782D0205434B78002BCF
S11324F002D08023DB021D434B7A002B02D08023C1
S11325001B031D434868012810D9431E184234D1C7
S1132510022830D90223002201325B009842FBD802
S113252012023243140080235B031D430B7A002BF9
S113253002D080239B031D43134A53785BB2002BC4
S1132540FBDB124B9847124B1E700F4A53785BB259
S1132550002BFBDB0C4B9C601A0053785BB2002B06
S1132560FBDB094A5368802149020B401D43556037
S1132570084B984770BD0022D2E7040234438023FD
S11325809B021D43D2E7C046000C0040990D000099
S1132590080C0040D90D000010B504000B4A537814
S11325A05BB2002BFBDB0A4B98470A4B1C70074AB3
S11325B053785BB2002BFBDB044A516880235B0237
S11325C00B435360044B984710BDC046000C0040B9
S11325D0990D0000040C0040D90D000070B50400F2
S11325E01A4A53785BB2002BFBDB194B9847194B03
S11325F01C70164A53785BB2002BFBDB134E7068D9
S1132600C004C00E144B98470500124B1C7076682A
S1132610F602F60F114B1C700C4A53785BB2002B78
S1132620FBDB0A4B9C682402240C0D4B9847002EBC
S113263007D1012C07D9210028000A4B984705002F
S113264001E00134E540280070BDC046000C0040A4
S1132650990D0000040C0040A11F0000080C00406C
S1132660D90D0000ED7E000010B50400064B98471C
S1132670064B1C70064A53888021C9010B435380C2
S1132680044B984710BDC046990D0000020C004051
S1132690000C0040D90D000010B504000F4B984702
S11326A00F4B1C700F4A53881B05180F53880E4993
S11326B00B40538053880D490B40538011008022F6
S11326C0D2014B881342FCD106494A8803020648CA
S11326D0024013434B80064B984710BD990D0000F0
S11326E0020C0040000C0040FFF0FFFFFFBFFFFFA3
S11326F0D90D000010B50C7824020443024B98470E
S1132700A4B2024B5C8010BD99260000000C00406E
S113271010B50400064B9847064B1C70064B5C88AA
S11327202405240F054B98472000054B984710BDFE
S1132730990D0000020C0040000C0040D90D00006F
S1132740DD25000030B5D378002B35D11378802BEC
S113275029D01B0680246402234354780225AC4309
S113276006D19478002C20D18024A4022343416014
S11327705478013C012C1CD90D042D0CA024E40533
S11327802C431C4384620D0CD02424062C431C438C
S11327908462D478002C22D15B031CD59378012B5E
S11327A01ED0416117E00023D7E7C024E40223438D
S11327B0DDE70D4C2340DFE741600C04240CA0232B
S11327C0DB05234383620C0CD0231B062343836263
S11327D0D378002B03D15378013B012B02D930BDB0
S11327E08161F8E78160FAE7FFFFFBFF10B50A009B
S11327F0C1090023002904D14309DB0105498C46A2
S113280063441F242040012181401800024B984753
S113281010BDC04600440041452700007047000039
S113282010B5054B9847054B9847054B9847054B02
S11328309847054B984710BDC9220000090E0000B7
S11328401D280000B50F00001D280000931C9B00EC
S11328501950022A09D0032A0CD0012393401A00EC
S1132860037E1343037600207047037E1022134334
S11328700376F8E7037E202213430376F3E7000090
S113288070B58000164BC45823689D7B227E637EFE
S113289013401D40EB0706D4AB070BD4EB0610D452
S11328A0AB0615D470BD2000A368984701232268A5
S11328B09373F1E72000E368984702232268937337
S11328C0ECE7200023699847102322689373E7E715
S11328D0200063699847236820229A73E2E7C04680
S11328E09422002010B50020014B984710BDC0462B
S11328F08128000010B50120014B984710BDC04647
S11329008128000010B50220014B984710BDC04635
S11329108128000030B585B001AA0B4B32CB32C2FE
S1132920019B98420DD0029B984208D00023039A41
S1132930824202D0180005B030BD023302E0012308
S113294000E00023DBB2F5E7A0AB0000F0B587B0F0
S113295004000D0016000800854B9847070005ABDE
S11329601B221A7001325A709A7003AB8022120132
S11329701A80802252015A80802292019A80002378
S1132980A360E36023616361237663768200794BFD
S1132990D4502560B378082B06D023712B880520EA
S11329A0DB0705D507B0F0BD1720FA07FAD5F4E721
S11329B0EB7B1730DB06F5D42B889B07F2D4337CF2
S11329C0002B79D1337F002B00D081E06A49086A5B
S11329D07A0003ABD35A03430B62B378082B00D1BC
S11329E086E001A933780B7005ABDF5D3800634BDB
S11329F098473800624B98473189B3880B43B178C4
S1132A00B279114319437378002B02D080231B0140
S1132A1019432268D37B5BB2002BFBDB2980717BDB
S1132A204B1E99418900B37B002B01D0012319432C
S1132A302268D37B5BB2002BFBDBFF232B710029C5
S1132A4005D02268D37B5BB2002BFBDB6971B17AC2
S1132A50F37A002B01D010231943337B002B01D0D0
S1132A60202319432268D37B5BB2002BFBDBA971C3
S1132A702268D37B5BB2002BFBDB2379042B3FD092
S1132A80082B5ED01720002B00D08BE7D37B5BB2E2
S1132A90002BFBDB338D2B822268D37B5BB2002BB4
S1132AA0FBDB738D2B832268D37B5BB2002BFBDBB8
S1132AB0B38D6B83002075E702A901238B7000227C
S1132AC0CA70327E0A704B70307D2E4B984779E77E
S1132AD002A901238B700022CA702432B218127822
S1132AE00A704B701F33F3181878264B98476DE71C
S1132AF0086A7A1C520003ABD35A03430B6270E793
S1132B00D37B5BB2002BFBDB2823F35C2B742268A2
S1132B10D37B5BB2002BFBDB2923F35C2B75226890
S1132B20D37B5BB2002BFBDB2A23F35C2B7622687E
S1132B30D37B5BB2002BFBDB2B23F35C6B76002097
S1132B4030E7D37B5BB2002BFBDBB36A2B612268DB
S1132B50D37B5BB2002BFBDBF36AAB612268D37BD4
S1132B605BB2002BFBDB336BEB6100201AE7C04642
S1132B70152900009422002000040040F5260000DE
S1132B8069260000ED2700000268D37B5BB2002BAE
S1132B90FBDB0379042B05D0082B09D00020002B84
S1132BA003D07047107CC0B2FBE7108A80B2F8E70C
S1132BB01069F6E710B50468E37B5BB2002BFBDB1E
S1132BC00379042B05D0082B14D01720002B08D030
S1132BD010BD17200129FBD8D2B261180A76002053
S1132BE0F6E717200129F3D892B20C3149000A53B1
S1132BF00020EDE717200129EAD8063189000A519F
S1132C000020E5E7FEE70000F8B52A4A2A4B9A427D
S1132C1011D01A00294B9A420DD2294A03339B1A28
S1132C209B0801339B000022234822498C5884507E
S1132C3004329A42FAD1234A234B9A420AD2D3430A
S1132C4021495B1803218B4304339B18002102C2E2
S1132C509342FCD11D4AFF211D4B8B439360FD39E8
S1132C6090235B001B4AD1501B4AD3780325AB4306
S1132C7002242343D370D3780C27BB430826334361
S1132C80D370164B987B30229043202210439873C4
S1132C90997BB943314399739A7BAA4322439A732C
S1132CA00F4A536880210B4353600E4B98470E4BD9
S1132CB09847FEE720B0000000000020DC0100205F
S1132CC004000020DC010020B423002000ED00E01B
S1132CD00000000000700041005000410048004125
S1132CE000400041C9530000B9520000F0B5C64687
S1132CF000B50C00904600280FD1002A11DD8F1872
S1132D00094E0A4D306821002B6898470134BC42B3
S1132D10F8D1404604BC9046F0BD01235B4298467E
S1132D20F7E78046F5E7C046A8220020A02200204D
S1132D30F0B5C64600B50E0015000138022810D8BB
S1132D40002A11D000240C4B98460C4F43461868B7
S1132D50315D3B689847002808DB0134A542F5D172
S1132D6006E00124644203E0140001E0012464420B
S1132D70200004BC9046F0BDA8220020A42200201C
S1132D800300064A1268002A04D0044A1068C318D3
S1132D90136070470249014A1160F6E77802002087
S1132DA0B843002001204042704780239B014B60C0
S1132DB000207047012070470020704710B50D4A6D
S1132DC0002313715371138058215352130040325E
S1132DD00021996004339342FBD1074B9847074B7A
S1132DE09847074B9847074B9847074B9847074B1B
S1132DF0984710BDAC220020B13C0000093500000A
S1132E0021300000A92E0000193100009139000082
S1132E1010B5024B1880024B984710BDAC2200201D
S1132E20D140000010B5024B5880024B984710BDAA
S1132E30AC220020B140000002308000014BC150A0
S1132E407047C046AC22002010B5044B9847044B91
S1132E509847044B9847044B984710BDA935000088
S1132E60AD3E0000E92E0000713A000010B50C4B95
S1132E701B68002B10D05A68904205D01B68002BA9
S1132E800AD05A688242F9D18522825C1A77882254
S1132E90825C5A7702221A72024B984710BDC046D0
S1132EA07C020020A93000000022014B1A60704708
S1132EB07C020020002303720377436008495822F0
S1132EC08B5A01338B52074B1B68002B03D00360D2
S1132ED0044B186070470360024B1860FAE7C04661
S1132EE0AC2200207C02002070B5474B1A68002AEF
S1132EF000D188E01400237A002B05D0022B6ED079
S1132F002468002CF7D17EE0404B9847051E62D020
S1132F106060012020723E4B8922AB54190A2A00BA
S1132F2089325170190C91701B0ED370A27B9208D8
S1132F3001231A4088216A54A17B1940EA7A82430A
S1132F400A43EA72A27BD2081A409200E97A03305B
S1132F5081430A43EA72A27B520813405B00EA7A77
S1132F6002218A431343EB722A4A13790133DBB2F9
S1132F7013712B7313786B735378AB736389A27AD1
S1132F80EA731B0A2B74617B0F2319406A7C0B3094
S1132F9082430A436A74227B1201697C0B40134307
S1132FA06B748123E85C0133EB5C1B0203438322D3
S1132FB0A85C000403430132A85C00061843227D88
S1132FC02169154B98476B78227D9B186B702800FC
S1132FD0124B984717E002232372237713E0A2428F
S1132FE004D1094B22681A6005E01A0013689C4258
S1132FF0FBD123681360074958228B5A013B8B523B
S1133000A3692000984770BD7C0200203530000081
S11330106D2E0000AC22002011540000E53C00009D
S1133020034B00221A708D215A548D315A54704723
S11330308002002070B5194B1B78002B10D08D2313
S1133040164AD35C002B09D08D235B00D35C00248B
S1133050002B01D0200070BD023302E0012300E008
S113306000238D265E430D4DAC198D2200212000D6
S11330700B4B98471023637033001233EB18220074
S113308081321370190A5170190C91701B0ED37090
S1133090044958228B5A01338B52DBE7800200200B
S11330A023540000AC22002000230370024958225C
S11330B08B5A013B8B527047AC220020002812D05F
S11330C08D300C4BA833FF33984210D20378002B79
S11330D00CD1084AA832FF328D30904205D20378D1
S11330E0002BF9D002E00348F0E7002070470020ED
S11330F0FCE7C0468002002000228523C254054A12
S113310013790133DBB21371037313784373537868
S113311083737047AC220020F0B5094B02330022C0
S113312001277F42064C012600251F80D000015D47
S1133130B14301551D7101320833642AF5D1F0BD44
S11331402804002030B50C4A023200230A4D03E063
S113315001330832642B0CD014888442F8D1DC008B
S1133160645DA407E40F8C42F2D1DB000248C0186E
S113317030BD0020FCE7C0462804002030B5002202
S1133180134801240300C825AD00AC46634419006C
S113319003E00200083088420CD003781C42F9D1C5
S11331A08379002B07D0002AF3D095799D42F1D979
S11331B00200EFE710000378022293431A000F2362
S11331C013403022134303708023837130BDC04603
S11331D0280400200378DB0704D401235B424380E6
S11331E0002383717047000010B5044B98470028F2
S11331F001D0808810BD0248FCE7C046453100007C
S1133200FFFF000010B5034B9847002801D0024B84
S1133210984710BD45310000D531000070B5050058
S1133220427A847A2402144323B2002B29DB69797D
S1133230AB791B020B43214A934221D06A7BA87BC2
S11332400002104300211E4B9847002829D0E97939
S11332502B7A1B020B43194A934219D08388A34249
S11332600BD0C2798523EB5C9A4206D28480027823
S11332700F2313403022134303708523EB5CC37187
S113328070BD417B837B1B020B439C42F8D1CEE78C
S1133290E97B2B7C1B020B4A12880B439A42DDD13B
S11332A0E4E7094B9847697BAB7B1B020B434380E4
S11332B0697AAB7A1B020B438380DEE7FFFF0000D1
S11332C045310000AC2200207D31000010B504001F
S11332D0C37B007C000218431C4B984219D0E17A4E
S11332E00907C90F1A4B9847002812D00378DB0747
S11332F00FD48523E35C002B19D102780F331340DC
S113330030221343037083790133DBB28371FF2BC3
S113331000D010BD0F498A1D0F4B9C4661441378A1
S11333205B080133137008328A42F8D1F1E701785F
S11333300B090F330F2213401C010A402243027071
S1133340002BE6D1054B9847E3E7C046FFFF00009A
S1133350453100002804002026030000D531000078
S113336010B50400C27B007C000210430B4B984252
S11333700BD0E37A5B070DD4E17A0907C90F084B38
S11333809847E071000A207210BD01235B42E3718B
S11333902372F9E7E071000A2072F5E7FFFF0000ED
S11333A0E9310000F0B5C64600B50700C27B047CD5
S11333B024021443C57A2D07ED0FE9B22000274BF0
S11333C09847274B984210D000228923FA543B0097
S11333D089335A709A70DA7002328823FA543800AA
S11333E0204B984704BC9046F0BD7A7BBB7B1B0204
S11333F0134398461C4B9847061E2BD01B4B9847EB
S113340073780633737000228923F25433008933AE
S11334105A709A70DA70FF2043461840F0731A0A03
S113342032748123F35C8221715C09021943832382
S1133430F35C1B0419438423F35C1B060B43012137
S1133440197058709A70DC70240A1C715D71300018
S1133450044B98473800064B9847C3E7E93100000E
S1133460FFFF0000E53C000035300000F9300000AB
S1133470A930000010B5027B0023062A01D01800F1
S113348010BD83685979DA78187900021043024B29
S113349098470123F3E7C0460532000010B5027BCC
S11334A00023002A0AD083681B78002B03D0012B49
S11334B006D0002302E0044B98470300180010BD17
S11334C0024B98470300F9E7293E000075340000D9
S11334D070B50B490B1D40310024012502E0063371
S11334E08B4206D01A78002AF9D0013A1A702C00BF
S11334F0F5E7002C00D170BD024B9847FBE7C046AE
S11335004C0700206543000010B50A4A131D4032E1
S11335100021197006339342FBD1074B64229A6051
S113352000221A73054A1A6105490020054B984781
S113353010BDC0464C07002088070020D13400008D
S11335409D340000392E000010B5040003685A7839
S1133550882A00D010BD1B78683A9343412BF9D1D7
S113356003790F2BF6D90A4B98470028F2D0202371
S113357003702379437062798523C2540622A256CC
S11335800133C254023022792168024B9847E1E7A3
S11335903530000011540000002902D124230370A7
S11335A0704722230370FBE7F0B5CE46474680B54B
S11335B087B00024D54DD64EDFE024232370E27A71
S11335C0130700D5D9E06079A3791B020343D149DD
S11335D08B4218D0E07B237C1B020343CD498B42F2
S11335E025D0617BA37B1B02CB4A12880B439A42F2
S11335F000D1C2E02000C94B9847C94900200023EC
S11336009C46A71C39E0E07B237C1B020343C24990
S11336100988994203D0BF498B4200D0ADE093079B
S113362002D521232370A8E022232370A5E0D30729
S1133630D7D5A2E0019A500082185200B8488018E9
S113364001229A401143C17060E0B54A9446019A40
S11336505700B918490061448870C8785B42DBB2EE
S11336609840030001200343CB701F230B714DE0EE
S11336708C46013006310A2836D001900B79002B94
S1133680F6D0FB7A99463B7B1B020A8890464A4651
S113369013439845EDD1207B019F7B00BC466344D6
S11336A05B009F49CB189B781B1ADBB2072BCCD845
S11336B07900614449009A484118C97808001841C2
S11336C0C207B7D5E179237A1B02934A12880B43C8
S11336D09A4252D1E17A0907C90FE27B207C0002A9
S11336E01043904B984748E06346002B45D0617BDC
S11336F0A37B1B020B4361460B80237B8B7001234E
S1133700CB701E330B718848884B9847E179237A34
S11337101B020B437F4A934213D07F4B1A88E07BF2
S1133720237C1B0203439A421AD07A498B4217D056
S1133730E079237A1B02034393421ED1232323708F
S11337401BE0754B1A88E07B237C1B0203439A42DF
S113375006D0E17A4907E8D42000754B9847DCE7A6
S1133760E37A9B0702D52123237006E022232370EA
S113377003E0002120006F4B98472000A847041E57
S113378000D1F9E02378203BDAB2042AF5D893007B
S1133790F3589F460022684B1A70637C1B099C46B1
S11337A06A461371137902339B005B4A99580029C6
S11337B000D1CBE0A01C627BA37B1B021343994680
S11337C002AB4A461A80E27B277C3F0217435F80A4
S11337D0627C1207120F1A7162465A718122A35C2D
S11337E00132A25C120213438322A25C120413432B
S11337F08422A25C12061A430492121A63789A1A5B
S113380002AB1A738522A25C5A738622A25C9A7355
S1133810E07A032202404307DB0F5B011A430007EF
S1133820C00F80011043454B9C4667447A42574180
S1133830BF003843A71C637AA27A12021A434B468C
S11338409B1A5A425341DB0003433800FF78027944
S113385012023A43394884466244504242411201BA
S11338601A4302AB9A7118008847E27AD307DB1730
S11338701840E179237A1B020B4326498B4267D017
S11338806279A3791B021343224A93423BD0224B11
S11338901A88204B9A4236D0002834D0284B9847B7
S11338A0071E30D0274B98477B7803337B70002268
S11338B08923FA543B0089335A709A70DA70E37A98
S11338C002321A40FB7A02218B431343FB72627B60
S11338D0A37BFA733B748123FB5C8222BA5C1202E1
S11338E01A438323FB5C1B041A438423FB5C1B06DF
S11338F0134300221A70104A12789A70227B5A706D
S11339003800114B98472423237036E7BD3000005C
S1133910ACAB0000FFFF0000AC2200201D32000011
S11339204C07002005320000880700206543000092
S1133930A13D0000A5390000480700200100FFFF59
S113394035300000F9300000E53C000000208CE731
S1133950E77B237C1B020B4909883B4399428FD1A7
S113396013078DD401208BE72000074B984704E709
S11339702000064B984700E707B00CBC90469946D8
S1133980F0BDC046AC220020A5330000A9300000E1
S11339900023024A1370024A13607047A0070020F4
S11339A09C070020002906D131230370034A1378B1
S11339B001331370704730230370F7E7A00700202A
S11339C0F0B5C64600B5254B1B689C46812362466C
S11339D0D15C0133D35C1B0219438323D35C1B04E6
S11339E00B4384226146895C090619431C4B1B78EE
S11339F098461C4B1E78371C102E00D91027FFB296
S1133A00002F17D0184B1D784144184A7C1EE4B28D
S1133A100134141906E01078434013700131013267
S1133A20A24207D00B78107843400B70002DF2D0DF
S1133A301370F3E74346DB19094A1370F61BF6B219
S1133A40084B1E70002E05D134236246137004BC4B
S1133A509046F0BD322362461370F8E79C070020BD
S1133A60A2070020A3070020A1070020A40700202C
S1133A7070B582B0554B1B78002B08D0544B1C6892
S1133A80002C57D02378342B03D0322B47D002B0EC
S1133A9070BD4D33E05C0133E35C1B0203438322BE
S1133AA0A05C000403430132A05C00061843494BA8
S1133AB01B78C018484B1D685A6855409A68554091
S1133AC0DB685D400095454B1E78002E19D1042219
S1133AD0010001A8424B9847019B5D1B6E426E4159
S1133AE0F6B23E4B1B78002B13D0394B18683D4B74
S1133AF098470022364B1A60344A1378013B1370FE
S1133B00C5E704226946364B9847637804336370EB
S1133B10E7E72F4B18683100334B9847E9E7013347
S1133B20237032492C48324B9847B0E76378043B02
S1133B3063702BE02F4D2000A847041EA7D02378E4
S1133B40303B012BF7D8224B1C602349237B0B60AD
S1133B50E07B237C1B0203431B04607C00090343BA
S1133B604B60607BA37B1B0203431B04607C000748
S1133B70000F03438B606079A3791B0203431B048A
S1133B80E27A1343CB6020783128CFD08123E15CE3
S1133B900133E25C120211430133E25C120411436B
S1133BA00133E35C1B060B43A21C9B1A6278D31AF5
S1133BB0114A13700022074B1A700300303B59421C
S1133BC05941064A11703223237060E7A007002090
S1133BD09C070020A2070020A4070020A1070020C2
S1133BE011540000693E000099350000F4220020C1
S1133BF071420000BD300000A3070020F0B583B07F
S1133C00019000240020114D86268727A84700280C
S1133C1013D00378112BF9D1825DC35D1B021343CA
S1133C20013B9BB28355190A02008632517001246C
S1133C30002BEBD113330370E8E7002C01D103B060
S1133C40F0BD0198024B9847F9E7C046BD3000002B
S1133C5065430000F0B583B0019000240020124DAC
S1133C6086268727A847002816D00378162BF9D173
S1133C70825DC35D1B021343013B9BB28355190A4A
S1133C800200863251700124002BEBD117330370EC
S1133C9010226E33C254E5E7002C01D103B0F0BD0D
S1133CA00198024B9847F9E7BD30000065430000D6
S1133CB00022074B1A60074B322199601A73064998
S1133CC01961064B0A2199601A73054A1A617047F3
S1133CD0DC070020B4070020553C0000C807002082
S1133CE0FD3B000010B504008823C35C9A072DD562
S1133CF01222027000218522A154DA072FD5012255
S1133D0052426271A27105221A422ED0E27B237CB8
S1133D10E27123721E490B7863724B78A3724B795C
S1133D200133DBB24B712371E179237A1B020B431C
S1133D30184A93421DD06123A370D93BE37000223B
S1133D40FE33E25486340023637010BDC27A9207B6
S1133D5002D510220270CDE712220270CAE70C4A83
S1133D6091786171D278A271CDE720000A4B98470F
S1133D70D0E74123A370B93BE370084B984707236E
S1133D80184001307F33E054863400236370DCE74D
S1133D90AC220020FFFF000061330000455E0000FC
S1133DA070B505001C4B9847041E33D012230370D2
S1133DB06B78437000228523C254184B984707231D
S1133DC0184001307F33E054000C230086335870D0
S1133DD000228923E254230089335A709A70DA70DE
S1133DE0A01C6A78A91C0E4B98474123A370B93BC9
S1133DF0E3707733E37123726A79AB796271A371EB
S1133E00084A137863725378A37253790133DBB28F
S1133E105371237170BDC04635300000455E00000B
S1133E2011540000AC22002070B5027B0023032A49
S1133E3001D0180070BD856800200A4CA0470028F6
S1133E400DD00378162BF9D1027B6B789A42F5D109
S1133E5017230370AA787133C254873BE9E7002320
S1133E60E7E7C046BD30000012230370704700002E
S1133E700C4B1B68012805D0002804D002280FD061
S1133E80012000E0202085229854703A1A70002204
S1133E90044B1A60044958328B5A013B8B527047C9
S1133EA02120F0E7DC070020AC22002070B50024BC
S1133EB0374D384E03E001212000374B984720004E
S1133EC0A847041E63D02378103BDAB2072AF6D839
S1133ED09300F3589F468623E25C0133E35C1B02A4
S1133EE0134302D113232370E9E7112323702B48D2
S1133EF02B4B9847E3E72B4B1B68002BDFD1294B57
S1133F001C6014232370601C274B984727495822B0
S1133F108B5A01338B52D2E78523E35C002B1AD1F1
S1133F20617BA37B1B02214A12880B439A4202D075
S1133F3017232370C3E7E37ADB07F9D5162323702D
S1133F4015227033E2540022230086335A70184835
S1133F50134B9847B3E717232370B0E72000154BA2
S1133F6098478923E35C8A22A25C12021A438B23BA
S1133F70E35C1B041A438C23E35C1B06134302D04B
S1133F80200098479BE720000B4B984797E770BDAC
S1133F90BD300000C0AB0000A5390000C8070020F8
S1133FA065430000DC070020FD400000AC22002037
S1133FB0B4070020CD320000A9300000F8B5040099
S1133FC00B4F0C4E1F2503210220B8470120B04798
S1133FD028400828F7D1064F064E1F25210002204D
S1133FE0B8470120B04728408442F7D1F8BDC04605
S1133FF0B9490000BD48000010B50820064B984799
S11340000F20064B9847064B1B78002B00D110BDA0
S11340101620014B9847FAE7BD3F0000BD48000059
S11340206008002070B50E4B98470E4B984700224D
S11340300D4B1A7001320D4B1A700D4E0D4D1F248D
S113404008210220B0470120A84720400828F7D1C2
S11340502E210438064CA047A0210C20A04770BD97
S1134060714700008D4800006008002061080020AE
S1134070B9490000BD48000010B5024B1870024B4E
S1134080984710BD60080020F93F000010B50400F7
S11340900820054B98471F23010099432143C9B2C7
S11340A00820024B984710BDBD480000B9490000E4
S11340B030B583B06B469D1DD880C1B22220034C1D
S11340C0A04769782320A04703B030BDB949000058
S11340D070B582B06B469E1DD880C4B221002020EA
S11340E0054DA847767831002120A847A419E1B2EC
S11340F02D20A84702B070BDB949000010B50400D6
S113410019200C4B98470F200B4B984721788B1C98
S113411023700131C9B22000084B98470322084B91
S11341201A70084B802252039A61C046C0465A61F5
S113413010BDC046BD3F0000BD480000E94B000073
S1134140610800200044004110B50400080000226A
S11341500021054B984700212000044B984720007C
S1134160034B984710BDC046094600009D4500001A
S113417041470000F0B585B0264B1B78022B0AD0CE
S11341800F20254B9847030705D5224B1B78012B9D
S113419003D0032B26D005B0F0BD07201E4B984753
S11341A006006B46DD1D012128001C4FB847297805
S11341B00231C9B21A4C2000B84702A8631C02930A
S11341C02B789A1E0271E418637843715B3E867102
S11341D0144B9847104D1F240120A847204016284F
S11341E0FAD1D8E702200C4B98474009C4B2002CFE
S11341F005D0032C0CD0053C631E9C4102340A4BB1
S113420098470122034B1A702000084B9847C2E7D5
S11342100124F4E761080020BD480000B94A000009
S1134220E007002049350000F93F0000713E00001E
S113423010B5044B9847044B9847044B9847044BDC
S1134240984710BDFD42000099450000254000003C
S1134250BD2D000010B5034B9847034B9847034B03
S1134260984710BD75410000492E000085430000A9
S113427010B5024B9847024B984710BD49410000C6
S1134280C139000030B5144B1D68002D1CD0826864
S113429069688A4209D32C00521A2368002B08D07B
S11342A05968914203D81C00F6E72B000024891AB0
S11342B059604260002C03D023680360206030BD45
S11342C00560054B1860FAE70023036083684360C8
S11342D0014B1860F3E7C0466408002010B5044A97
S11342E013780133DBB213700248034B984710BDB7
S11342F00823002010270000CD52000010B5002430
S1134300064B1C700648074B9847074B98470748CD
S1134310074B9847074B1C6010BDC046082300207C
S1134320DD420000BD530000395300001027000097
S1134330CD52000064080020094B1B68002B0AD0F2
S113434083420AD01B68002B03D09842FAD1012083
S113435000E0002070470020FCE70120FAE7C04697
S11343606408002010B50400044B9847002800D0CE
S113437010BD2000024B9847FAE7C04639430000BD
S113438085420000F0B583B01D4B1B78002B35D05F
S1134390EFF3108253425341019372B6BFF35F8F20
S11343A00021184B19700198154A1378DBB211706B
S11343B0002805D00131134A1170BFF35F8F62B634
S11343C09D00ED186D00104E370005E020000F4BE6
S11343D098470DE0200098473468002C0ED063689D
S11343E09D4209D3ED1A23683B60237B012BEDD05A
S11343F02369002BEED1EFE75D1B656003B0F0BDD0
S113440008230020080000206408002085420000E2
S113441010B5014B984710BDA153000010B5014BD6
S1134420984710BD5953000010B50248024B9847F5
S113443080B210BD40230020892B0000034B1021C3
S11344401A6811735A7E8A435A76704740230020B3
S113445010B50A4C20680A4B98470A4B1B5C1F2274
S11344601A4001239340084A1360637E10221343C9
S11344706376236810225A7310BDC046402300207F
S113448015290000E0AB000000E100E010B50200D7
S113449000210248024B984710BDC046402300202B
S11344A0B52B0000F8B5CE46474680B52D4A00230B
S11344B013709370002193809171138151709172E4
S11344C0D1721173917351731174536193611177A4
S11344D01362536213859385013B5385224C234910
S11344E02000234B9847002222492000224DA84750
S11344F0022222492000A8472068214B9946984768
S1134500204B98461B5C1F26334001252A009A4005
S11345101D4F3A60637E01221343637623685D7303
S11345201800C84743461B5C1E40B5403D60637E8F
S1134530102213436376226810235373D37B5BB238
S1134540002BFBDB138802210B43138000200F4B4D
S113455098470F490F4B9847C0B20CBC90469946F8
S1134560F8BDC0460C23002040230020002C00424C
S11345704D2900001D4400004D2800001144000096
S113458015290000E0AB000000E100E0DD2500009B
S113459040420F00ED7E00007047000070B503003C
S11345A00D00144C601C10221900134B9847647CB6
S11345B0124B1B78002B15D012220E498320104B6E
S11345C0984700220D4B1A70002D05D0102209497E
S11345D001312800084B9847064B5C741820094B9E
S11345E0984770BD1122034901318420044B984738
S11345F0EAE7C04668080020115400009C08002027
S1134600F94F00006D0D0000F0B5C64600B584B04A
S113461005000E001400002817D000223E4B1A702B
S113462002323E4B1A700E3201003D483D4B984613
S113463098473D4F10233B70781C10222900C04737
S1134640112239008320394B9847002C03D0012CC8
S11346502FD000201BE0314B1B78012B1BD02F4B9C
S11346601C70002E02D00020022E10D136017023BF
S11346701E40E400683B1C4034432B4B1C708026D6
S1134680764234435C740122294B1A70012004B031
S113469004BC9046F0BD244D0F332B70681C1022CF
S11346A01F49204B98471122290083201F4B98470C
S11346B0D5E71A4B1B78012BD1D010221A4B1A7054
S11346C0154B1B78002B0ED0174D681C102219496E
S11346D0144B9847112229008320144B98470E4B02
S11346E001221A70BBE7104D2B7080336B740F3AA4
S11346F00F4B1A70002168460F4B984710232B70FC
S1134700012229008320094B98471022094984205B
S11347100A4B9847D8E7C0467A08002009000020D1
S11347208C0800201154000068080020054D00008A
S11347309C0800207C0800209D450000714E00006C
S113474010B5010010228420014B984710BDC046CB
S1134750714E000010B50122034B1A61034B1B6814
S1134760002B00D0984710BD00180040A00800207E
S113477030B585B0344A0023537093703F211170D3
S1134780324C21706370A370012269464A708B70A9
S11347900A703F202E4B98472278D1090023002924
S11347A004D15309DB012B498C4663441F2111407A
S11347B00122100088409861274C22700023636016
S11347C0A36023746374A274E27423752332A35424
S11347D020001830183A0021204B984780235B02B0
S11347E0E3601F4BA3611F4BA36201235B42E3629F
S11347F01D4B23631D4B63631D4D22001D4928007F
S11348001D4B98472A68D369002BFCD113680225F5
S11348102B43136001AC2000184B984720230193CD
S113482080239B0363602572012363720022A272BA
S1134830E37221000020124B984700220021114806
S1134840114B984705B030BD60230020642300203D
S1134850AD100000004400416823002023540000F0
S1134860404B4C000500530005003E00050052007B
S1134870A02300200018004295150000211000001C
S11348803510000055470000DD0E000070B5084CDF
S113489080252D02A56180225203064B5A61A52072
S11348A04000054EB04765610A20B047A56170BD60
S11348B080440041004400416D0D000070B582B099
S11348C00500EFF310835A425341019372B6BFF3CC
S11348D05F8F0022334B1A70019C334E01323349EF
S11348E03000334B9847336801211A7E0A42FCD0CA
S11348F01A7ED20702D5802215439D6202211A7EB8
S11349000A42FCD004211A7E0A42FCD01A7E5207C5
S11349100CD55A8B520701D504225A83224A927924
S1134920012A34D09A6AD2B222490A8001211A7E1D
S11349300A42FCD01A7ED20701D500229A620221D3
S11349401A7E0A42FCD004211A7E0A42FCD01A7E46
S1134950002552070AD55A8B520701D504225A83DF
S1134960114A9279012A18D09D6AEDB200220F49AA
S11349700D480F4B9847FF23234205D00122094BD2
S11349801A70BFF35F8F62B6E8B202B070BD9A6A64
S1134990D205D20D07490A80C8E79D6AED05ED0DE1
S11349A0E4E7C04608000020A02300206423002080
S11349B0591800005C230020F0B583B006000C00F9
S11349C0EFF310835A425341019372B6BFF35F8FE2
S11349D00022344B1A70019D334F013233493800A1
S11349E0334B98473B6801211A7E0A42FCD01A7E59
S11349F0D20702D5C02216439E6202211A7E0A42C1
S1134A00FCD004211A7E0A42FCD01A7E52070CD52F
S1134A105A8B520701D504225A83234A9279012AD8
S1134A2033D09A6AD2B223490A8001211A7E0A42FB
S1134A30FCD01A7ED20700D59C6202211A7E0A425B
S1134A40FCD004211A7E0A42FCD01A7E52070CD5EF
S1134A505A8B520701D504225A83134A9279012AA8
S1134A6019D09B6ADBB2134A138000220F490E4807
S1134A700F4B9847FF232B4205D00122094B1A7094
S1134A80BFF35F8F62B603B0F0BD9A6AD205D20D50
S1134A9008490A80C9E79B6ADB05DB0D054A1380D8
S1134AA0E3E7C04608000020A02300206423002080
S1134AB0591800005C230020F0B5D6464F46464600
S1134AC0C0B582B005000C00EFF310835A42534185
S1134AD0019372B6BFF35F8F00223E4B1A70019BA5
S1134AE098463D4F01323D4938003D4B98473B685D
S1134AF001211A7E0A42FCD01A7ED20701D5202257
S1134B009A6202211A7E0A42FCD004211A7E0A42C9
S1134B10FCD01A7E52070CD55A8B520701D50422B9
S1134B205A832D4A9279012A13D09B6ADBB22D4A0B
S1134B301380631EDBB2002C36D001339C46AC4498
S1134B402027254E012000239A4602240421B14641
S1134B500FE09B6ADB05DB0D224A1380E9E74A4636
S1134B609279012A1CD09F6AFFB22F7001356545E6
S1134B701AD033681A7E0242FCD01A7E024201D057
S1134B8052469A621A7E2242FCD01A7E0A42FCD015
S1134B901A7E0A42E9D05A8B0A42E0D05983DEE7F2
S1134BA09F6AFF05FF0DE0E700220C490A480C4B01
S1134BB09847FF234246134205D00122054B1A7041
S1134BC0BFF35F8F62B602B01CBC90469946A24602
S1134BD0F0BDC04608000020A0230020642300206C
S1134BE0591800005C230020F0B5C64600B582B019
S1134BF004000D00EFF310835A425341019372B63F
S1134C00BFF35F8F00223A4B1A70019B9846394FCD
S1134C10013239493800394B98473B6801211A7EE3
S1134C200A42FCD01A7ED20701D560229A62022180
S1134C301A7E0A42FCD004211A7E0A42FCD01A7E53
S1134C4052070CD55A8B520701D504225A83294A9C
S1134C509279012A0BD09A6AD2B229490A80254A4C
S1134C609279944621000127022004240DE09A6AD7
S1134C70D205D20D22490A80F1E76246012A1ED0EC
S1134C809A6AD2B21E4E32800131013DEDB2FF2D3F
S1134C901BD01A7E3A42FCD01A7E3A4201D00A78DE
S1134CA09A621A7E0242FCD01A7E2242FCD01A7EFC
S1134CB02242E9D05A8B2242DFD05C83DDE79A6A34
S1134CC0D205D20D0E4E3280DEE700220A49094891
S1134CD00A4B9847FF234246134205D00122044B56
S1134CE01A70BFF35F8F62B602B004BC9046F0BD89
S1134CF008000020A023002064230020591800008D
S1134D005C230020F0B5C64600B582B006000D0055
S1134D101400EFF310835A425341019372B6BFF368
S1134D205F8F00224D4B1A70019B98464C4F013205
S1134D304C4938004C4B98473B6801211A7E0A4283
S1134D40FCD01A7ED20701D540229A6202211A7E33
S1134D500A42FCD004211A7E0A42FCD01A7E520771
S1134D600CD55A8B520701D504225A833C4A9279B6
S1134D70012A2BD09A6AD2B23C490A8001211A7EB8
S1134D800A42FCD01A7ED20700D59E6202211A7E06
S1134D900A42FCD004211A7E0A42FCD01A7E520731
S1134DA00CD55A8B520701D504225A832C4A927986
S1134DB0012A11D09A6AD2B22C490A80284A9279DF
S1134DC09446280001260225042113E09A6AD2059C
S1134DD0D20D26490A80D1E79A6AD205D20D234919
S1134DE00A80EBE76246012A1ED09A6AD2B21F4FAC
S1134DF03A800130013CE4B2FF2C1BD01A7E3242CF
S1134E00FCD01A7E324201D002789A621A7E2A427B
S1134E10FCD01A7E0A42FCD01A7E0A42E9D05A8B90
S1134E200A42DFD05983DDE79A6AD205D20D0F4FCB
S1134E303A80DEE700220B4909480B4B9847FF23D1
S1134E404246134205D00122044B1A70BFF35F8F10
S1134E5062B602B004BC9046F0BDC0460800002013
S1134E60A023002064230020591800005C230020A4
S1134E70F0B5D6464F464646C0B582B004000D0094
S1134E8017000120564B9847EFF310835A425341C1
S1134E90019372B6BFF35F8F0022524B1A70019BCD
S1134EA09846514E013251493000514B984733686E
S1134EB001211A7E0A42FCD01A7ED20701D50022B3
S1134EC09A6202211A7E0A42FCD004211A7E0A4206
S1134ED0FCD01A7E52070CD55A8B520701D50422F6
S1134EE05A83414A9279012A33D09A6AD2B241490B
S1134EF00A8001211A7E0A42FCD01A7ED20700D50C
S1134F009C6202211A7E0A42FCD004211A7E0A42C3
S1134F10FCD01A7E52070CD55A8B520701D50422B5
S1134F205A83314A9279012A19D09B6ADBB2314AF9
S1134F3013807B1EDBB2002F3CD001339C46AC4473
S1134F400027294E012000239A4602240421B14659
S1134F5015E09A6AD205D20D26490A80C9E79B6AF0
S1134F60DB05DB0D234A1380E3E74A469279012AE5
S1134F701CD09F6AFFB22F70013565451AD0336883
S1134F801A7E0242FCD01A7E024201D052469A6234
S1134F901A7E2242FCD01A7E0A42FCD01A7E0A42B1
S1134FA0E9D05A8B0A42E0D05983DEE79F6AFF05B5
S1134FB0FF0DE0E700220D490B480D4B9847FF23F6
S1134FC04246134205D00122064B1A70BFF35F8F8D
S1134FD062B602B01CBC90469946A246F0BDC046DB
S1134FE06D0D000008000020A02300206423002091
S1134FF0591800005C230020F0B5D6464F464646BB
S1135000C0B506008A4614000120764B984700215B
S11350100020754B9847754F012275493800754B30
S113502098473B6801211A7E0A42FCD01A7ED207B7
S113503001D540229A6202211A7E0A42FCD0042140
S11350401A7E0A42FCD01A7E52070CD55A8B52079C
S113505001D504225A83654A9279012A55D09A6A65
S1135060D2B265490A8001211A7E0A42FCD01A7E16
S1135070D20700D59E6202211A7E0A42FCD0042186
S11350801A7E0A42FCD01A7E52070CD55A8B52075C
S113509001D504225A83554A9279012A3BD09A6A4F
S11350A0D2B255490A8001211A7E0A42FCD01A7EE6
S11350B0D20702D5524612789A6202211A7E0A4217
S11350C0FCD004211A7E0A42FCD01A7E52070CD569
S11350D05A8B520701D504225A83444A9279012AF1
S11350E01FD09B6ADBB2444A13800027002C43D0B4
S11350F05646013CE4B20134A244D04600273B4D5D
S1135100012002240421A9461BE09A6AD205D20D8B
S113511039490A80A7E79A6AD205D20D36490A802E
S1135120C1E79B6ADB05DB0D334A1380DDE74A46A2
S11351309279012A1CD09F6AFFB237700136B045BC
S11351401AD02B681A7E0242FCD01A7E024201D089
S113515072789A621A7E2242FCD01A7E0A42FCD0ED
S11351601A7E0A42E9D05A8B0A42E0D05983DEE71C
S11351709F6AFF05FF0DE0E71C4B1B6801211A7EA7
S11351800A42FCD01A7ED20701D500229A6202217B
S11351901A7E0A42FCD004211A7E0A42FCD01A7EEE
S11351A052070AD55A8B520701D504225A830F4A53
S11351B09279012A11D09F6AFFB253461F700022D0
S11351C00B490A480B4B9847002100200B4B98478A
S11351D01CBC90469946A246F0BD9F6AFF05FF0D90
S11351E0EBE7C0466D0D0000290F0000A02300204E
S11351F064230020591800005C230020090F0000DC
S1135200F8B51C4B98471C4B98471C4B98471C4BB4
S113521098471C4B98471C4B98471C4B98471C4E6F
S113522001273770BFF35F8F62B61A4C0F221C211F
S11352302000194DA847200010380F220D21A8473F
S1135240200008380F221721A847144B98474C3CDC
S11352502000134B98473770BFF35F8F62B6052267
S113526010492000104B9847104B98471048114B99
S11352709847F8BD212800002D0D000031420000A0
S1135280210A0000F10B0000DD0C000015010000F4
S11352900800002088090020E1060000F106000053
S11352A0B50A000000220020ED1D00005D0600008C
S11352B0E4AB0000315E000010B5024B9847024C8D
S11352C0A047FDE7015200005542000010B5041C40
S11352D0134B9847134B1A7862438118124B596049
S11352E05968090C59605B68002B07D00E4B59684C
S11352F00132801818810D4B984704E082180A4B3C
S11353001A810B4B9847084B1B89632B02D86433D3
S1135310054A1381044B1889064B984710BDC046B3
S113532029440000AC230020A40800203D440000D0
S1135330514400008D44000008B50022034B1A704C
S1135340034B9847034B187008BDC046A4080020BF
S1135350A5440000AC23002008B50E4B5B68002B6D
S113536007D00C4A5368013B5360002B01D10A4B10
S11353709847084A13780133DBB21370074A12784E
S11353809A4206D8034B00221A70DB68002B00D027
S1135390984708BDA408002051440000AC23002015
S11353A008B5044B9847044B1B69002B00D0984761
S11353B008BDC0463D440000A4080020014B18610C
S11353C07047C046A408002070B500260C4D0D4C53
S11353D0641BA410A64209D1002605F011FE0A4D53
S11353E00A4C641BA410A64205D170BDB300EB584F
S11353F098470136EEE7B300EB5898470136F2E7D9
S11354000CB000000CB000000CB0000010B00000A4
S1135410002310B59A4200D110BDCC5CC4540133B2
S1135420F8E703008218934200D1704719700133E2
S1135430F9E7F0B58BB014001D1E129953DA8024DD
S113544024061B191D0014002D230B702023149E09
S113545003229E43462E07D03300453B59424B411D
S11354601099013ACB18109309AB049308AB03933A
S1135470139B00920293109B220001932B0000F0D7
S11354802BFF0700472E02D1119BDB0724D5109B6D
S1135490FB180793462E14D13B78302B0CD10022F5
S11354A000232000290002F0A7FE002804D10123D4
S11354B0109A9B1A139A1360139B079A1B68D318AC
S11354C00793002200232000290002F095FE3022D9
S11354D000280DD0079B09933800099B159ADB1B04
S11354E013600BB0F0BD0023AFE7591C09911A708B
S11354F0099B07999942F8D8EEE7F0B52B2385B0BC
S113550007000C000270861C002901DA2D234C428E
S11355107B70092C23DD02ABDD1D6B1E20000A21EC
S1135520019302F053FE6B1E3031197020000A21E2
S113553002F066FD040009280ADC023D30342C70B8
S113554002AB07333000AB4204D8C01B05B0F0BD3A
S1135550019DE2E72B78013533700136F0E7302303
S1135560E4183370B01C7470EFE70000F0B595B028
S11355700C000A920B931A9D099001F023FE036814
S113558018000D9300F050FD0023129323680E9031
S11355900C930C99277E2B680722C90547D59B18C5
S11355A093431A0008322A601A685B68A264E364B1
S11355B00122E56CA66C6B005B080F935242A74B6B
S11355C030000F9905F076F8002800D006E2012299
S11355D0A24B524230000F9902F01EFE002800D068
S11355E0FCE1002200233000290002F00BFE002819
S11355F003D023002D2243331A70994D472F00D82E
S1135600984D032300260C9A236101339A432260A8
S11356100B9B13AA009321000A9B099800F0F2F94E
S1135620431C00D09CE00120404215B0F0BD07337C
S1135630B6E780236268DB00511C45D10732626003
S11356400C9A0021134312AA059211AA0392232251
S113565023600691019308A963685218029200938B
S113566032002B0004970998FFF7E3FE20233A0049
S113567005009A43472A07D1119BDA1C02DB6268B2
S113568093425BDD023FFFB21199652F3BD82000A6
S113569001393A0050301191FFF72FFF129A06009A
S11356A083182361012A02DC2268D20701D5013361
S11356B02361232308AA9B181B78002BA8D023005E
S11356C02D2243331A70A3E7672F01D0472FB7D198
S11356D0002A16D00C9908A80B430021069112A9A0
S11356E0059111A9039123210918236001930092C4
S11356F02B000497029132000998FFF79AFE0500E7
S1135700BAE701229BE7662F19D1636800290CDDF3
S11357102161002B02D12268D20702D501335B1824
S11357202361119B0026A365C3E7002B03D101224B
S11357302168114200D09A1C2261F2E76727119B6D
S11357401298834205DB22682361D207E9D501332D
S1135750E6E70122002B01DC9218D21A1218EBE7BB
S11357602268530508D423692A000A9909980B9DD5
S1135770A847431C29D156E7652F00D8DCE0A06C6C
S1135780E16C0022002302F037FD002835D001230C
S1135790354A0A9909980B9DA847431C00D142E752
S11357A0119B129A934202DB2368DB070DD50B9DF4
S11357B00E9B0D9A0A990998A8470025431C00D10D
S11357C031E7129B013B9D420BDB236800259B07BD
S11357D000D5FDE0139BE068984200DB25E7180044
S11357E023E7220001231A320A9909980B9EB04735
S11357F0431C00D117E70135E3E7119B002B35DC8F
S11358000123194A0A9909980B9EB047431C00D1F9
S113581009E7119B002B05D1129B002B02D12368B1
S1135820DB07D2D50B9E0E9B0D9A0A990998B047B7
S11358300026431C00D1F6E6119B5B429E4201DB2D
S1135840129B91E7220001231A320A9909980B9FAF
S1135850B847431C00D1E6E60136EDE7FFFFEF7FD2
S113586008AC000004AC000014AC0000A36D129E50
S11358709E4200DD1E00002E35DC00230C93F34312
S1135880DB170F930F9BA76D0C9A3340FB1A9A42B8
S113589032DB119B129A93423CDB2368DB0739D439
S11358A0129E119AF31BB61A9E4200DD1E00002EB2
S11358B039DCF7430025FB170C93119A129B0C99C2
S11358C09B1A32000A409B1A9D4200DB7DE72200AE
S11358D001231A320A9909980B9FB847431C00D137
S11358E0A1E60135E9E733002A000A9909980B9FDC
S11358F0B847431CC1D196E6220001231A320A9903
S113590009980B9FB847431C00D18CE60C9B0133CC
S11359100C93B7E70E9B0D9A0A9909980B9EB04712
S1135920431CBDD17FE6EA1933000A9909980B9DFF
S1135930A847431CBDD176E6129B012B02DC012350
S11359401A4238D001232A000A9909980B9FB847B4
S1135950431C00D167E60E9B0D9A0A9909980B9F88
S1135960B847431C00D15EE6A06CE16C0022002322
S113597002F042FC002808D00025129B013B9D4206
S11359800DDB220033005032EFE6129B6A1C013B10
S11359900A9909980B9DA847431CF2D143E62200BB
S11359A001231A320A9909980B9FB847431C00D166
S11359B039E60135E1E72A00EAE72200012319323A
S11359C00A9909980B9EB047431C00D12BE6013578
S11359D0E368139A9B1A9D42EFDBFBE632002B002F
S11359E03000290004F066FE002800D121E6034DB2
S11359F0472F00D905E6024D03E6C04610AC00006F
S1135A000CAC0000F7B5150001938A680B6900908F
S1135A100C00934200DA130022002B604332127808
S1135A20002A01D001332B6023689B0602D52B6822
S1135A3002332B60062723681F4027D023004333FB
S1135A401B785A1E93412268920630D42200019991
S1135A5043320098089EB047431C25D00623206893
S1135A602A68E16803400025042B03D18D1AEB4317
S1135A70DB171D40A3682269934201DD9B1AED18D0
S1135A800027BD4220D1002010E00137E3682A68D6
S1135A909B1A9F42D2DA22000123193201990098FD
S1135AA0089EB047431CF0D101204042FEBD302087
S1135AB0E1184331087021005A1C45310978A218B5
S1135AC0433202331170C1E7220001231A320199D3
S1135AD00098089EB047431CE6D00137D1E7000088
S1135AE0F0B58BB006920A004332079305900492F6
S1135AF00A7E0C00109B6E2A00D18FE017D8632A0F
S1135B002CD008D8002A00D199E0582A54D0260075
S1135B104236327029E0642A01D0692AF7D121681B
S1135B201A68080623D5111D1960156825E0732A23
S1135B3000D188E008D86F2A29D0702AE7D1202222
S1135B4009680A43226003E0752A20D0782ADED14E
S1135B5022007821453211706C4A30E00E001A6838
S1135B604236111D196013683370012379E0490628
S1135B70D9D5111D19600023D55E002D03DA2D231C
S1135B80049A6D421370624B0A2703932FE0206836
S1135B901968050603D5081D18600D6805E0400660
S1135BA0F9D50D68081D1860ADB2594B0827039349
S1135BB06F2A18D00A2716E045310A70544A039216
S1135BC01A682168101D18601568080622D5CB07CD
S1135BD002D52023194321601027002D03D120234F
S1135BE022689A4322602300002243331A706368B8
S1135BF0A360002B5CDB0422216891432160002D0B
S1135C0058D1049E002B64D02600039B42361B7897
S1135C1033705EE04806DAD5ADB2D8E709681A6891
S1135C20080605D5111D1960136862691A6006E03B
S1135C304906F7D5111D19601368A28A1A8000233A
S1135C40049E236154E01A68111D1960166800212E
S1135C506268300001F032FB002801D0801B6060D4
S1135C60636823610023049A137041E023693200BE
S1135C7006990598079DA847431C43D0236800252F
S1135C809B070FD4099BE06898423DDA18003BE07B
S1135C9022000123193206990598079EB047431C38
S1135CA030D00135E368099A9B1A9D42F0DBE9E79D
S1135CB0002DA9D0049E2800390002F09DF9039B11
S1135CC0013E5B5C28003370390002F00FF9051EB9
S1135CD0F1D1082F09D12368DB0706D5636822694F
S1135CE0934202DC3023013E3370049B9B1B2361EF
