:10000000F0280020912700008D2700008D27000098
:1000100000000000000000000000000000000000E0
:100020000000000000000000000000008D2700001C
:1000300000000000000000008D2700008D27000058
:100040008D2700008D2700008D2700008D270000E0
:100050007D0A00008D2700008D2700008D270000FD
:100060008D2700008110000091100000A1100000F9
:10007000B1100000C1100000D1100000AD0400005C
:10008000BD040000CD04000025240000352400003C
:100090004524000000000000000000008D27000043
:1000A0008D270000000000008D27000000000000E8
:1000B0000000000010B5064C2378002B07D1054B3B
:1000C000002B02D0044800E000BF0123237010BDC4
:1000D000A800002000000000588E0000084B10B55A
:1000E000002B03D00749084800E000BF0748036819
:1000F000002B00D110BD064B002BFBD09847F9E731
:1001000000000000AC000020588E0000588E000057
:10011000000000000321D823014AD1547047C04693
:100120008406002010B52949CC23294AD058294BF0
:10013000984700280CD00122274B1A70244803321C
:10014000D823C254783001322449254B98473BE0EC
:10015000D4231F4AD4581D49201C224B98470028FD
:1001600004D00121D8231A4AD15427E01E49201C6B
:100170001E4B984700280AD015480222D823C254A3
:100180007830033215490831154B98471CE0124B63
:100190001B78002B07D000220F4B1A700121D823A7
:1001A0000B4AD1540AE00A480022D823C2547830BE
:1001B00005320A4910310A4B984705E005220749E4
:1001C00018310B48064B984710BDC0460000A040B0
:1001D00084060020F9610000650700209C8900006A
:1001E000F5180000E56100000000E0400D6200002D
:1001F000FC06002010B505480322D823C2547830ED
:10020000023203492031034B984710BD8406002079
:100210009C890000F5180000017042700023837073
:10022000002343607047C046F0B585B003A90122A2
:100230004A7000238B7002AD2B706A70AB706846F9
:1002400003704270837001AC23706270A3700A70F7
:10025000094FB533F85C094EB047B423F85C290068
:10026000B047BC23F85C2100B047C423F85C694662
:10027000B04705B0F0BDC04684060020F10B000079
:10028000F0B583B004004378D9090022002904D1D5
:100290005A09D2015D498C4662441F210B401E3928
:1002A0009940516128205A4B98476378D909002218
:1002B000002904D15A09D20154498C4662441F21B5
:1002C0000B401E39994091610A20514B9847637841
:1002D000D9090022002904D15A09D2014B498C4680
:1002E00062441F210B401E3999405161494B1A68E5
:1002F0007F21D37B8B43FCD113717F21D37B8B4335
:10030000FCD14033537123781F221A4001209040C2
:10031000DA090021002A04D15909C9013B4B9C4646
:1003200061443D4B05E0013B9BB2002B01D160686D
:1003300069E00A6A0242F6D03648384B9847050011
:1003400023781F221A4001209040DA090021002A58
:1003500004D15909C9012D4B9C4661442E4B05E03F
:10036000013B9BB2002B01D160684CE00A6A02425B
:10037000F6D1284E3000294B984732687F21D37B35
:100380008B43FCD1803353710004030C2D042D0CDE
:10039000581B234FB847234B9847234A234B244DE0
:1003A000A847244B984701906568A6783000B84765
:1003B000071C011C281C204B9847011C01981F4B4F
:1003C0009847002809D1391C281C1D4B9847011C4F
:1003D00001981C4B9847002808D0731CDBB2032BF4
:1003E00002D8A370019501E00023A370124F1649B3
:1003F0000198B847061C1549281CB847011C301C39
:10040000134B9847606003B0F0BDC0460044004104
:10041000E50800008406002001FF00000927000015
:10042000356B0000A18700009CC420B07268913F2A
:10043000657A0000498800000D6900000D62000027
:1004400079650000E5610000CCCCCC3E9A99193F5B
:100450008D620000F8B54F464646C0B48000114B8F
:10046000C35899461B68DF6A4B465B6B1F404B467F
:100470009B6B1F400C4D4B461C1D34234B44984630
:100480002E683E4205D04846236898474B461B6875
:10049000DE62043504344445F2D10CBC90469946E2
:1004A000F8BDC04668070020C489000010B50020D0
:1004B000014B984710BDC0465504000010B50120FF
:1004C000014B984710BDC0465504000010B50220EE
:1004D000014B984710BDC046550400007047C04608
:1004E00010B504000B4B1B78DBB2202B06D0772B0A
:1004F00009D105220849094B984704E0052206491D
:100500000831064B9847052202492000044B9847C2
:1005100010BDC04660070020F4890000F5180000F7
:100520001519000070B582B005000E0000226B4660
:10053000DA80064C6B46991D2800A0470028F9D1A7
:100540006B4606331B88337002B070BDE1170000A4
:1005500070B505008CB2034E21002800B04700287A
:10056000FAD170BDB517000010B58EB001AA0023F6
:100570000021937093711381002050709172117358
:1005800091735173117453619361117713625362C4
:1005900013855385938503331370C0239B00938089
:1005A0000123D372074C08492000084B9847226862
:1005B0007F21D37B8B43FCD1118802330B43138003
:1005C0000EB010BD84060020003000428D240000D3
:1005D00070B5040000220649064DA84701220649CD
:1005E0002000A8473122A15C03230B43A35470BD14
:1005F000DD040000DD180000E104000070B590B0DB
:1006000004008023DB05009300230193FF22694649
:100610000A8100228B72CB729621890108910121F7
:1006200024206D4629540130295425316B54013161
:100630006B540A9305316B5401316B5405932B8233
:10064000EB762A762A776A761323AB766A7780234D
:100650005B0303931E4B0C931E4B0D9301235B42D4
:100660000E930F931C4E1D4D6A4631002000A84783
:100670000028F9D125682800194B98471F231840F6
:100680001E3B8340174A13602268D369002BFCD1BC
:100690002A68023313432B602000134B9847134BF7
:1006A0001C60134A134B1A60134A144B1A606A46B3
:1006B00009492000094B9847114D2B689868002183
:1006C000104CA0472B6858680021A04710B070BD9F
:1006D0000300040003000500000800427D14000030
:1006E0005510000000E100E0D1050000E407002003
:1006F00051050000E007002025050000DC07002070
:100700006C000020313F000070B5094E3000094DEB
:10071000A8473400B43CB0612000C430A847D423BB
:10072000E0502000BC30A847D023E05070BDC04648
:10073000380700208102000010B51E4C23880133C9
:1007400023801D4B1988013189B219801B4B1A88EF
:10075000013292B21A801A481A4B98472388052B07
:1007600004D9194B98470022124B1A80124B1B8850
:10077000142B0DD91548164B9847D823154AD35C2E
:10078000032B05D0144B984700220C4B1A8010E025
:100790000A4B1B883C2B0CD910480D4B9847D8238B
:1007A0000C4AD35C032B04D10D4B98470022024B1B
:1007B0001A8010BDC4000020C8000020C600002020
:1007C000048A0000253E000009070000208A00007E
:1007D0001D3F000084060020F5010000588A00003B
:1007E0002501000010B58EB001AA002300219371ED
:1007F0001381002050709172D172117391735173F3
:100800001174536193611177136253621385538599
:10081000938504339370013B1370E023DB009380D6
:1008200032212923D154084C08492000084B98470D
:1008300022687F21D37B8B43FCD1118802330B4389
:1008400013800EB010BDC046A00600200034004248
:100850008D24000010B50D4C00220D4920000D4BD9
:10086000984720681C3C0C4B98470C4B1B5C1F2284
:1008700013401E3A11009940094B19603521605C04
:10088000012303436354E3695A7310BDA00600209B
:100890003907000099230000552400008C8A0000CD
:1008A00000E100E070B50020084B98470500084CB7
:1008B000FA218900A047074B186007492800A04784
:1008C000064B18600522064B1A6070BD29210000F6
:1008D000595E00000400002040420F00000000208C
:1008E00010E000E030B5084B1C68084A0025802164
:1008F000490206E0002C04D05460956013680B4256
:10090000FCD00138F6D230BD0000002010E000E03D
:100910000C4B1B68002B10D1EFF31083002B09D177
:1009200072B6BFF35F8F0022074B1A700132074B7C
:100930001A7002E00022054B1A70024A1368013354
:1009400013607047CC00002008000020D000002079
:10095000084B1A68013A1A601B68002B09D1064B34
:100960001B78002B05D00122044B1A70BFF35F8F58
:1009700062B67047CC000020D000002008000020A4
:10098000F0B5474680B482B001AC012666700027FE
:10099000A770267021001320274DA847274B9846A3
:1009A00080231B03424693612770667021001C2040
:1009B000A8476670A770267021005220A847210022
:1009C0003E20A84721003F20A84721002F20A8470C
:1009D00021001420A8478022D202194B9A61803B43
:1009E0008022D2059A61802212069A618022120228
:1009F0009A6180235B034246936127702100532054
:100A0000A847104A136A802189030B43136204220A
:100A10000D4B1A806B469E70DF7005236A4613707B
:100A2000567069460920094CA04769460C20A0472A
:100A300002B004BC9046F0BDF10B00000044004140
:100A400000450041000400400054004239230000EA
:100A50001723002A0DD18B00074A9B58002B03D186
:100A600089008850002304E0834201D01D2300E068
:100A7000002318007047C0467807002070B5002298
:100A8000154B1A7000231F25144E134C1F2B19D918
:100A90000FE0002100E012490A619B009B59002BE6
:100AA00000D0984723780133DBB223700F2BEDD9A8
:100AB00011E02900194001228A40002109691142F0
:100AC000E7D1EFE72900194001228A40044909696A
:100AD0001142E0D1E6E770BD7407002078070020DE
:100AE00000180040044A117802230B431370537816
:100AF0005BB2002BFBDB70470018004000B583B0F1
:100B0000124A916940230B43936101A900230B70A2
:100B100005200F4B984705200E4B98470E4A117839
:100B200001230B43137053785BB2002BFBDB0B4BA1
:100B300019004031002204C39942FCD11022084B15
:100B40001A60084B984703B000BDC046000400403F
:100B500041220000B5210000001800407807002065
:100B600000E100E0E50A0000002303604360012289
:100B70000272427283720233C3727047F0B583B05F
:100B800005000C0001A900234B70CB7023790B707A
:100B9000237A8B702078144B984700201F2D00D8A3
:100BA0001248072129408900E27AA37A002B01D05C
:100BB00008231A43EB089B00C3189E690F278F4038
:100BC000BE438A4032439A61637A002B05D0426962
:100BD0000123AB401343436104E043690122AA406F
:100BE0009343436103B0F0BD392300000018004077
:100BF00000B583B001AB80221A700A785A704A7827
:100C00009A708A78DA701900014B984703B000BDDA
:100C10003923000010B5490840230024814201D245
:100C20000AE01C00091A631C9BB28842F9D94023D0
:100C3000FF2C01D814800023180010BDF0B55F46CA
:100C400056464D464446F0B489B00C00059212AAAF
:100C5000117802004A434025A24200D9C6E0002B89
:100C600051D1020008000021644DA84783462600A8
:100C700000270023002400930194002200233F203A
:100C800020218C461F3902960397202464420419C0
:100C900003D40D00A540A84604E06446241A0D00C4
:100CA000E540A8460C008440A14614001D00A4188D
:100CB0005D4122002B0046465F463E4203D00E00B7
:100CC000264332002B00029C039D9D420FD801D188
:100CD00094420CD8029C039D121BAB414D46009ED2
:100CE000019F35433C00464634430095019401384A
:100CF000CBD20022012300980199121A8B41120CC9
:100D00001B041A436FE00022012B6CD1630F049384
:100D1000E30098460A0000230021384CA047040055
:100D20000D0000239C46069320339B460126634614
:100D3000079300230293002200233F210094019592
:100D40000F0020214942791803D43000884084469E
:100D500004E05946C91B3000C84084463100B94000
:100D60008946100019008018594102000B004446C2
:100D70004D462C40A2466446049D2C40A446544651
:100D800065462C4303D03400044322000B00009836
:100D9000019999420AD801D1904207D80098019947
:100DA000121A8B410299484601430291013FC8D271
:100DB000009C019D0299079A8B1ADB0810498B420F
:100DC0000BD9069B0133DBB21900069313000133E4
:100DD00007930829ADD1402508E04025069A082A46
:100DE00004D052031A43059B1A800025280009B03D
:100DF0003CBC90469946A246AB46F0BD3562000029
:100E0000FF1F000010B582B004000E4B1B78002BB2
:100E100001D000290DD001A90C7013200A4B98476E
:100E200013200A4B9847074B5C7001221A70002070
:100E300006E0044B5B78834201D01D2000E00020D7
:100E400002B010BDD400002041220000B5210000F6
:100E5000444B984233D006D8434B98420DD0434B75
:100E600098421BD06FE0424B98424AD0414B984287
:100E700058D0414B984266D132E0012906D0002972
:100E800063D0022906D0032906D001E03B4867E081
:100E9000002065E03A4863E03A4861E0012906D065
:100EA000002954D0022906D0032906D001E0364893
:100EB00056E0002054E0354852E0354850E0012922
:100EC00006D0002945D0022906D0032906D001E02A
:100ED000304845E0002043E02F4841E02F483FE004
:100EE000012906D0002936D0022906D0032906D0D0
:100EF00001E02B4834E0002032E02A4830E02A4864
:100F00002EE0012906D0002927D0022906D0032986
:100F100006D001E0254823E0002021E024481FE01E
:100F200024481DE0012906D0002918D0022906D046
:100F3000032906D001E0204812E0002010E01F48FD
:100F40000EE01F480CE000200AE01E4808E00320E5
:100F500006E01D4804E01D4802E01D4800E01D4871
:100F60007047C0460010004200080042000C0042DA
:100F700000180042001C004200140042030005005B
:100F800003000600030007000300010003001E0029
:100F900003001F0002000D0002000E0002000F00FF
:100FA00003001100030012000300130005003F00BE
:100FB00005003E0005005200030017000300180062
:100FC000030019000300040002000C0003001000DD
:100FD000050053000300160030B587B00C4B6A467D
:100FE00032CB32C232CB32C2009B834206D00123C5
:100FF0009A0069465258824203D100E00023D8B2D9
:1010000003E00133062BF3D1002007B030BDC0460A
:10101000908A00007047C046F0B50A4B1B78002B41
:101020000CD1094F094E0A4D0024DE515A191460A3
:101030000433182BF9D10122024B1A708000024BA5
:10104000C150F0BDD6000020D800002015100000CF
:10105000B807002010B582B0040006220549684692
:10106000054B98472000054B98476B46185602B031
:1010700010BDC046A88A000015350000D90F000039
:1010800010B5024B1B680020984710BDD800002007
:1010900010B5024B5B680120984710BDD8000020B6
:1010A00010B5024B9B680220984710BDD800002065
:1010B00010B5024BDB680320984710BDD800002014
:1010C00010B5024B1B690420984710BDD8000020C2
:1010D00010B5024B5B690520984710BDD800002071
:1010E000F0B557464E464546E0B48AB005000E00BE
:1010F000140029600B689B0700D48CE0936A059369
:10110000D36A0693136B0793536B089300271F232F
:101110009946F9B2BB0005AA9858002802D13000C0
:101120008F4B9847431C29D00204130C9846000C9F
:10113000C1B200239C46030604D44B09DB01894A53
:1011400094469C444B460B406046C01840300078A3
:10115000824680205246D2070AD55B08634430336A
:101160001878C0B2CB0701D5000901E00F23184061
:10117000804503D000232B601C20EAE00137042FB8
:10118000C7D11320784B984722780021012A12D129
:1011900004AA0100A069754B984703001720002B93
:1011A00000D0D6E0337BDBB204AA127805309A4235
:1011B00000D0CEE00C216368A2681343E2681343B9
:1011C0000B43217C627C002A01D080221343A27C45
:1011D000002A02D0802292021143E27C002A02D02F
:1011E000802292001143227D002A02D080229201A7
:1011F0001143306802221343834208D173688B4243
:1012000005D123786B71237CAB710020A1E0002312
:101210002B601C209DE00B680520DB0700D598E0C3
:101220000800534B984753490A6A871C0123BB4067
:1012300013430B6209A92427E35D0B701430C3B27A
:10124000019318004C4B984701984C4B9847E05D30
:1012500000214B4B98472378012B03D132680B3385
:10126000134333602E6804AB80221A7000225A7038
:1012700001219970DA702378002B01D104AB9A70A8
:10128000A36A0593E36A0693236B0793636B089342
:101290000027F9B2BB0005AA9858002802D13000F7
:1012A0002F4B9847431C06D002AB1872000CC0B2FB
:1012B00004A9344B98470137042FEAD123786B7186
:1012C000237CAB71A37CEB71237D2B72002202ABDC
:1012D000DA802378012B14D12868254B98471430E5
:1012E000C0B2214B9847010002AB9A1DA0691F4B69
:1012F000984703001720002B2BD102AB06331B7835
:1013000033736368A2681343E2681343227C617CF1
:10131000002903D11C498978890701D580210B4315
:10132000A17C002902D0802189020A43E17C0029A6
:1013300002D0802189000A43217D002902D080212A
:1013400089010A4331680B43336073681343736048
:1013500000200AB01CBC90469946A246F0BDC0468B
:10136000510E0000004400415D220000150C0000F9
:10137000D90F00000004004041220000B521000008
:10138000050E0000392300000020004110B544790B
:101390001523012C6ED1047A0023002C6AD1002A77
:1013A00058D04B78002B44D003681B7EDB0710D449
:1013B0000B78D9090022002904D15A09D2012E49FB
:1013C0008C4662441F210B401E39994091610523D0
:1013D00050E00B78DC090022002C04D15A09D2011C
:1013E000254CA44662441F2423401E3C9C4054616B
:1013F00003681A7ED20701D58A789A62C2790023DF
:10140000002A37D102680421137E0B42FCD0117EE2
:10141000002349072ED5538B5B0701D50423538343
:101420008379012B02D1936A002323E0936A00237E
:1014300020E00B78D9090022002904D15A09D201F1
:101440000D498C4662441F210B401E399940516161
:1014500000230FE00B78D9090022002904D15A0992
:10146000D20105498C4662441F210B401E39994028
:1014700091610023180010BD00440041F0B55F46A3
:1014800056464D464446F0B491B005000C00160097
:1014900029600800B94B984722680523D20700D578
:1014A00064E122681733920700D55FE1B4490A6A04
:1014B000871C1B3BBB4013430B620FA92D27F35D19
:1014C0000B701430C3B202931800AE4B98470298C9
:1014D000AD4B9847F05D0021AC4B9847F37A6B71A8
:1014E0002423F35CAB712523F35CEB71F37E2B7249
:1014F000337F6B722B6899461800A04B98471430C5
:1015000000220E2306A98C4663441A80328A029276
:101510008023DB019A421AD004D880239B019A428F
:101520000BD004E1C023DB01029A9A420AD0802347
:101530001B029A4200D1FFE0F9E0102306930F3B13
:101540000793FDE008230693073B0793F8E0336811
:101550000493F3689B4673690393337E984626236E
:10156000F35C059373689A46002B15D080235B05C6
:101570009A4536D12723F35C002B36D1336A1F00FE
:10158000C0B2834B984701000E2206AB9C466244D2
:101590003800804B984725E00823069300230793E3
:1015A0002723F35C002B0BD0069B0093079B0E2296
:1015B00006A98C466244B16A306A774FB84711E099
:1015C000336A1F00C0B2724B98470100069B00931C
:1015D000079B0E2206A88446624438006E4FB84727
:1015E00000E00020031E00D0C0E0737E002B02D07C
:1015F000B37E4A4693732A68029FD369002BFCD1BD
:101600000E3306AA944663441B884A469381049B82
:101610005A461343039A1343524613433B434246ED
:1016200012021343059A57071F432723F35C002B2D
:1016300001D104331F43717E8902337F5B0219435A
:10164000737F1B0219432423F35C5B041943252396
:10165000F25C12041143F37A19433389FF2B04D04F
:10166000802252041743194305E0F37E002B02D079
:101670008023DB041F432C23F35C002B03D1474B57
:101680009B789B0701D580231F432A68D369002BD1
:10169000FCD14B4659602A68D369002BFCD14B46DC
:1016A0001F600EAB80221A7000225A70DA709A7096
:1016B000336B0A93736B0B93B36B0C93F36B0293C3
:1016C0000D9300270EAEF9B2BB000AAA9858002865
:1016D00002D12000324B9847431C05D03070000CDB
:1016E000C0B231002F4B98470137042FEBD10023B4
:1016F000EB602B616B61AB61EB612B62AB626B6288
:101700000022EB85AB853033EA540133EA540133D0
:10171000EA540133EA542868184B984704002249D8
:10172000224B9847A400224BE55000231EE01023D3
:1017300006930023079303E00323069300230793F4
:1017400033680493F3689B4673690393337E98462A
:101750002623F35C059373689A46002B00D11FE79C
:1017600080235B059A4500D104E73EE7180011B0DD
:101770003CBC90469946A246AB46F0BDD90F00004E
:101780000004004041220000B5210000050E0000C9
:101790005D220000150C00003D0C000000200041FF
:1017A000510E000039230000351900001910000007
:1017B000B8070020C2791C23002A0ED0C28D92B235
:1017C000173B002A09D10368DA69002AFCD1198580
:1017D00002211A7E0A42FCD0002318007047C0463E
:1017E00082791C23002A30D0828D92B2173B002AC6
:1017F0002BD10268107E400727D5D369002BFCD17E
:10180000538BDBB298061DD0980703D50223538370
:1018100018331AE0580703D5042353831A3314E00E
:10182000D80703D50123538312330EE0D80603D51E
:1018300010235383323308E09B0603D520235383C0
:10184000213302E0138D0B80002318007047C0463F
:10185000F8B506000C00150007680A4B9847F38D91
:101860009BB2002B03D0084B9847052009E0F58573
:10187000054B9847B46205223323F254323BBB75C3
:101880000020F8BD1109000051090000F8B504005E
:101890000D00160007680F4B9847A38D9BB2002BD5
:1018A00003D00D4B9847052013E0A6850A4B9847B7
:1018B000656205223223E2542E3BBB75237A002B4E
:1018C00001D02023BB75637A0020002B01D00823B0
:1018D000BB75F8BD1109000051090000931C9B0065
:1018E000C3185960302101239340425C1343435491
:1018F0007047C04610B51723002A06D0C4790533B7
:10190000002C02D0024B98470300180010BDC046BF
:101910005118000010B51723002A06D0847905332A
:10192000002C02D0024B98470300180010BDC0469F
:101930008D180000F8B58000604BC5582C68E3692D
:10194000002BFCD1237EA67D1E403023EB5C312290
:10195000AF5C1F40F30722D5EB8D9BB2002B1CD050
:10196000AA6A1378DBB2511CA9626979012901D0F6
:101970009BB204E0517809020B430232AA62DB05F4
:10198000DB0D2385EB8D013B9BB2EB85002B06D154
:10199000013323750133A37501E001232375B307D8
:1019A00009D50223237500223133EA54FB0702D5FF
:1019B0002800EB689847730760D5AB8D9BB2002B6E
:1019C0005AD0638BDBB21A0702D43F22134001E0E6
:1019D00037221340002B2DD09A0705D51A22322327
:1019E000EA54303B63831FE05A0705D51E22322399
:1019F000EA542E3B638317E0DA0705D5132232231E
:101A0000EA54313B63830FE0DA0605D542223223E4
:101A1000EA54223B638307E020221A4204D0213299
:101A20003223EA54123B63837B0727D528006B6976
:101A3000984723E0238DDB05DB0DDAB2696A0A7073
:101A40006A6A511C69626979012904D11B0A5370C1
:101A50006B6A01336B62AB8D013B9BB2AB85002B94
:101A60000CD10433237500222E33EA54BB0705D56D
:101A700028002B69984701E004232375F30607D556
:101A8000102323752376FB0602D52800EB699847BF
:101A9000B30607D52023237523763B0702D52800FC
:101AA000AB699847330707D5082323752376BB0610
:101AB00002D52B6A28009847F8BDC046B807002019
:101AC00010B5082803D880001B4B1B589F460020E8
:101AD00030E01A4B18692DE0194B1B6A9B059B0FD0
:101AE0001848D84026E0154B586923E0134B1B6873
:101AF000022018401ED012491022CB681A42FCD096
:101B00000E4B1B685B0714D500200F4B98470B4BFF
:101B10009B681B041B0C58430CE05023084AD35C01
:101B200000205B0706D5054BD86803E08020000243
:101B300000E0064810BDC046B08A0000F00000205A
:101B40000008004000127A005D220000006CDC02F8
:101B500070B50C4C236A01788578427801200240E8
:101B600092014026B343134302002A40D2017F3042
:101B70008343134303220A40120203490B401343D9
:101B8000236270BD00080040FFFCFFFFF0B5574620
:101B90004E464546E0B41C4EB3699C4641780578F4
:101BA0000779C378994644798378012003409B00E4
:101BB0009A4604229046624643469A431300524690
:101BC0001A4313000140C900082293430B434A46BD
:101BD0000240920140218B4313430740FF018022C2
:101BE00093433B43793A15402D02084F3B402B432A
:101BF00004402003064C1C400443B4611CBC9046C6
:101C00009946A246F0BDC04600080040FFF8FFFF1D
:101C1000FFEFFFFFF0B55F4656464D464446F0B431
:101C200083B02E4EB38A9C46457803785A425A4177
:101C3000914683789B46C37802799046477B027B26
:101C40000192847B82682648426101204A469200C4
:101C5000914604229246624651468A4394464A4639
:101C600061460A43944642460240D200904608220A
:101C70009146624649468A439446424661460A4333
:101C8000944603401B0110229046624641468A4317
:101C90001343594601404901202293430B43019AC3
:101CA0000240920140218B4313430740FF018022F1
:101CB00093433B43793A15402D020A4F3B402B4357
:101CC00004402003084C1C400443B48203B03CBCD5
:101CD00090469946A246AB46F0BDC046000800407B
:101CE000F0000020FFF8FFFFFFEFFFFF10B5037AC1
:101CF0009B061A0C43899B059B0D1343194C63608B
:101D00008179C37919434388828813430B4342780E
:101D1000D201134323600378042B0FD1037B9B066E
:101D2000028A13431900C3891B040F4A13400B4353
:101D3000A360216804230B43236011E0202B0FD103
:101D4000037B9B06028A13431900C3891B04064ABE
:101D500013400B43034A9360136804490B43136019
:101D600010BDC046F00000200000FF032404000066
:101D7000082803D88000254B1B589F46172044E0B5
:101D8000234A116A02230B43136200203DE0204ADC
:101D9000916902230B439361002036E01C4A118AAB
:101DA00002230B43138200202FE0194A918A022359
:101DB0000B439382002028E016490B68022213434C
:101DC0000B60134B9A8419000E32CB681A42FCD078
:101DD000104A91680E4BD96252689A6200229A8426
:101DE00019001032CB681A42FCD00A4B1B689BB218
:101DF000074A9384002008E005494422885C0223B6
:101E000003438B54002000E000207047D48A000078
:101E100000080040F0000020F0B557464E46454609
:101E2000E0B490B0C222D200684B9A6068494B6817
:101E30001E2293431A3A13434B60013201AB1A70CE
:101E40000024644DE0B201A9A8470134252CF9D142
:101E50000CA800230370802212028260C37001224A
:101E600002710373837306214170827043735A4B6E
:101E700098470520594B984754490222CB681A428B
:101E8000FCD052498A8A802313438B82544C2368A6
:101E9000DA048869520E1204524B034013438B61DB
:101EA0000AA8012343708370037107220270002582
:101EB0004571C3704C4B98470420484B984705AB7D
:101EC00000225D809D809A71DA713F2159813B39F2
:101ED00019705A7023689B0E3F2B00D1203B05A838
:101EE0000372B723DB000382072303733833C381F4
:101EF0003E4B984704A800254570057085703C4B03
:101F000098470620354B994698473A4B984701AC7D
:101F100001266660657025726572052323702100B5
:101F20000120354B984698470120344FB8476570DB
:101F30006572042323701C339A4663602672210065
:101F40000220C0470220B8476660657006232370F0
:101F50002572657221000320C0470320B8476570D1
:101F600025726572032323705346636021000420A9
:101F7000C0470420B847267021000020154B984721
:101F800000201F4B98470720C8471049D022CB6834
:101F90001340D02BFBD11B4A002313725372937250
:101FA000D37201A901224A604B700B724B72073346
:101FB0000B700020104B98470020104B984710B032
:101FC0001CBC90469946A246F0BDC04600080040A1
:101FD0000040004141220000151C0000711D00005E
:101FE00024608000FFFF80FF8D1B0000ED1C0000BF
:101FF000511B0000092000002D200000E5200000FA
:10200000B521000000040040064A916908230B43F3
:1020100093610122044B1A7019000B781342FCD112
:102020007047C04600040040000C004070B5060038
:1020300005000C78240204434B78002B02D0802347
:10204000DB021C434B7A002B02D080231B031C4372
:102050004868012818D9431E184210D1022806D911
:102060000223002201325B009842FBD800E00022EC
:1020700012023243150080235B031C4304E0050277
:10208000354380239B021C430B7A002B02D0802314
:102090009B031C430F4A53785BB2002BFBDB0E4BB8
:1020A00098470E4B1E700B4A53785BB2002BFBDB3C
:1020B000084B9D601A0053785BB2002BFBDB054A8E
:1020C000516880235B020B401C435460044B9847CB
:1020D00070BDC046000C004011090000080C004013
:1020E0005109000010B504000B4A53785BB2002B75
:1020F000FBDB0A4B98470A4B1C70074A53785BB2CC
:10210000002BFBDB044A5368802149020B435360D8
:10211000044B984710BDC046000C00401109000058
:10212000040C00405109000070B504001A4A5378AD
:102130005BB2002BFBDB194B9847194B1C70164AFE
:1021400053785BB2002BFBDB134E7068C004C00EEB
:10215000144B98470500124B1C707668F602F60F78
:10216000114B1C700C4A53785BB2002BFBDB0A4B03
:102170009C682402240C0D4B9847002E07D1012C9B
:1021800007D9210028000A4B9847050001E00134D7
:10219000E540280070BDC046000C00401109000059
:1021A000040C0040C11A0000080C00405109000056
:1021B000595E000010B50400064B9847064B1C7092
:1021C000064A51888023DB010B435380044B984718
:1021D00010BDC04611090000020C0040000C004078
:1021E0005109000010B504000F4B98470F4B1C70AD
:1021F0000F4B5A881205100F59880E4A0A405A8010
:1022000059880D4A0A405A8019008022D2014B8811
:102210001342FCD106494C880202064B234013436B
:102220004B80064B984710BD11090000020C00407E
:10223000000C0040FFF0FFFFFFBFFFFF510900004F
:1022400010B50C7824020443024B9847A4B2024B09
:102250005C8010BDE5210000000C004010B50400BA
:10226000064B9847064B1C70064B5C882405240FD0
:10227000054B98472000054B984710BD11090000F9
:10228000020C0040000C0040510900002921000010
:1022900030B5D378002B1ED11378802B04D01B06C9
:1022A00080246402234300E0002354780225AC43D9
:1022B0000AD19478002C03D18024A402234302E0A5
:1022C000C024E402234341605478013C012C12D81D
:1022D000184C23400FE041600B041B0CA024E405C4
:1022E000234383620B0CD024240623438362D378D8
:1022F000002B18D01CE00C04240CA025ED052C4369
:102300001C4384620C0CD0252D062C431C43846294
:10231000D478002C0CD15B0305D59378012B01D127
:10232000816100E041615378013B012B00D881605D
:1023300030BDC046FFFFFBFF10B503000A00C10916
:102340000020002904D15809C00105498C46604489
:102350001F210B401E399940024B984710BDC046C3
:1023600000440041912200007047C04610B5054B63
:102370009847054B9847054B9847054B9847054BA1
:10238000984710BD191E0000810900006923000054
:10239000FD0A000069230000931C9B001950022ACB
:1023A00004D1027E1023134303760BE0032A04D1E9
:1023B000027E20231343037604E001239340027E30
:1023C000134303760020704770B58000144BC55846
:1023D0002B689C7B2B7E1C406B7E1C40E30705D545
:1023E0002800AB68984701232A689373A30705D593
:1023F0002800EB68984702232A689373E30605D503
:1024000028002B69984710232A689373A30605D5E3
:1024100028006B6998472B6820229A7370BDC046CC
:10242000D007002010B50020014B984710BDC046D2
:10243000C923000010B50120014B984710BDC046CC
:10244000C923000010B50220014B984710BDC046BB
:10245000C923000030B585B001AA0B4B32CB32C284
:10246000019B98420AD0029B984205D00023039A10
:10247000824205D1023302E0012300E00023DBB2F7
:10248000180005B030BDC046F88A0000F0B54F46D0
:102490004646C0B487B004000E0090460800924B38
:1024A00098478146914D29000C31032205A8904F91
:1024B000B84729001031062203A8B8470023A360BB
:1024C000E36023616361237663764B469A00894B10
:1024D000D450266043469B78082B04D117204A46E7
:1024E000D20700D4FBE0237133880520DB0700D539
:1024F000F5E0F37B1730DB0600D5F0E033889B076F
:1025000000D5ECE043461B7C002B0CD002A9012334
:102510008B700022CA704246127E0A704B7043468E
:10252000187D754B984743461B7F002B0DD002A9A1
:1025300001238B700022CA704246526A0A704B70A7
:1025400043461B6AD8B26C4B98476C490B6A4A46A3
:10255000520003A8125A13430B6243469B78082B80
:1025600006D10B6A4A4601325200125A13430B62DB
:1025700001A943461B780B7005AB4A469D5C2800B9
:102580005F4B984728005F4B9847434698789B7964
:1025900002001A43434618899B8803431A431000DC
:1025A00043465B78002B02D080231B01184321682F
:1025B0007F22CB7B9343FCD130804346587B431E24
:1025C0009841800043469B7B002B01D00123184398
:1025D00021687F22CB7B9343FCD1FF3333710028EA
:1025E00005D021687F22CB7B9343FCD17071434699
:1025F000987ADB7A002B01D01023184343461B7BCB
:10260000002B01D02023184321687F22CB7B9343EA
:10261000FCD1B07122687F21D37B8B43FCD123791D
:10262000042B05D0082B41D01720002B57D124E0D4
:102630007F21D37B8B43FCD128334246D35C337458
:1026400021687F22CB7B9343FCD129334246D35C64
:10265000337521687F22CB7B9343FCD12A334246DA
:10266000D35C337621687F22CB7B9343FCD12B3321
:102670004246D35C7376002031E07F21D37B8B43CD
:10268000FCD143461B8D338221687F22CB7B934351
:10269000FCD143465B8D338321687F22CB7B934300
:1026A000FCD143469B8D7383002018E07F21D37BB0
:1026B0008B43FCD143469B6A336121687F22CB7BED
:1026C0009343FCD14346DB6AB36121687F22CB7B15
:1026D0009343FCD143461B6BF3610020FFE707B037
:1026E0000CBC90469946F0BD55240000F88A0000C5
:1026F00015350000D00700203923000000040040F9
:1027000041220000B521000002687F21D37B8B436A
:10271000FCD10379042B05D0082B09D00020002B15
:1027200008D102E0107CC0B204E0108A80B201E05F
:102730001069FFE77047C04630B504687F25E37B2A
:10274000AB43FCD10379042B05D0082B14D0172000
:10275000002B19D107E01720012915D8D2B2611832
:102760000A76002010E0172001290DD892B20C3112
:1027700049000A53002007E01720012904D8063138
:1027800089000A510020FFE730BDC046FEE7C04681
:1027900070B52E4B2E4A9A4203D02E4B2B4A9A42AA
:1027A00004D32D4B2D4A9A4210D31EE02C4A294BBC
:1027B00003339B1A9B0801339B00002223482449C2
:1027C0008C58845004329A42FAD1EAE7254A224BC7
:1027D00003339B1A9B0801339B0000221F480021F2
:1027E0001418216004329A42FAD11F4AFF211F4B6C
:1027F0008B439360FD3990235B001D4AD1501D48E7
:10280000C3780324A34302221343C370C3780C2666
:10281000B34308210B43C370174B987B3025A84363
:102820000500202028439873987BB0430143997397
:10283000997BA1430A439A73104A516880230B4342
:1028400053600F4B98470F4B9847FEE7000000205E
:10285000588E0000A8000020F0080020A8000020EA
:1028600004000020AC00002000ED00E000000000AB
:10287000007000410050004100480041004000410C
:10288000C9340000C1330000F0B5474680B40C00E5
:10289000904600280DD1002A0EDD8F18084E094DF4
:1028A000306821002B6898470134A742F8D1404690
:1028B00003E00120404200E0002004BC9046F0BD4F
:1028C000E4070020DC070020F0B5474680B40E0086
:1028D00015000138022811D8002A12D000240C4B10
:1028E00098460C4F43461868315D3B68984700286E
:1028F00009DB0134A542F5D1200006E00120404269
:1029000003E0002001E00120404204BC9046F0BDFD
:10291000E4070020E00700200300064A1268002AAE
:1029200002D10549034A1160024A1068C3181360B6
:102930007047C04608010020F028002001204042D6
:102940007047C04680239B014B6000207047C04603
:10295000012070470020704710B50D4A0023137105
:102960005371138058215352130040320021996053
:1029700004339342FBD1074B9847074B9847074BCB
:102980009847074B9847074B9847074B984710BD08
:10299000E8070020352C0000312B0000C929000079
:1029A000BD290000192A0000712B000002308000B0
:1029B000014BC1507047C046E80700200022014B80
:1029C0001A6070470C010020034B00221A708D2101
:1029D0005A548D315A54704710010020002806D0F7
:1029E0008D300C4BA833FF33984201D30FE00948D8
:1029F0000378002B0CD1074AA832FF3202E003789B
:102A0000002B05D18D309042F9D3002000E000204A
:102A10007047C04610010020F0B5094B0233002278
:102A200001277F42064C012600251F80D000015D52
:102A3000B14301551D7101320833642AF5D1F0BD4F
:102A4000B802002070B50B4A02320023094E1488E8
:102A5000844209D1DC00A45DA407E40F8C4203D1B9
:102A6000DD000448401904E001330832642BEED144
:102A7000002070BDB80200200378DB0704D40123D6
:102A80005B424380002383717047C04610B5034BFF
:102A90009847002801D0024B984710BD452A0000F6
:102AA000792A000010B5027B0023062A08D182682B
:102AB0005179D378107900021843024B98470123CB
:102AC000180010BD8D2A000010B5027B0023002ADB
:102AD0000FD083681B78002B02D0012B04D007E0B5
:102AE000054B9847030004E0044B9847030000E0BF
:102AF0000023180010BDC046692C0000A52A000064
:102B000070B509490B1D4031002401251A78002AAF
:102B100002D0013A1A702C0006338B42F6D1002CF9
:102B200001D0024B984770BDD8050020052E00004B
:102B300010B50A4A131D4032002119700633934222
:102B4000FBD1074B64229A6000221A73054A1A616E
:102B500005490020054B984710BDC046D805002008
:102B600014060020012B0000C92A0000AD29000036
:102B70000023024A1370024A13607047280600209F
:102B80002C060020F0B583B0019000240020104DE9
:102B90008626872712E00378112B0FD1825DC35D53
:102BA0001B021343013B9BB28355190A0200863274
:102BB00051700124002B01D113330370A847002862
:102BC000E9D1002C02D00198024B984703B0F0BD28
:102BD000DD290000052E0000F0B583B0019000242F
:102BE0000020124D8626872715E00378162B12D178
:102BF000825DC35D1B021343013B9BB28355190ADF
:102C00000200863251700124002B04D11733037067
:102C100010226E33C254A8470028E6D1002C02D0FF
:102C20000198034B984703B0F0BDC046DD29000072
:102C3000052E00000022074B1A60074B32219960D5
:102C40001A7306491961064B0A2199601A73054ADD
:102C50001A6170474406002030060020D92B00007E
:102C600048060020852B000070B5027B0023032A54
:102C700015D10DE00378162B0DD1027B6B789A42AB
:102C800009D117230370AA787133C254873B06E039
:102C900085680020034CA0470028EBD100231800D2
:102CA00070BDC046DD29000070B50E4B98470E4B35
:102CB000984700220D4B1A7001320D4B1A700D4EC1
:102CC0000D4D1F2408210220B0470120A8472040B5
:102CD0000828F7D12E210438064CA047A0210C204B
:102CE000A04770BDC92F0000E53000005D06002040
:102CF0005C060020113200001531000010B5044BB5
:102D00009847044B9847044B9847044B984710BD8D
:102D10009D2D0000A92F0000A92C000059290000BA
:102D200030B5154B1D68002D1ED0826869688A4237
:102D300005D32C0009E05968914205D901E02B0028
:102D40000024891A596004E01C00521A2368002BE1
:102D5000F1D14260002C03D023680360206009E0B9
:102D60000560054B186005E000230360836843603D
:102D7000014B186030BDC0466006002010B5044A03
:102D800013780133DBB213700248034B984710BD30
:102D90004408002010270000CD33000010B50024A7
:102DA000064B1C700648074B9847074B9847074847
:102DB000074B9847074B1C6010BDC04644080020D5
:102DC0007D2D0000BD3400003934000010270000C4
:102DD000CD33000060060020094B1B68002B09D092
:102DE000834202D108E0984208D01B68002BFAD138
:102DF000002004E0002002E0012000E001207047F4
:102E00006006002010B50400034B9847002802D14B
:102E10002000024B984710BDD92D0000212D000045
:102E200010B5014B984710BDA134000010B5014BFF
:102E3000984710BD5934000010B50248024B98471E
:102E400080B210BD7C08002009270000034B102130
:102E50001A6811735A7E8A435A7670477C0800209C
:102E600010B50A4C20680A4B98470A4B1B5C1F227E
:102E70001A4001239340084A1360627E10231343D3
:102E80006376236810225A7310BDC0467C08002068
:102E900055240000108B000000E100E010B5020096
:102EA00000210248024B984710BDC0467C08002014
:102EB00039270000F8B54F464646C0B42D4A0023D6
:102EC00013709370002193809171138151709172EE
:102ED000D1721173917351731174536193611177AE
:102EE0001362536213859385013B5385224C23491A
:102EF0002000234B9847002222492000224DA8475A
:102F0000022222492000A8472068214B9946984771
:102F1000204B98461B5C1F273B4001252A009A4006
:102F20001D4E3260627E01231343637623685D7316
:102F30001800C84743461B5C3B409D403560627E9D
:102F40001023134363762268102353737F21D37BAE
:102F50008B43FCD1118802330B43138000200F4BAD
:102F600098470F490F4B9847C0B20CBC9046994602
:102F7000F8BDC046480800207C080020002C004214
:102F80008D2400002D2E000099230000212E00002A
:102F900055240000108B000000E100E02921000012
:102FA00040420F00595E00007047C04610B5012234
:102FB000034B1A61034B1B68002B00D0984710BDD0
:102FC000001800406406002030B585B0344A002364
:102FD000537093703F211170324C21706370A37055
:102FE000012269464A708B700A703F202E4B984729
:102FF0002378DA090021002A04D15909C9012B4A92
:10300000944661441F2213401E3A10009840886184
:10301000274C227000236360A36023746374A2743E
:10302000E27423752332A35420001830183A00218B
:10303000204B984780235B02E3601F4BA3611F4B2B
:10304000A36201235B42E3621D4B23631D4B636359
:103050001D4D22001D4928001D4B98472A68D36941
:10306000002BFCD1136802252B43136001AC200018
:10307000184B98472023019380239B03636025729C
:10308000012363720022A272E37221000020124B1E
:103090009847002200211148114B984705B030BDD8
:1030A0009C080020A0080020F10B00000044004113
:1030B000A408002027350000404B4C0005005300B9
:1030C00005003E0005005200DC0800200018004208
:1030D000E1100000690B00007D0B0000AD2F000027
:1030E000510A000070B5094B1C00803480252D0268
:1030F000A561802252035A61A5204000044EB047CA
:1031000065610A20B047A56170BDC046004400411A
:10311000E508000070B582B00500EFF310835A4255
:103120005341019372B6BFF35F8F0022334B1A7085
:10313000019C334E013233493000334B984733689A
:1031400001211A7E0A42FCD01A7ED20702D58022C3
:1031500015439D6202211A7E0A42FCD004211A7E88
:103160000A42FCD01A7E520712D55A8B520701D55B
:1031700004225A83224A9279012A05D19A6AD205F9
:10318000D20D22490A8003E09A6AD2B21F490A800E
:1031900001211A7E0A42FCD01A7ED20701D50022F4
:1031A0009A6202211A7E0A42FCD004211A7E0A4247
:1031B000FCD01A7E002552070ED55A8B520701D536
:1031C00004225A830E4A9279012A03D19D6AED05A1
:1031D000ED0D01E09D6AEDB200220A4908480A4B54
:1031E0009847FF23234205D00122044B1A70BFF3F6
:1031F0005F8F62B6E8B202B070BDC0460800002022
:10320000DC080020A00800208D1300009808002092
:10321000F0B583B006000C00EFF310835A4253411F
:10322000019372B6BFF35F8F0022344B1A70019D79
:10323000334F013233493800334B98473B68012103
:103240001A7E0A42FCD01A7ED20702D5C02216434B
:103250009E6202211A7E0A42FCD004211A7E0A4292
:10326000FCD01A7E520712D55A8B520701D5042280
:103270005A83234A9279012A05D19A6AD205D20D3E
:1032800022490A8003E09A6AD2B220490A800121C9
:103290001A7E0A42FCD01A7ED20700D59C62022117
:1032A0001A7E0A42FCD004211A7E0A42FCD01A7E01
:1032B000520712D55A8B520701D504225A83104A5D
:1032C0009279012A05D19B6ADB05DB0D0F4A138039
:1032D00003E09B6ADBB20D4A1380002209490848CB
:1032E000094B9847FF232B4205D00122034B1A704C
:1032F000BFF35F8F62B603B0F0BDC0460800002088
:10330000DC080020A00800208D1300009808002091
:10331000F8B51B4B98471B4B98471B4B98471B4BCB
:1033200098471B4B98471B4B98471B4B98471B4E86
:1033300001273770BFF35F8F62B6194C0F221C2133
:103340002000184DA847200010380F220D21A84753
:10335000200008380F221721A847134B98474C3CF0
:103360002000124B98473770BFF35F8F62B605227B
:103370000F4920000F4B98470F48104B9847F8BD56
:103380006D230000A5080000FD2C00006905000069
:10339000E5070000550800001501000008000020A6
:1033A000480700201902000029020000FD05000066
:1033B0006007002015190000148B00001D3F00005D
:1033C00010B5014B9847FEE71133000010B5041CFF
:1033D000134B9847134B1A7862438118124B59606C
:1033E0005968090C59605B68002B07D00E4B59686F
:1033F0000132801818810D4B984704E082180A4B5F
:103400001A810B4B9847084B1B89632B02D86433F6
:10341000054A1381044B1889064B984710BDC046D6
:10342000392E0000E8080020680600204D2E00001C
:10343000612E00009D2E000008B50022034B1A707B
:10344000034B9847034B187008BDC0466806002020
:10345000B52E0000E808002008B50E4B5B68002B75
:1034600007D00C4A5368013B5360002B01D10A4B33
:103470009847084A13780133DBB21370074A127871
:103480009A4206D8034B00221A70DB68002B00D04A
:10349000984708BD68060020612E0000E80800205B
:1034A00008B5044B9847044B1B69002B00D0984784
:1034B00008BDC0464D2E000068060020014B186173
:1034C0007047C046680600200E4B70B500251E00F0
:1034D0000D4CE41AA410A54204D0AB00F358984751
:1034E0000135F8E705F0A8FC084B00251E00084C44
:1034F000E41AA410A54204D0AB00F3589847013554
:10350000F8E770BD448E0000448E0000448E000039
:10351000488E0000002310B59A4203D0CC5CC454FE
:103520000133F9E710BD03008218934202D01970ED
:103530000133FAE77047F0B58BB014001D1E1299E5
:1035400006DA802424061B191D0014002D2300E038
:1035500000230B702023149E03229E43462E07D087
:103560003300453B59424B411099013ACB18109317
:1035700009AB049308AB0393139B00920293109B37
:10358000220001932B0000F0E9FE0700472E02D134
:10359000119BDB072DD5109BFB180793462E14D1EA
:1035A0003B78302B0CD1002200232000290002F0B0
:1035B000D9FD002804D10123109A9B1A139A136095
:1035C000139B079A1B68D31807930022002320003F
:1035D000290002F0C7FD3022002802D0079B099382
:1035E00007E0099B0799994203D9591C09911A7060
:1035F000F7E73800099B159ADB1B13600BB0F0BD91
:10360000F7B52B2307000C000270861C002901DA95
:103610002D234C427B70092C1CDD6B46DD1D2000E8
:103620000A2102F089FD013D3031297020000A2174
:1036300002F09CFC041E092CF1DC013D30342C709E
:103640006B4607333000AB4209D92B780135337014
:103650000136F5E73023E4183370B01C7470C01BDA
:10366000FEBD0000F0B595B00C000A920B931A9DB8
:10367000099001F0C1FD036818000D9300F012FDE0
:103680000023129323680E900C930C99277E2B68CD
:103690000722C90501D59B1800E0073393431A00A0
:1036A00008322A601A685B68A264E3640122E56C50
:1036B000A66C6B005B080F935242C04B30000F9911
:1036C00004F09EFF002819D10122BC4B5242300069
:1036D0000F9902F057FD002810D10022002330007E
:1036E000290002F045FD002803D023002D2243339A
:1036F0001A70B34D472F0ED8B24D0CE032002B009C
:103700003000290004F07CFF002800D19AE1AE4D82
:10371000472F00D8AD4D03230C9A236101339A4300
:103720002260002642E0672F00D193E1472F00D1AD
:1037300090E10C9A0021134312AA059211AA039258
:10374000232223600691019308A96368521802920C
:10375000009332002B0004970998FFF7ECFE20231A
:103760003A0005009A43472A00D18EE11199652F4E
:1037700000D996E1200001393A0050301191FFF74D
:103780003FFF129A060083182361012A00DD85E1BC
:103790002268D20700D581E1232308AA9B181B7851
:1037A000002B03D023002D2243331A700B9B13AA46
:1037B000009321000A9B099800F0A4F9431C02D150
:1037C000012040429BE12268530501D4236964E053
:1037D000652F00D8CCE0A06CE16C0022002302F041
:1037E000C1FC00282CD00123794A0A9909980B9D25
:1037F000A847431CE4D0119B129A934208DB23682C
:10380000DB0705D4236800259B0700D50FE113E1F2
:103810000B9D0E9B0D9A0A990998A8470025431CF9
:10382000CED0129B013B9D42ECDA220001231A32DA
:103830000A9909980B9EB047431CC1D00135F0E7A7
:10384000119B002B2BDC0123614A0A9909980B9EDE
:10385000B047431CB4D0119B002B05D1129B002B09
:1038600002D12368DB07CDD50B9E0E9B0D9A0A99DA
:103870000998B0470026431CA2D0119B5B429E4290
:103880000ADA220001231A320A9909980B9FB847D5
:10389000431C95D00136F0E7129B2A00ACE0A36DE3
:1038A000129E9E4200DD1E00002E05DC00230C93BC
:1038B000F343DB170F9315E033002A000A990998A8
:1038C0000B9FB847431CF1D17AE7220001231A323B
:1038D0000A9909980B9FB847431C00D170E70C9BCD
:1038E00001330C930F9BA26D0C993340D31A99426C
:1038F000EBDBAE18119B129A93420DDB2368DB07BA
:103900000AD4129B119AED18AD1B9B1A9D4200DD43
:103910001D00002D09DC11E00E9B0D9A0A990998F3
:103920000B9FB847431CECD14AE72B0032000A99A1
:1039300009980B9EB047431C00D141E7EF43FB17AA
:1039400000260C930AE0220001231A320A990998F2
:103950000B9FB847431C00D132E70136119A129BE6
:103960000C999B1A2A000A409B1A9E42EBDB49E7FE
:10397000129B012B02DC01231A4245D001232A00AD
:103980000A9909980B9FB847431C00D118E70E9B72
:103990000D9A0A9909980B9FB847431C00D10FE76D
:1039A000A06CE16C0022002302F0DCFB002801D0B7
:1039B00000251AE0129B6A1C013B26E0FFFFEF7F07
:1039C0003C8B0000388B0000448B0000408B0000D3
:1039D000488B0000220001231A320A9909980B9F94
:1039E000B847431C00D1EBE60135129B013B9D42D9
:1039F000F0DB2200330050320A9909980B9DA8474A
:103A0000431C00D0FEE6DBE62A000A9909980B9DCC
:103A1000A847431CEDD1D3E62200012319320A99AD
:103A200009980B9EB047431C00D1C9E60135E368F5
:103A3000139A9B1A9D42EFDB139BE06898425EDA73
:103A400018005CE080236268DB00511C00D06AE64D
:103A5000073202E0002A02D10122626069E60C9975
:103A600008A80B430021069112A9059111A9039101
:103A7000232109182360019300922B0004970291DF
:103A800032000998FFF757FD0500119BDA1C02DB95
:103A9000626893421CDD023FFFB267E60133236197
:103AA0007AE6662F15D16368002909DD2161002BB4
:103AB00002D12268D2071ED50133591821611AE0BC
:103AC000002B03D101222168114213D09A1C11E06E
:103AD0006727119B129A934206DB22682361D20763
:103AE00009D50133236106E00121002B01DC4918CF
:103AF000C91A8A182261119B0026A3654CE615B0ED
:103B0000F0BDC046F7B5170001938A680B690090B5
:103B10000C00934200DA130022003B60433212781B
:103B2000002A01D001333B6023689B0602D53B6825
:103B300002333B60062523681D401ED0230043331B
:103B40001B785A1E9341226892061CD53020E1183A
:103B50004331087021005A1C45310978A2184332BC
:103B6000023311700FE022000123193201990098ED
:103B7000089EB047431C0ED00135E3683A689B1A93
:103B80009D42F0DBDAE72200019943320098089D5C
:103B9000A847431C02D10120404220E006232068B0
:103BA000E1683A6803400025042B03D18D1AEB43EA
:103BB000DB171D40A3682269934201DD9B1AED18B3
:103BC0000027BD420AD0220001231A320199009831
:103BD000089EB047431CDED00137F2E70020FEBD4F
:103BE000F0B58BB006920A00433207930590049219
:103BF0000A7E0C00109B6E2A00D1ABE011D8632A1C
:103C000022D009D8002A00D1B5E0582A00D0C5E05A
:103C100045310A70814A4FE0642A1DD0692A1BD0C1
:103C2000BCE0732A00D1AAE009D86F2A29D0702AF3
:103C300000D0B3E0202209680A43226037E0752AE9
:103C40001FD0782A33D0A9E00E001A684236111D21
:103C5000196013683370A4E021681A68080606D456
:103C6000490604D5111D19600023D55E02E0111D1F
:103C700019601568002D3BDA2D23049A6D421370EC
:103C800036E021681A68080606D4490604D5156886
:103C9000111D1960ADB202E0111D196015685F4B6E
:103CA000227E039308276F2A1DD00A271BE02200DB
:103CB0007821453211705A4A19680392081D22680A
:103CC00018600D68100602D4500600D5ADB2D307B7
:103CD00002D520231A4322601027002D03D1202370
:103CE00022689A4322602300002243331A7002E0C4
:103CF0000A274A4B03936368A360002B09DB042265
:103D0000216891432160002D05D1049E002B11D024
:103D10007BE0002D79D0049E2800390002F022F9C2
:103D2000039B013E5B5C28003370390002F094F87D
:103D3000051EF1D1082F09D12368DB0706D563687A
:103D40002269934202DC3023013E3370049B9B1BAB
:103D500023612BE009681A68080607D4490605D5CF
:103D6000111D19601368A28A1A8004E0111D1960E0
:103D7000136862691A600023049E236116E01A68C2
:103D8000111D1960166800216268300001F0A6FA62
:103D9000002801D0801B6060636803E02600423683
:103DA0003270012323610023049A1370079B09AA30
:103DB00000932100069B0598FFF7A4FE431C02D147
:103DC0000120404227E02369320006990598079DAB
:103DD000A847431CF4D0236800259B070FD4099BF8
:103DE000E068984217DA180015E022000123193222
:103DF00006990598079EB047431CE1D00135E3685A
:103E0000099A9B1A9D42F0DBE9E72600039B4236A4
:103E10001B7833708EE70BB0F0BDC0464A8B0000B4
:103E20005B8B00000FB40B4B13B51C68002C05D046
:103E3000A369002B02D1200001F04AF905AB049AD6
:103E4000A1682000019301F011FE16BC08BC04B06B
:103E50001847C0466C00002070B505000E00002811
:103E600004D08369002B01D101F032F9AB69AC6851
:103E7000002B02D1280001F02BF9254B9C4201D1E7
:103E80006C6808E0234B9C4201D1AC6803E0224BF4
:103E90009C4200D1EC68A3891B0702D52369002B43
:103EA00011D12100280000F05DF900280BD001207D
:103EB00040422BE0013B0136A360002B08DB236866
:103EC0005A1C226019703178A3680029F2D10BE0E6
:103ED000A269934201DB0A29F1D12200280000F0F7
:103EE000E9F8431CEFD1E2E7013BA360002B08DABD
:103EF00022000A31280000F0DDF8431CD7D00A2048
:103F000004E00A2023685A1C2260187070BDC04665
:103F10007C8B00009C8B0000BC8B000010B5034B19
:103F200001001868FFF798FF10BDC0466C00002024
:103F30004A424A41802310B55200DB0000F002F8EB
:103F400010BD0000F0B51D00514B85B01E68040087
:103F50000F000092002E05D0B369002B02D1300073
:103F600001F0B6F84B4B9C4201D1746808E04A4B13
:103F70009C4201D1B46803E0484B9C4200D1F468F4
:103F8000009B022B05D0012B00D97CE0002D00DA2C
:103F900079E02100300001F02DF8616B002908D094
:103FA00023004433994202D0300001F09BFC0023EF
:103FB00063630023A3616360A3891B0603D52169A2
:103FC000300001F08FFCA289354B1340A381009B88
:103FD000022B21D003AB02AA2100300001F010F91E
:103FE000A3891843A081002D01D1029D01E0002F7B
:103FF00025D1280001F068F90195071E1AD1029B0E
:104000000193AB4202D10120404206E0019801F049
:104010005BF9071E0ED1F6E700200222A3891343A5
:10402000A3810023A360230047332360236101237E
:1040300063612AE08022A389019D1343A381B369B0
:10404000002B02D1300001F043F8009B012B03D17B
:10405000A389009A1A43A2810823A28927601340EA
:1040600027616561181E0CD001231A400023101E21
:10407000984204D06D42A360A561180005E0A560D8
:1040800003E0A36001E00120404205B0F0BDC0465E
:104090006C0000207C8B00009C8B0000BC8B00001F
:1040A0005CF3FFFF0023C25C0133002AFBD1581EE2
:1040B00070470000F8B505000F001400002804D078
:1040C0008369002B01D101F003F8234B9C4201D1FD
:1040D0006C6808E0214B9C4201D1AC6803E0204BA6
:1040E0009C4200D1EC68A369A360A3891B070AD591
:1040F0002369002B07D023682269FEB2981A6369EE
:1041000098420FDB08E02100280000F02BF800287F
:10411000F1D0012040421DE02100280000F06AFF9C
:104120000028F6D1A3680130013BA36023685A1C24
:1041300022601F706369984205D0A3893000DB07B5
:1041400008D50A2E06D12100280000F053FF0028D0
:10415000DFD13000F8BDC0467C8B00009C8B000096
:10416000BC8B0000364B70B51D6806000C00002D9E
:1041700005D0AB69002B02D1280000F0A9FF314B1C
:104180009C4201D16C6808E02F4B9C4201D1AC6885
:1041900003E02E4B9C4200D1EC680C22A35E9AB245
:1041A000110723D4D10607D4092201203260373207
:1041B0001343A381404242E0530713D5616B0029AA
:1041C00008D023004433994202D0300001F08AFB2A
:1041D000002363632422A3899343A38100236360A4
:1041E000236923600822A3891343A3812369002B39
:1041F0000BD1A023A2899B001340802292009342FE
:1042000003D02100300001F021F80123A2891340DE
:1042100005D00023A36063695B42A36103E09207BA
:1042200000D46369A36000202369834207D10C2274
:10423000A35E1A0603D540221343A381013870BD43
:104240006C0000207C8B00009C8B0000BC8B00006D
:10425000F0B503690C6989B00700059100269C42FE
:1042600079DC0B00013C1433A50003935B19049324
:104270000300143302935D19049B28681B68591CC2
:10428000019301F0E9FD0190B04233D0039B029805
:104290009C460696634604CB9C46019B91B25943CB
:1042A000120C5A4389190B0CD3180793069A1E0C4B
:1042B000038889B29B1802685B1A110C6A46928BBC
:1042C0008A1A1914521811149BB21204134308C00D
:1042D000049B06916345DDD22B68002B0AD1029B1B
:1042E000043DAB4201D33C6104E02B68002BFAD1C2
:1042F000013CF4E70599380001F00CFA002829DBAD
:104300000020019B02990133039A019340CA0B8854
:104310001818B3B2C31A0868360C000C801B1D14A1
:10432000451928149BB22D042B4308C1049B9342CA
:10433000ECD2029AA300D3181A68002A0AD1029A72
:10434000043B9A4201D33C6104E01A68002AFAD186
:10435000013CF4E7019E300009B0F0BDF0B5160055
:104360001F00446A9DB00490259D06960797002C77
:1043700008D1102000F0A8FF049B586244608460BC
:104380000460C460049B5B6A196800290BD05A68FA
:10439000012393404A608B60049800F0E2FF002202
:1043A000049B5B6A1A60079B002B05DA01232B60D4
:1043B0007B005B08079301E000232B60079CC84B40
:1043C000220019931A409A4219D1C64B249A1360BD
:1043D000069AC54B002A02D1240300D1C34B269A6A
:1043E0001800002A01D100F07DFDD978DA1C0029DF
:1043F00000D00532269918000A6000F073FD069E71
:10440000079F002200233000390001F0ABFE051E9B
:104410000ED00123249A1360B54B269A1800002A67
:1044200001D100F05FFDB34A26990A6000F05AFD01
:104430001AAB01931BAB009332003B00049801F0D0
:10444000EFF9630005905B0D09D03A03AA4C120BFB
:104450001443AA4A300021009E1817951AE01A9BAF
:104460001B9A9E18A64BF318202B08DDA54A069828
:10447000B218D0404022D31A9C40204303E02022AF
:104480000698D31A984004F053F901239E4C013E3C
:104490000919179300229D4B03F05EFD9C4A9D4B2A
:1044A00003F0E0FA9C4A9D4B02F08CFB04003000C4
:1044B0000D0004F0FBF89A4A9A4B03F0D3FA02007D
:1044C0000B002000290002F07DFB04000D0004F029
:1044D000B7F80022039000232000290001F048FED5
:1044E00000280DD0039804F0E1F802000B00200032
:1044F000290001F037FE43424341039AD31A039344
:1045000001231693039B162B11D88749DB00C9188A
:1045100008684968069A079B01F03EFE002805D00E
:10452000039B013B03930023169300E016901A9B14
:104530009E1B00230B93013E0C9604D50C9B5B4203
:104540000B9300230C93039B002B08DB039A0C9B1B
:10455000944663440C9300231192089307E00B9B4D
:10456000039A9B1A0B935342089300231193229BA7
:104570000125092B25D8052B02DD0025043B2293BC
:10458000229B981E032824D801F05CFC060E02042E
:10459000012302E0012308E000231093239B002B5A
:1045A00020DD1F000A9321E00023239A1093039B30
:1045B0009F187B1C0A930123FA18002A16DD1300AA
:1045C00014E0012700237F42229310950A971233AB
:1045D00005E0012701237F4210930A97113300223F
:1045E000239203E001273B000A972397049A546A19
:1045F00000226260043211001431994204D86168CB
:10460000520001316160F6E76168049800F071FEC4
:10461000049B20605B6A1B680D930A9B0E2B00D9DC
:1046200081E1002D00D17EE1069B079C1493159437
:10463000039B002B31DD0F223B491340DB00CB18DD
:104640005C681B680E930F94039B02241D11EB06FC
:104650000AD514981599354B15401A6A5B6A02F011
:10466000DDFD069007910134304E002D0ED0012360
:104670001D4208D00E980F99E4183268736803F051
:10468000F1F90E900F916D100836EEE70E9A0F9B20
:104690000698079902F0C2FD4CE0039B02245D429C
:1046A000002D49D0149815990F231F4A2B40DB0089
:1046B000D3181A685B6803F0D5F9002306900791B8
:1046C0001A4E2D11002D33D00122154205D0A41809
:1046D0003268736803F0C6F901236D100836F1E7FC
:1046E0000000F07F0F270000758B00006C8B00002E
:1046F000488B0000498B00000000F03F01FCFFFFE9
:104700003204000012040000000010FE0000F83F18
:1047100061436F63A787D23FB3C8608B288AC63FC7
:10472000FB799F501344D33FE88B0000B08C00000E
:10473000002B01D006900791169B002B1DD0069DE3
:10474000079E0022C74B2800310001F011FD002810
:1047500013D00A9B002B10D0002F00DCDFE0039B5E
:104760003100013B0E930022BF4B280003F07AF981
:104770000134069007913E0002E0039B0A9E0E93CF
:10478000200003F093FF069A079B03F06BF90022C9
:10479000B64B02F017FAB64A12901391129C139D71
:1047A0009446139B634418931D00002E1CD1069859
:1047B00007990022AF4B03F0CFFB2200189B069015
:1047C000079101F0E9FC002800D054E2AA481399AF
:1047D000844661440B0006980799220001F0C8FC4A
:1047E000002800D03DE29AE0109A731EA349DB0036
:1047F000002A49D0CB181A685B680020A04902F053
:104800000DFD2B00220003F0A7FB129013910D9DCC
:104810000698079903F014FF040003F047FF020015
:104820000B000698079903F097FB01356B1E303497
:104830001C70129A139B0690079101F099FC0028B6
:1048400000D02EE3069A079B0020864903F084FBE4
:10485000129A139B01F08CFC002800D0C7E00D9B3E
:10486000EB1AB3425BDA1298139900227E4B03F0E5
:10487000F9F8002212901391069807997A4B03F0E9
:10488000F1F806900791C3E7C91822000868496843
:104890002B0003F0E7F80D9C12901391A5190698D0
:1048A000079903F0CDFE060003F000FF02000B00A5
:1048B0000698079903F050FB3036267001340690B5
:1048C00007910022A54222D16D4B1298139902F054
:1048D00079F902000B000698079901F05DFC0028A9
:1048E00000D084E0129A139B0020654903F034FB4A
:1048F00002000B000698079901F03AFC00280ED040
:104900006B1E1A78302A00D0CBE21D00F8E706981B
:104910000799554B03F0A6F806900791BFE7149B43
:10492000159C069307941B9B002B00DA81E0039AE9
:104930000E2A00DD7DE0D300504AD3185C681B6866
:1049400008930994239B002B15DA0A9B002B12DC99
:1049500000D088E1089809990022464B03F082F8BC
:10496000069A079B01F022FC0A9B08931E00002870
:1049700000D07BE182E10D9D069E079F089A099B6E
:104980003000390002F04AFC03F05AFE040003F044
:104990008DFE089A099B03F065F802000B003000B9
:1049A000390003F0D9FA220001356B1E30321A703B
:1049B0000D9B0A9AEB1A9A422ED102000B0002F0CC
:1049C00001F906000F0002000B000898099901F098
:1049D000CFFB00280FD10898099932003B0001F065
:1049E000C1FB002800D15EE2E30704D45BE20E9B2A
:1049F000039300E01D006B1E1A78392A08D10D9A26
:104A00009A42F7D1039A0D990132039230220A702B
:104A10001A7801321A7046E20022134B03F022F892
:104A20000022002306000F0001F09CFB0028A5D007
:104A300039E2109A002A44D0229A012A0BDC179AF4
:104A4000002A02D00F4A9B1802E036231A9A9B1ABA
:104A5000089D0B9C29E00A9B5D1E089BAB4213DB63
:104A60005D1B18E00000F03F0000244000001C40E7
:104A70000000C0FC000014400000C07CE88B000077
:104A80000000E03F33040000089B0895EA1A002567
:104A9000119B9B1811930A9B002B04DA0B9B0A9A1B
:104AA0009C1A002301E00B9C0A9B0B9A0121D2184F
:104AB0000B920C9A0498D3180C9300F0F2FC0600A9
:104AC00002E0089D0B9C109E002C0ED00C9B002B2E
:104AD0000BDD0C9A231E934200DD13000B9AE41A9F
:104AE000D21A0B920C9AD31A0C93089B002B20DD40
:104AF000109B002B17D0002D11D031002A000498F4
:104B000000F062FD059A01000600049800F0D2FC56
:104B100005990E90049800F024FC0E9B0593089BC9
:104B20005A1B06D000E0089A0599049800F04CFD45
:104B300005900121049800F0B4FC119B0890002B13
:104B400000D1C0E11A000100049800F03DFD229B55
:104B50000890012B17DC0025069BAB420ED1079B6A
:104B60001B03AB420AD1199B079A134206D00B9B39
:104B7000013501330B930C9B01330C93119B0120E6
:104B8000002B0DD000E00025089B089A1B690E93AE
:104B900003339B00D318586800F039FC2023181AFF
:104BA0000C9BC0181F23184009D001331B1A042B7B
:104BB00002DD1C23181A03E0042B08D018001C3057
:104BC0000B9B24181B180B930C9B1B180C930B9B13
:104BD000002B05DD1A000599049800F049FD0590A9
:104BE0000C9B002B05DD1A000899049800F040FD8D
:104BF0000890169B002B1DD00899059800F08AFD9F
:104C0000002817DA039B0A22013B0393059900232E
:104C1000049800F0BFFB109B0590002B00D159E1D8
:104C2000310000230A22049800F0B4FB0600002F94
:104C300037DC33E00A9B0A9F002B2ADC229B022BE5
:104C400027DD002F12D108993B000522049800F0BF
:104C5000A1FB08900100059800F05CFD00280DDC28
:104C600004E0089602E000231E000893239B0D9D9C
:104C7000DB4303930AE00E9B089603930D9B0D9A6A
:104C80005D1C31231370039B013303930A960026A6
:104C9000F3E0109B002B04D10D9DB5E0229B022B6D
:104CA000CFDC002C05DD31002200049800F0E0FC90
:104CB00006000A96002D12D07168049800F019FBC6
:104CC0003100040033690C319A1C92000C30FEF75D
:104CD00021FC01222100049800F0CAFC0A900D9BDF
:104CE0007D1E0B935B190E9308990598FFF7B0FA98
:104CF000310010900400059800F00CFD0A9A0500A0
:104D00000899049800F021FD01230C93C368303406
:104D10000700002B04D10100059800F0FBFC0C906B
:104D20003900049800F01DFB0C9B229A134308D114
:104D3000069A0133134204D1392C2AD0002D1CDCF1
:104D40001DE0002D06DB229B1D431BD10123069A8B
:104D5000134217D10C9B002B11DD059901220498F9
:104D600000F086FC0899059000F0D4FC002802DCD5
:104D700005D1E30703D5392C0BD0109C31340B9BA4
:104D80005D1C0FE00B9B5F1C0C9B002B0CDD392C7A
:104D900005D10B9B0B9A5D1C3923137057E03D0026
:104DA0000B9B01341C7068E00B9B0E9A3D001C703D
:104DB00093423CD000230A220599049800F0EAFAB5
:104DC0000A9B05909E4208D1310000230A220498D4
:104DD00000F0E0FA06000A900DE0310000230A22FC
:104DE000049800F0D7FA002306000A220A990498D2
:104DF00000F0D0FA0A900B9776E700230A22059973
:104E0000049800F0C7FA059008990598FFF720FA72
:104E10000D9B3030287001350400EB1ABB42ECDBEF
:104E20003D1E00DC01250A9600260D9B5D190599A3
:104E30000122049800F01CFC0899059000F06AFC1F
:104E4000002804DC13D1E30701D410E01D006B1E21
:104E50001A78392A08D10D9A9A42F7D1039B013367
:104E600003933123137008E001321A7005E06B1EC2
:104E70001A78302A01D11D00F9E70899049800F04A
:104E800070FA0A9B002B0ED0002E05D09E4203D054
:104E90003100049800F065FA0A99049800F061FA6C
:104EA00001E00E9B03930498059900F05AFA002341
:104EB0002B70039B249A01331360269B0D98002BC3
:104EC00010D01D600EE0229B012B00DC43E6119DFB
:104ED000012065E6002F00DDDEE6229B022B00DCD0
:104EE000DAE6AEE61DB0F0BDF7B58A8905000C0024
:104EF00013075AD44B68002B02DC0B6C002B19DD16
:104F0000E76A002F16D000232E682B6080235B01F8
:104F10001A4001D0606D14E00123216A2800B847CF
:104F2000431C0ED12B68002B0BD01D2B01D0162B50
:104F300002D12E6000205AE04022A3891343A381AE
:104F400055E0A3895B0706D56368C01A636B002B25
:104F500001D0236CC01A00230200216A2800E76AEE
:104F6000B847A389421C06D129681D293AD8204A8E
:104F7000CA40D20736D50022626022692260DB0473
:104F800005D5431C02D12B68002B00D16065616BF5
:104F90002E600029CED023004433994202D028004D
:104FA00000F0A0FC0020606321E00F69002FC1D059
:104FB0000B680F60DB1B01930023920700D14B6944
:104FC000A36003E0019B3F181B1A0193019B002B78
:104FD000B0DD019B3A00216A2800A66AB04700288C
:104FE000F0DCA389402201201343A3814042FEBD8F
:104FF000010040200B6970B505000C00002B01D1A9
:1050000000201CE0002804D08369002B01D100F0AF
:105010005FF80B4B9C4201D16C6808E0094B9C4245
:1050200001D1AC6803E0084B9C4200D1EC680C2233
:10503000A35E002BE4D021002800FFF755FF70BDD0
:105040007C8B00009C8B0000BC8B000010B50249DB
:1050500000F0B0F810BDC046F54F0000002310B5B9
:10506000040003604360836081814366C281036101
:1050700043618361190008225C30FEF754FA054B46
:1050800024626362044BA362044BE362044B236318
:1050900010BDC046C95C0000F15C0000295D000045
:1050A000555D000070B568254B1E5D430E0029005C
:1050B000743100F05DFC041E08D000212A0001605C
:1050C00046600C30A0606832FEF72DFA200070BDFB
:1050D000836913B50400002B28D18364C36403657E
:1050E000134B144A1B6882620193984201D1012339
:1050F0008361200000F020F86060200000F01CF8C0
:10510000A060200000F018F80022E0600421606830
:10511000FFF7A4FF01220921A068FFF79FFF0222E9
:105120001221E068FFF79AFF0123A36113BDC04677
:10513000348B00004D500000F8B51D4B06001D6873
:10514000AB69002B02D12800FFF7C2FF4835AC68DD
:105150006B68013B05D40C22A75E002F10D0683489
:10516000F7E72B68002B01D02D68F0E70421300011
:10517000FFF798FF28600028F6D10C23336016E073
:10518000012320005B42E3810233A381676627602D
:10519000A760676027616761A7615C3008223900FA
:1051A000FEF7C1F920006763A763A764E764F8BD51
:1051B000348B0000F7B50400070000260191483445
:1051C000002C16D06368A5680093009B013B0093F8
:1051D0000DD4AB89012B08D90E22AB5E013304D06C
:1051E00029003800019B984706436835EDE724689D
:1051F000E6E73000FEBD0000004870477000002068
:1052000070B50E001D000E23C95E90B01400002979
:1052100006DA00232B60B3891B060FD540230FE06D
:1052200001AA00F0C3FD0028F3DBF023029A1B0261
:105230001340054A9B185A4253412B608023DB00E0
:105240000020236010B070BD00E0FFFFF7B502261C
:105250008B8905000C00334210D101AB6A46FFF781
:10526000CFFF00990700280000F082FB00280CD136
:105270000C22A35E9A0523D43343A3812300473332
:1052800023602361012363611AE080220D4BAB622E
:10529000A38920601343A381009B20616361019B6C
:1052A000002B0AD00E23E15E280000F091FD0028BB
:1052B00003D00122A3891343A381A3891F43A7819C
:1052C000F7BDC0464D50000010B5034B01001868F3
:1052D00000F04EFB10BDC0466C000020C9B2821821
:1052E000904204D003788B4202D00130F8E70020CE
:1052F000704770B5466A04000D00002E07D11020DB
:10530000FFF7E2FF6062466086600660C660666A1C
:10531000F368002B09D0636AAA00DB689B18186841
:1053200000280ED002681A6017E021220421200014
:1053300000F0CAFA636AF060DB68002BEBD1002052
:105340000EE001210E00AE40721D9200200000F020
:10535000BBFA0028F3D04560866000230361C36078
:1053600070BD70B5456A06000C00002D07D11020F5
:10537000FFF7AAFF7062456085600560C560002C7C
:1053800007D0726A6368D2689B00D3181A682260DB
:105390001C6070BDF7B5070008000C000D691E0009
:1053A000002101921430019A0388013153439B1963
:1053B0000668360C56431A0C9446B4446246160CE2
:1053C000120494469BB2634408C08D42EBDC002E6D
:1053D0001BD0A3689D4212DB63683800591CFFF79D
:1053E00088FF2100236901909A1C92000C310C3037
:1053F000FEF790F821003800FFF7B3FF019C2B1D4A
:105400009B00E31801355E6025612000FEBD00228F
:105410000300010C914201D103041032190E01D195
:1054200008321B02190F01D104321B01990F01D15F
:1054300002329B001000002B03DB20205B0000D514
:10544000501C70470722036810B501001A400CD0A9
:1054500001240020234223D10222134203D0E3403F
:1054600020000B601CE09B0818E098B2002801D1D6
:1054700010221B0CD8B2002801D108321B0A1807D1
:1054800001D104321B09980701D102329B08D807C9
:1054900004D45B082020002B02D0013210000B60E6
:1054A00010BD10B50C000121FFF723FF012344615B
:1054B000036110BDF0B50B691400126989B00D00CD
:1054C000934201DA25000C002F692669AA68BB19EE
:1054D00069680193934200DD0131FFF70AFF020082
:1054E000BB1914329B00D3189C4600211300029074
:1054F000634501D202C3FBE71435BF00EB19143436
:10550000B6000593A31903950793079B9C4251D2BC
:10551000208800281ED015000026039F08CF06957E
:1055200004936B461B8A434319002B88CB180499BC
:105530009B19090C41432E68360C89191E0C8919D8
:105540000E0C9BB209040B4308C5059BBB42E5D872
:10555000069B5E6023681D0C1FD00021100013689D
:10556000039F04913E8801686E43090C7118049EE4
:105570009BB289190E043343036008CF86881B0C45
:105580006B43090C9B195B18190C04910599069043
:105590000430B942E6D806994B6004340432B4E7CB
:1055A00004235B429C4463461B68002B05D1019B8E
:1055B000013B0193019B002BF2DC029B019A180036
:1055C0001A6109B0F0BD00000323F7B513400500D0
:1055D0000E001400002B08D02349013B9A005258BA
:1055E00000233100FFF7D6FE0600A310019338D048
:1055F0006C6A002C07D11020FFF766FE68624460D9
:1056000084600460C4606F6ABC68002C10D11749C4
:105610002800FFF746FF0023B8600400036007E09E
:10562000019B5B1001931CD02068002810D004005F
:105630000122019B1342F3D0310022002800FFF722
:1056400039FF070031002800FFF78BFE3E00E7E737
:10565000220021002800FFF72DFF002320600360B7
:10566000E5E73000FEBDC046D88C000071020000A6
:10567000F0B50C0017002369551185B0EB180193A4
:10568000013300934968A3680290009A934202DABA
:1056900001315B00F9E70298FFF72BFE00230200BF
:1056A000060019001432AB4203DA9800115001339E
:1056B000F9E7EB43DB171D402300AD0055192269C4
:1056C000143392009A1894461F22174014D00132C6
:1056D000D21B0392002219682800B9400A4304C56E
:1056E00004CB0399CA409C45F5D84260002A07D0F4
:1056F000019B0233009303E004CB04C59C45FBD817
:10570000009B0298013B33612100FFF72AFE300025
:1057100005B0F0BD03690A6910B59B1A0400181E94
:1057200012D1930014341431E218C918043A043920
:1057300013680868834204D083429B4101201843C8
:1057400002E09442F2D3002010BDF0B50C0085B009
:105750000700110020001500FFF7DCFF061E07D12F
:1057600001003800FFF7C5FD01234661036155E0E4
:1057700000230193984204DA23002C001D0001232A
:10578000019361683800FFF7B4FD019B26692F0083
:10579000C3601434B300E318020002932B690025A0
:1057A00014379B00FB180393143208CC69469C46BF
:1057B00008CF0432009363468B808B885D19009B71
:1057C0009BB2EB1A65460193009B2D0C190C019BB3
:1057D000691A1D14131F9C466B4649199B880D14AA
:1057E00009040B4361460B60039BBB42DDD8029961
:1057F00013008C420BD202CC8BB25B191D14090C26
:1058000049190D149BB209040B4308C2EFE7043B8E
:105810001A68002A01D1013EF9E7066105B0F0BD22
:10582000F7B51D000121089F1400FFF762FD2B034F
:105830006D0006001B0B6D0D02D080225203134336
:105840000193002C18D068460094FFF7FBFD009CE4
:10585000002809D0019B20211A00091A8A40C34060
:1058600022437261019300E07461019CB461631E84
:105870009C410134346107E001A8FFF7E3FD0124F6
:10588000019B346173612030002D06D00B4BED1865
:1058900035232D183D60181A0BE0094BC018094B31
:1058A0003860E3189B00F3185869FFF7B0FD6401F6
:1058B000201A099B18603000FEBDC046CDFBFFFFDB
:1058C000CEFBFFFFFFFFFF3F4A4370B511001400FE
:1058D00000F04EF8051E03D022000021FDF723FE44
:1058E000280070BD30B500293ED004390B68002B6C
:1058F00000DAC9181D4A13681400002B02D14B604E
:10590000116031E08B420DD90A688818834203D1B7
:1059100018685B6882180A604B60216024E08A4244
:1059200003D813005A68002AF9D11D685C198C420B
:105930000BD10968691858181960824214D110688F
:105940005268411819605A600EE08C4202D90C234B
:10595000036009E008680C18A24203D11468526879
:10596000201808604A60596030BDC046800600209B
:10597000032370B5CD1C9D43083506000C2D01D2C4
:105980000C2505E0002D03DA0C230020336040E0F5
:10599000A942F9D81F4B1C681A002100002913D016
:1059A0000B685B1B0DD40B2B02D90B60CC181EE0CF
:1059B0008C4202D1636813601AE04B6863600C008C
:1059C00016E00C004968E9E7134C2368002B03D16B
:1059D000300000F067F920602900300000F062F923
:1059E000431CD1D00323C41C9C43A0420AD1256090
:1059F000200007220B30231D9043C31A09D05A42BE
:105A0000E25006E0211A300000F04CF9431CEED1C0
:105A1000BAE770BD800600207C060020936810B5B0
:105A2000013B9360002B05DA9469A34208DBCBB2FB
:105A30000A2B05D01368581C10601970C8B201E019
:105A4000FEF738FB10BDF8B506000F001400D5189E
:105A5000AC4208D021783A003000FFF7DFFF013474
:105A6000431CF5D100E00020F8BD0000F0B59FB068
:105A700006000F0002920593002804D08369002BD2
:105A800001D1FFF725FB7F4B9F4201D1776808E0EA
:105A90007D4B9F4201D1B76803E07C4B9F4200D110
:105AA000F768BB891B070AD53B69002B07D0002389
:105AB00006AD6B6120336B761033AB763DE0390079
:105AC0003000FEF74FFB0028F1D001204042D6E025
:105AD000059A111D12680591002A00DA7FE00992EB
