:10000000C02A0020D1240000CD240000CD2400000F
:1000100000000000000000000000000000000000E0
:10002000000000000000000000000000CD240000DF
:100030000000000000000000CD240000CD240000DE
:10004000CD240000CD240000CD240000CD240000EC
:10005000D5070000CD240000CD240000CD240000F1
:10006000CD240000C10D0000D10D0000E10D000005
:10007000F10D0000010E0000110E00008D030000C4
:100080009D030000AD030000AD210000BD21000074
:10009000CD2100000000000000000000CD24000081
:1000A000CD24000000000000CD240000000000006E
:1000B0000000000010B5064C2378002B07D1054B3B
:1000C000002B02D0044800E000BF0123237010BDC4
:1000D000DC01002000000000E8920000084B10B591
:1000E000002B03D00749084800E000BF0748036819
:1000F000002B00D110BD064B002BFBD09847F9E731
:1001000000000000E0010020E8920000E8920000FA
:1001100000000000017042700023837070470000EF
:10012000F0B585B003A901224A7000238B7002AD9F
:100130002B706A70AB70684603704270837001ACBC
:1001400023706270A3700A70094F9733F85C094EF0
:10015000B0479623F85C2900B0479C23F85C210047
:10016000B047A223F85C6946B04705B0F0BDC04671
:100170008408002039090000F0B583B004004278FB
:10018000D1090023002904D15309DB0159498C46C8
:1001900063441F21114001228A405A613220564B8C
:1001A00098476278D1090023002904D15309DB0163
:1001B00050498C4663441F21114001228A409A61B4
:1001C0000A204D4B98476278D1090023002904D1B9
:1001D0005309DB0147498C4663441F21114001222A
:1001E0008A405A61454B1A68D37B5BB2002BFBDB1C
:1001F00000231371D37B5BB2002BFBDB40235371D5
:1002000023781F221A4001219140D809002200289A
:1002100004D15A09D201374B9C466244136A0B42FF
:10022000FCD03648364B9847050023781F221A40E9
:1002300001219140D8090022002804D15A09D20195
:100240002C4B9C466244136A0B42FCD12B4E30006F
:100250002B4B98473268D37B5BB2002BFBDB8023B0
:1002600053710004000C2D042D0C401B254FB84782
:10027000254B9847254A264B264DA847264B98479D
:10028000061CA088254B98470190A5782800B84700
:10029000071C011C0198224B9847011C301C214B64
:1002A0009847002809D1391C01981F4B9847011C19
:1002B000301C1E4B9847002805D06B1CDBB2032B6B
:1002C00015D8A370019E164F1949301CB847061C5B
:1002D00018490198B847011C301C174B9847174B19
:1002E000984780B2A0800D4B984703B0F0BD002323
:1002F000A370E8E7004400410D06000084080020D8
:1003000051240000796F0000F58B00009CC420B0E0
:100310007268913F2D7F0000998C000019700000D9
:10032000C169000011620000E1650000E9610000A0
:100330001E852B3FC3F5A83EBD6200008D62000004
:10034000F0B5C64600B580000E4BC7583B68DE6A64
:10035000BB6B7A6B13401E4000240B4B984602E0A7
:100360000434302C0AD04346E5583542F8D03B19C6
:100370005B68380098473B68DD62F1E704BC904653
:10038000F0BDC04634090020E88D000010B5002003
:10039000014B984710BDC0464103000010B5012035
:1003A000014B984710BDC0464103000010B5022024
:1003B000014B984710BDC046410300007047000044
:1003C00010B504000448054B984705220449200055
:1003D000044B984710BDC046188E0000913D0000A8
:1003E0002C090020B516000070B582B005000E0083
:1003F00000226B46DA80064C6B46991D2800A04708
:100400000028F9D16B4606331B88337002B070BDEB
:100410004515000070B505008CB2034E2100280080
:10042000B0470028FAD170BD1915000010B58EB084
:1004300001AA002300219370937113810020507052
:1004400091721173917351731174536193611177A8
:100450001362536213855385938503331370C0234E
:100460009B0093800123D372074C08492000084B5E
:1004700098472268D37B5BB2002BFBDB13880221F9
:100480000B4313800EB010BD84080020002C0042E6
:100490001522000070B5040000220649064DA84749
:1004A000012206492000A8473122A35C03210B4307
:1004B000A35470BDBD0300009D160000C1030000E1
:1004C00070B590B004008023DB05009300230193F6
:1004D000FF2269460A8100228B72CB729621890124
:1004E0000891012124206D462954013029542531D9
:1004F0006B5401316B540A9305316B5401316B54C9
:1005000005932B82EB762A762A776A761323AB76CD
:100510006A7780235B0303931E4B0C931E4B0D9352
:1005200001235B420E930F931C4E1D4D6A46310012
:100530002000A8470028F9D125682800194B9847C2
:100540001F2318401E3B8340174A13602268D3695B
:10055000002BFCD12B68022213432B602000134B8D
:100560009847134B1C60134A134B1A60134A144BE1
:100570001A606A4609492000094B9847114D2B68BB
:1005800098680021104CA0472B6858680021A047AC
:1005900010B070BD03000400030005000008004215
:1005A000D9110000910D000000E100E09504000069
:1005B000B009002015040000AC090020E903000088
:1005C000A80900200C000020993E000070B5002012
:1005D000084B98470500084CFA218900A047074BB3
:1005E000186007492800A047064B18600522064BF3
:1005F0001A6070BDA51E00005D5E000000000020B6
:1006000040420F000400002010E000E030B5084B2D
:100610001C68084A002580214902013807D3002CB4
:10062000FBD05460956013680B42FCD0F5E730BDF9
:100630000400002010E000E030B5084B1C68084AB8
:10064000002580214902013807D3002CFBD05460DB
:10065000956013680B42FCD0F5E730BD0000002028
:1006600010E000E00C4B1B68002B06D1EFF3108369
:10067000002B07D00022094B1A70074A1368013378
:100680001360704772B6BFF35F8F0022044B1A707D
:100690000132024B1A70F0E7F8010020FC01002043
:1006A00008000020084B1A68013A1A601B68002BEA
:1006B00009D1064B1B78002B05D00122044B1A7080
:1006C000BFF35F8F62B67047F8010020FC01002085
:1006D00008000020F0B5C64600B582B001AC012686
:1006E00066700027A770267021001320274DA847A9
:1006F000274B984680231B03424693612770667000
:1007000021001C20A8476670A77026702100522087
:10071000A84721003E20A84721003F20A8472100EC
:100720002F20A84721001420A8478022D202194B6D
:100730009A61194B8022D2059A61802212069A6131
:10074000802212029A6180235B03424693612770E4
:1007500021005320A847114A116A80239B030B43B1
:10076000136204220E4B1A806B469E70DF700523C5
:100770006A4613705670694609200A4CA0476946BC
:100780000C20A04702B004BC9046F0BD390900001F
:100790000044004100450041804400410004004005
:1007A00000540042B52000001723002A01D0180091
:1007B00070478B00064A9B58002B03D0834205D01C
:1007C0001D23F4E7890088500023F0E70023EEE7BB
:1007D0004409002070B50022104B1A700023104904
:1007E0001F25104E0D4C0AE00D4908E02378013317
:1007F000DBB223700F2B10D800211F2BF4D9280057
:1008000018400122824008691042EFD00A619B0023
:100810009B59002BEAD09847E8E770BD40090020BB
:100820000018004044090020044A137802210B43B9
:10083000137053785BB2002BFBDB7047001800404D
:1008400000B583B0124A936940210B43936101A91B
:1008500000230B7005200F4B984705200E4B98473F
:100860000E4A137801210B43137053785BB2002BAF
:10087000FBDB0B4B19004031002204C39942FCD131
:100880001022084B1A60084B984703B000BDC046C1
:1008900000040040BD1F0000311F00000018004090
:1008A0004409002000E100E0290800000023036063
:1008B000436001220272427283720233C372704734
:1008C000F0B583B005000C0001A900234B70CB707C
:1008D00023790B70237A8B702078154B9847002072
:1008E0001F2D00D8134807222A409200E77AA37AE6
:1008F000002B01D008231F43EB089B00C318996904
:100900000F269640B14397403A000A439A61637AB2
:10091000002B06D143690122AA409343436103B0EF
:10092000F0BD42690123AB4013434361F7E7C04682
:10093000B52000000018004000B583B001AB802254
:100940001A700A785A704A789A708A78DA701900A0
:10095000014B984703B000BDB520000010B5490811
:1009600040230024814202D2180010BD1C00091A45
:10097000631C9BB28842F9D94023FF2CF4D8148021
:100980000023F1E7F0B5DE4657464E464546E0B552
:1009900089B00C00059212AA117805004D4340223F
:1009A000A54207D9100009B03CBC90469946A24622
:1009B000AB46F0BD002B55D1020008000021634D6D
:1009C000A8478346260000270023002400930194B3
:1009D000002200233F2020218C461F3902960397D6
:1009E00014E06446241A0D00E540A84615E0029C78
:1009F000039D121BAB414D46009E019F35433C00B9
:100A0000464634430095019401381DD320246442A6
:100A10000419E6D40D00A540A8460C008440A14668
:100A200092185B4114001D0046465F463E4203D0CB
:100A30000E00264332002B00029C039D9D42E3D80A
:100A4000D5D19442E0D8D2E7002201230098019941
:100A5000121A8B411900130C0A041A43059B1A80C1
:100A600000229FE70022012BF8D1630F0493E300DB
:100A700098460A0000230021344CA04704000D00D2
:100A800000239C46069320339B460126634607932A
:100A900048E05946C91B3000C840824610E0009823
:100AA0000199121A8B410299484601430291013F74
:100AB00025D3202149427918EBD430008840824662
:100AC0003100B940894692185B4110001900444634
:100AD0004D462C40A4465446049D2C40A2466446F4
:100AE00055462C4303D03400044322000B000098E9
:100AF00001999942DBD8D2D19042D8D8CFE7009C57
:100B0000019D0299079A8B1ADB0811498B4214D96F
:100B1000069B0133DBB219000693130001330793E0
:100B2000082908D000230293002200233F210094CB
:100B300001950F00BDE7402234E7402206990829BD
:100B400000D12FE74A031A4388E7C0463962000004
:100B5000FF1F000010B582B004000E4B1B78002B65
:100B600007D0002905D10B4B5B78834210D01D20A4
:100B70000CE001A90C701320074B98471320074B7A
:100B80009847044B5C7001221A70002002B010BD1F
:100B90000020FBE700020020BD1F0000311F000005
:100BA000404B984231D00AD93F4B98424DD03F4BF1
:100BB00098425AD03E4B984237D0002070473D4B68
:100BC00098420CD03C4B9842F7D1012917D000290C
:100BD0005DD0022915D0032915D00020EEE70129A8
:100BE00007D0002951D0022905D0032905D00020C3
:100BF000E4E73248E2E73248E0E73248DEE73248ED
:100C0000DCE73248DAE73248D8E7012907D0002983
:100C10003FD0022905D0032905D00020CEE72D487A
:100C2000CCE72D48CAE72D48C8E7012907D000299D
:100C300031D0022905D0032905D00020BEE728487D
:100C4000BCE72848BAE72848B8E7012907D00029B7
:100C500023D0022905D0032905D00020AEE7234880
:100C6000ACE72348AAE72348A8E7012907D00029D1
:100C700015D0022905D0032905D000209EE71E4883
:100C80009CE71E489AE71E4898E71E4896E703200F
:100C900094E71D4892E71D4890E71D488EE71D48E0
:100CA0008CE7C0460010004200180042001C0042C1
:100CB0000014004200080042000C0042030005003E
:100CC00003000600030007000300010003001E00EC
:100CD00003001F0002000D0002000E0002000F00C2
:100CE00003001100030012000300130005003F0081
:100CF00005003E0005005200030017000300180025
:100D0000030019000300040002000C00030010009F
:100D1000050053000300160030B587B00B4B6A4640
:100D200032CB32C232CB32C2009B83420BD0012382
:100D30009A0069465258824206D00133062BF7D1F9
:100D4000002007B030BD0023D8B2FAE7288E00009B
:100D500070470000F0B50A4B1B78002B0CD1094FEF
:100D6000094E0A4D0024DE515A1914600433182B21
:100D7000F9D10122024B1A708000024BC150F0BD24
:100D80000202002004020020510D0000840900200E
:100D900000B583B009236A461370013353700133E1
:100DA00093700133D3700133137101335371034BCB
:100DB00098476B46185603B000BDC046190D000099
:100DC00010B5024B1B680020984710BD040200209C
:100DD00010B5024B5B680120984710BD040200204B
:100DE00010B5024B9B680220984710BD04020020FA
:100DF00010B5024BDB680320984710BD04020020A9
:100E000010B5024B1B690420984710BD0402002056
:100E100010B5024B5B690520984710BD0402002005
:100E2000F0B5D6464F4680B58BB081460F00140012
:100E3000030019600B689B0709D40B680520DB07CA
:100E400000D498E00BB00CBC91469A46F0BD936A72
:100E50000593D36A0693136B0793536B089300268D
:100E600005AB01930AE03800934B98470CE00F2341
:100E7000184081422DD10136042E2FD0F1B2B3009B
:100E8000019A98580028EED0431CF4D00104090CB4
:100E9000000CC3B29C460023020605D463465B09DE
:100EA000DB01864A924653441F226046024098184E
:100EB00040300078824680205546ED07D9D552084B
:100EC0009B1830331878C0B26346DB07CFD50009D2
:100ED000CFE700234A4613601C20B3E71320784B6A
:100EE000984722780025012A27D06368A268134317
:100EF000E26813432B43227C617C002901D08021CE
:100F00000B43A17C002902D0802189020A43E17CA5
:100F1000002902D0802189000A43217D002902D0C6
:100F2000802189010A433968022003438B4218D08B
:100F300000234A4613601C2084E704AA0100A0692C
:100F4000604B984703001720002B00D07AE73B7BCB
:100F5000DBB204AA127805309A4200D072E70C3551
:100F6000C3E77B689342E3D123784A465371237CDD
:100F70009371002066E70800534B9847534A116A63
:100F8000851C0123AB400B43136209A92426A35DF2
:100F90000B701430C5B228004D4B984728004D4BBC
:100FA0009847A05D00214C4B98472378012B19D01E
:100FB0004B461E6804AB80221A7000225A70012131
:100FC0009970DA702378002B01D104AB9A70A36A70
:100FD0000593E36A0693236B0793636B08930027DB
:100FE00005AD11E03B680C2213433B60E0E73000A5
:100FF000314B98470DE004A90870000CC0B2374B84
:1010000098470137042F07D0F9B2BB005859002880
:10101000EDD0431CEFD1F4E723784A465371237C8B
:101020009371A37CD371237D1372002202ABDA800B
:101030002378012B28D06368A2681343E268134326
:10104000217C627C002A03D1254A9278920701D53F
:1010500080221343A27C002A02D0802292021143F4
:10106000E27C002A02D0802292001143227D002AD5
:1010700002D08022920111433268134333607368B7
:101080000B4373600020DDE64B4618680E4B984713
:101090001430C0B20A4B9847010002AB9A1DA069F8
:1010A000084B984703001720002B00D0CAE602AB7C
:1010B00006331B783373BEE7A10B000000440041E8
:1010C000D91F00005D090000190D00000004004058
:1010D000BD1F0000311F0000550B0000B5200000AF
:1010E0000020004110B544791523012C01D01800CF
:1010F00010BD047A0023002CF9D1002A58D04B7877
:10110000002B44D003681B7EDB0710D40A78D1097A
:101110000023002904D15309DB012E498C46634486
:101120001F21114001228A409A610523DFE70A78D6
:10113000D4090023002C04D15309DB01254CA4461B
:1011400063441F2414400122A2405A6103681A7E9E
:10115000D20701D58A789A62C2790023002AC6D1C3
:1011600002680421137E0B42FCD0117E0023490744
:10117000BDD5538B5B0701D5042353838379012BA2
:1011800002D0936A0023B2E7936A0023AFE70A789C
:10119000D1090023002904D15309DB010D498C46F4
:1011A00063441F21114001228A405A6100239EE7B7
:1011B0000A78D1090023002904D15309DB0105492C
:1011C0008C4663441F21114001228A409A6100230A
:1011D0008DE7C04600440041F0B5DE4657464E4616
:1011E0004546E0B591B005000C00160029600800E6
:1011F000BB4B9847020023680520DB0706D511B0DA
:101200003CBC90469946A246AB46F0BD23681730D9
:101210009B07F4D4B349086A971C0123BB400343DE
:101220000B620FA92D27F35D0B701432D3B202931A
:101230001800AD4B98470298AC4B9847F05D0021E1
:10124000AB4B9847F37A6B712423F35CAB71252386
:10125000F35CEB71F37E2B72337F6B722B689846D5
:1012600018009F4B9847143000220E2306A98C4685
:1012700063441A80328A02928023DB019A4200D1B1
:101280009CE00FD9C023DB01029A9A4200D190E082
:1012900080231B029A4200D01DE103230693002302
:1012A000079308E080239B019A4200D013E11023AA
:1012B00006930F3B079333680593F3689B46736966
:1012C0000393337E04932623F35C9A46736899460E
:1012D000002B00D19EE080235B05994500D182E080
:1012E000737E002B02D0B37E424693732A68029F1E
:1012F000D369002BFCD10E3306AA944663441B88A5
:1013000042469381059B5A461343039A13434A4628
:1013100013431F43049B1B021F4353465B071F439A
:101320002723F35C002B01D104331F43737E9B0200
:10133000327F52021343727F120213432422B25CA3
:10134000520413432522B25C12041343F17A194369
:101350003389FF2B00D181E08022520417431943C7
:101360002C23F35C002B03D1624B9B789B0701D5A8
:1013700080231F432A68D369002BFCD14346596060
:101380002A68D369002BFCD143461F600EAB802234
:101390001A7000225A70DA709A70336B0A93736B6A
:1013A0000B93B36B0C93F36B02930D9300270AAE70
:1013B00063E008230693073B07937CE733680593B4
:1013C000F3689B4673690393337E04932623F35C8F
:1013D0009A4673689946002B18D080235B0599457F
:1013E00001D0002025E02723F35C002B00D077E715
:1013F000336A1F00C0B2404B984701000E2206AB73
:101400009C46624438003D4B984712E008230693FF
:10141000002307932723F35C002B0ED0069B009339
:10142000079B0E2206A98C466244B16A306A344F8B
:10143000B847002800D0E2E652E7336A1F00C0B286
:101440002D4B98470100069B0093079B0E2206A890
:101450008446624438002A4FB847EAE7F37E002BFF
:1014600000D17DE78023DB041F4379E72000254B73
:10147000984707E00137042F0DD0F9B2BB00985907
:101480000028F3D0431CF5D00EA90870000CC0B2A0
:101490001D4B9847EEE70023EB602B616B61AB615E
:1014A000EB612B62AB626B620022EB85AB85303364
:1014B000EA540133EA540133EA540133EA54286808
:1014C000074B984704001149114B9847A400114B52
:1014D000E550002093E61023069300230793EAE6E5
:1014E000190D000000040040BD1F0000311F000066
:1014F000550B000000200041D91F00005D090000CD
:1015000085090000A10B0000B5200000D5160000E1
:10151000550D000084090020C2791C23002A01D146
:1015200018007047C28D92B2173B002AF8D10368A9
:10153000DA69002AFCD1198502211A7E0A42FCD000
:101540000023EDE782791C23002A01D1180070479F
:10155000828D92B2173B002AF8D10268107E4007B4
:10156000F4D5D369002BFCD1538BDBB298061DD088
:10157000980703D5022353831833E7E7580703D5A9
:10158000042353831A33E1E7D80703D50123538398
:101590001233DBE7D80603D5102353833233D5E764
:1015A0009B0603D5202353832133CFE7138D0B8074
:1015B0000023CBE7F0B5D64600B584B00400019116
:1015C0001720002A03D104B004BC9246F0BDA379D1
:1015D0000530002BF7D02668013A93B29A460025D1
:1015E000042719E0002302AAD380911D2000154B87
:1015F00098470028E7D1691C89B202ABDB88019AC1
:1016000053556279012A14D00D005346013B9BB219
:101610009A460D4B9A45D6D0337E3B42E2D10A4BD7
:10162000327E3A42DED1012B09D0013B002BF7D1AB
:10163000D8E70235ADB21B0A019A5354E5E71220F0
:10164000C1E7C04645150000FFFF0000F8B50400E3
:101650000D00160007680F4B9847A38D9BB2002B17
:1016600003D00D4B98470520F8BDA6850A4B984737
:10167000656205223223E2542E3BBB75237A002B90
:1016800001D02023BB75637A0020002BECD0082307
:10169000BB75E9E765060000A5060000931C9B00EA
:1016A000C31859603021012393401A00435C13434F
:1016B0004354704710B51723002A01D1180010BDFC
:1016C00084790533002CF9D0014B98470300F5E7E6
:1016D0004D160000F8B58000624BC5582C68E369D0
:1016E000002BFCD1237EA67D1E403023EB5C3122F3
:1016F000AF5C1F40F30722D5EB8D9BB2002B1CD0B3
:10170000AA6A1378DBB2511CA962697901290ED04B
:101710009BB2DB05DB0D2385EB8D013B9BB2EB859B
:10172000002B0CD1013323750133A37507E05178E9
:1017300009020B430232AA62EBE701232375B307C8
:1017400006D50223237500223133EA54FB071AD44D
:10175000730765D5AB8D9BB2002B5FD0638BDBB27B
:101760001A0714D43F221340002B34D09A0711D506
:101770001A223223EA54303B63837B0750D528007A
:101780006B6998474CE02800EB689847E0E7372200
:101790001340E9E75A0705D51E223223EA542E3BAF
:1017A0006383EAE7DA0705D513223223EA54313B93
:1017B0006383E2E7DA0605D542223223EA54223B6C
:1017C0006383DAE720221A42D7D021323223EA5447
:1017D000123B6383D1E7238DDB05DB0DDAB2696A47
:1017E0000A706A6A511C69626979012910D0AB8D4F
:1017F000013B9BB2AB85002B12D104332375002231
:101800002E33EA54BB070BD528002B69984707E015
:101810001B0A53706B6A01336B62E8E7042323757C
:10182000F30604D5102323752376FB060ED4B306E6
:1018300004D52023237523763B070BD4330704D527
:10184000082323752376BB0608D4F8BD2800EB696E
:101850009847ECE72800AB699847EFE72B6A280028
:101860009847F2E78409002010B5082803D88000C3
:101870001B4B1B589F46002030E01A4B18692DE087
:10188000194B1B6A9B059B0F1848D84026E0154B47
:10189000586923E0134B1B6800209B071ED5124993
:1018A0001022CB681A42FCD00E4B1B685B0701D498
:1018B0000F4813E000200F4B98470A4B9B681B040E
:1018C0001B0C58430AE05023074AD35C00205B07F7
:1018D00004D5044BD86801E08020000210BDC0464A
:1018E000408E00001C0200200008004000127A0018
:1018F000006CDC02D91F000070B50C490B6A04783B
:10190000857840780122104080014026B34303438C
:101910002A40D20180208343134303222240120233
:101920000348034013430B6270BDC04600080040EB
:10193000FFFCFFFFF0B5CE46474680B5194B9946F0
:101940009B6941788C4605780679C7784479807818
:10195000012108408000042293430343604608406D
:10196000C0000432934303433800084080014027FD
:10197000BB43034330000840C0018026B343034308
:10198000072005402D02084803402B43214009034E
:10199000064803400B434A4693610CBC9046994667
:1019A000F0BDC04600080040FFF8FFFFFFEFFFFF5B
:1019B000F0B5DE4657464E464546E0B50100264B9B
:1019C0009B469B8A457800784242424191468878FE
:1019D000CA7894460A7990464E7B0F7B8C7B8A6846
:1019E0001E494A6101214A469200914604229343CE
:1019F0004A46134342460A40D20090460822934387
:101A00004246134362460A40120194461022934311
:101A100062461343084040012022934303430F4092
:101A2000BF01402083433B430E40F60140308343D7
:101A30003343793805402D02094803402B432140A8
:101A40000903084803400B435A4693823CBC904626
:101A50009946A246AB46F0BD000800401C0200209B
:101A6000FFF8FFFFFFEFFFFF10B5037A9B061B0C8B
:101A700042899205920D134318494B608379C279CC
:101A8000134342888488224313434278D20113438C
:101A90000B600378042B11D0202B0ED1037B9B0607
:101AA000028A1343C28912040D490A4013430B4AA8
:101AB000936011680B4B0B43136010BD037B9B06B7
:101AC000028A1343C289120405490A401343034A98
:101AD0009360136804210B431360EEE71C0200209F
:101AE0000000FF0324040000082803D88000254BD1
:101AF0001B589F46172044E0234A136A02210B43D8
:101B0000136200203DE0204A936902210B43936158
:101B1000002036E01C4A138A02210B431382002066
:101B20002FE0194A938A02210B439382002028E078
:101B300016490B68022213430B60134B9A84190059
:101B40000E32CB681A42FCD0104A91680E4BD96213
:101B500052689A6200229A8419001032CB681A42A5
:101B6000FCD00A4B1B689BB2074A9384002008E014
:101B7000054944228B5C022003438B54002000E083
:101B800000207047648E0000000800401C02002006
:101B9000F0B5D6464F464646C0B590B0C222D200F8
:101BA000694B9A60694A53681E218B431A390B436B
:101BB0005360052201AB1A700024654DE0B201A903
:101BC000A8470134252CF9D10CA8002303708022EA
:101BD00012028260C37001220271037383730621B3
:101BE0004170827043735B4B984705205A4B98476E
:101BF00055490222CB681A42FCD053498B8A802275
:101C000013438B82554C2368DB048A695B0E1B04EB
:101C10005348024013438B610AA801234370837029
:101C200003710722027000254571C3704D4B984720
:101C30000420494B984705AB00225D809D809A7136
:101C4000DA713F2159813B3919705A7023689B0E14
:101C50003F2B00D175E005A80372B723DB00038298
:101C6000072303733833C3813F4B984704A80025EB
:101C70004570057085703D4B98470620364B994658
:101C800098473B4B984701AC01266660657025720A
:101C900065720523237021000120364B9846984732
:101CA0000120354FB84765706572042323701C33DB
:101CB0009A466360267221000220C0470220B8477E
:101CC000666065700623237025726572210003200B
:101CD000C0470320B84765702572657203232370DF
:101CE0005346636021000420C0470420B847267093
:101CF00021000020164B98470020204B98470720D2
:101D0000C8471149D022CB681340D02BFBD11C4AC5
:101D10000023137253729372D37201A901224A6095
:101D20004B700B724B7207330B700020114B9847AE
:101D30000020114B984710B01CBC90469946A24613
:101D4000F0BD203B87E7C04600080040004000414E
:101D5000BD1F0000B1190000E91A000024608000D6
:101D6000FFFF80FF35190000691A0000F918000014
:101D7000851D0000A91D0000611E0000311F00002C
:101D800000040040064A936908210B439361012235
:101D9000044B1A7019000B781342FCD17047C046EF
:101DA00000040040000C004070B5060004000D78EF
:101DB0002D0205434B78002B02D08023DB021D430C
:101DC0004B7A002B02D080231B031D434868012857
:101DD00010D9431E184234D1022830D902230022E0
:101DE00001325B009842FBD8120232431400802378
:101DF0005B031D430B7A002B02D080239B031D4302
:101E0000134A53785BB2002BFBDB124B9847124B03
:101E10001E700F4A53785BB2002BFBDB0C4B9C60AF
:101E20001A0053785BB2002BFBDB094A5368802110
:101E300049020B401D435560084B984770BD002276
:101E4000D2E70402344380239B021D43D2E7C046FD
:101E5000000C004065060000080C0040A5060000CC
:101E600010B504000B4A53785BB2002BFBDB0A4B26
:101E700098470A4B1C70074A53785BB2002BFBDB78
:101E8000044A516880235B020B435360044B98471C
:101E900010BDC046000C004065060000040C004068
:101EA000A506000070B504001A4A53785BB2002BF7
:101EB000FBDB194B9847194B1C70164A53785BB2E1
:101EC000002BFBDB134E7068C004C00E144B984708
:101ED0000500124B1C707668F602F60F114B1C7051
:101EE0000C4A53785BB2002BFBDB0A4B9C68240244
:101EF000240C0D4B9847002E07D1012C07D9210047
:101F000028000A4B9847050001E00134E54028000D
:101F100070BDC046000C004065060000040C004087
:101F200069180000080C0040A50600005D5E000076
:101F300010B50400064B9847064B1C70064A5388A0
:101F40008021C9010B435380044B984710BDC04604
:101F500065060000020C0040000C0040A5060000D1
:101F600010B504000F4B98470F4B1C700F4A538855
:101F70001B05180F53880E490B40538053880D4999
:101F80000B40538011008022D2014B881342FCD1B8
:101F900006494A8803020648024013434B80064B19
:101FA000984710BD65060000020C0040000C004080
:101FB000FFF0FFFFFFBFFFFFA506000010B50C7884
:101FC00024020443024B9847A4B2024B5C8010BD2C
:101FD000611F0000000C004010B50400064B98473C
:101FE000064B1C70064B5C882405240F054B984754
:101FF0002000054B984710BD65060000020C00400C
:10200000000C0040A5060000A51E000030B5D378E6
:10201000002B35D11378802B29D01B068024640235
:10202000234354780225AC4306D19478002C20D168
:102030008024A402234341605478013C012C1CD924
:102040000D042D0CA024E4052C431C4384620D0CCC
:10205000D02424062C431C438462D478002C22D143
:102060005B031CD59378012B1ED0416117E0002340
:10207000D7E7C024E4022343DDE70D4C2340DFE72C
:1020800041600C04240CA023DB05234383620C0C69
:10209000D0231B0623438362D378002B03D15378CC
:1020A000013B012B02D930BD8161F8E78160FAE77D
:1020B000FFFFFBFF10B50A00C1090023002904D16E
:1020C0004309DB0105498C4663441F24204001215C
:1020D00081401800024B984710BDC04600440041A3
:1020E0000D2000007047000010B5054B9847054BC8
:1020F0009847054B9847054B9847054B984710BDA7
:10210000911B0000D5060000E520000041080000FA
:10211000E5200000931C9B001950022A09D0032AD5
:102120000CD0012393401A00037E13430376002052
:102130007047037E102213430376F8E7037E2022C4
:1021400013430376F3E7000070B58000164BC458C4
:1021500023689D7B227E637E13401D40EB0706D4DF
:10216000AB070BD4EB0610D4AB0615D470BD200022
:10217000A3689847012322689373F1E72000E3687E
:102180009847022322689373ECE72000236998475D
:10219000102322689373E7E7200063699847236858
:1021A00020229A73E2E7C0469C09002010B5002067
:1021B000014B984710BDC0464921000010B50120D1
:1021C000014B984710BDC0464921000010B50220C0
:1021D000014B984710BDC0464921000030B585B07D
:1021E00001AA0B4B32CB32C2019B98420DD0029B0D
:1021F000984208D00023039A824202D0180005B00A
:1022000030BD023302E0012300E00023DBB2F5E73A
:10221000888E0000F0B587B004000D00160008009D
:10222000854B9847070005AB1B221A7001325A7084
:102230009A7003AB802212011A80802252015A80C8
:10224000802292019A800023A360E360236163618E
:10225000237663768200794BD4502560B378082BBF
:1022600006D023712B880520DB0705D507B0F0BD0C
:102270001720FA07FAD5F4E7EB7B1730DB06F5D425
:102280002B889B07F2D4337C002B79D1337F002B32
:1022900000D081E06A49086A7A0003ABD35A03434D
:1022A0000B62B378082B00D186E001A933780B705C
:1022B00005ABDF5D3800634B98473800624B9847A9
:1022C0003189B3880B43B178B279114319437378DC
:1022D000002B02D080231B0119432268D37B5BB201
:1022E000002BFBDB2980717B4B1E99418900B37B5E
:1022F000002B01D0012319432268D37B5BB2002B52
:10230000FBDBFF232B71002905D02268D37B5BB256
:10231000002BFBDB6971B17AF37A002B01D010231B
:102320001943337B002B01D0202319432268D37B30
:102330005BB2002BFBDBA9712268D37B5BB2002B65
:10234000FBDB2379042B3FD0082B5ED01720002B1A
:1023500000D08BE7D37B5BB2002BFBDB338D2B8272
:102360002268D37B5BB2002BFBDB738D2B8322684F
:10237000D37B5BB2002BFBDBB38D6B83002075E757
:1023800002A901238B700022CA70327E0A704B7042
:10239000307D2E4B984779E702A901238B700022EC
:1023A000CA702432B21812780A704B701F33F318B7
:1023B0001878264B98476DE7086A7A1C520003ABE1
:1023C000D35A03430B6270E7D37B5BB2002BFBDB7A
:1023D0002823F35C2B742268D37B5BB2002BFBDBDE
:1023E0002923F35C2B752268D37B5BB2002BFBDBCC
:1023F0002A23F35C2B762268D37B5BB2002BFBDBBA
:102400002B23F35C6B76002030E7D37B5BB2002B91
:10241000FBDBB36A2B612268D37B5BB2002BFBDB57
:10242000F36AAB612268D37B5BB2002BFBDB336BBF
:10243000EB6100201AE7C046DD2100009C09002066
:1024400000040040BD1F0000311F0000B520000047
:102450000268D37B5BB2002BFBDB0379042B05D036
:10246000082B09D00020002B03D07047107CC0B28D
:10247000FBE7108A80B2F8E71069F6E710B5046848
:10248000E37B5BB2002BFBDB0379042B05D0082B2D
:1024900014D01720002B08D010BD17200129FBD81D
:1024A000D2B261180A760020F6E717200129F3D886
:1024B00092B20C3149000A530020EDE717200129A0
:1024C000EAD8063189000A510020E5E7FEE700005E
:1024D000F8B52A4A2A4B9A4211D01A00294B9A423F
:1024E0000DD2294A03339B1A9B0801339B0000221B
:1024F000234822498C58845004329A42FAD1234A04
:10250000234B9A420AD2D34321495B1803218B43C0
:1025100004339B18002102C29342FCD11D4AFF21C3
:102520001D4B8B439360FD3990235B001B4AD150B8
:102530001B4AD3780325AB4302242343D370D378BB
:102540000C27BB4308263343D370164B987B3022AD
:102550009043202210439873997BB9433143997378
:102560009A7BAA4322439A730F4A536880210B43F4
:1025700053600E4B98470E4B9847FEE7E8920000D9
:1025800000000020DC01002004000020DC0100200D
:10259000BC0A002000ED00E00000000000700041D7
:1025A0000050004100480041004000414534000017
:1025B00035330000F0B5C64600B50C009046002843
:1025C0000FD1002A11DD8F18094E0A4D3068210005
:1025D0002B6898470134BC42F8D1404604BC904671
:1025E000F0BD01235B429846F7E78046F5E7C04619
:1025F000B0090020A8090020F0B5C64600B50E00BD
:1026000015000138022810D8002A11D000240C4BE4
:1026100098460C4F43461868315D3B689847002840
:1026200008DB0134A542F5D106E00124644203E051
:10263000140001E001246442200004BC9046F0BD77
:10264000B0090020AC0900200300064A1268002AE5
:1026500004D0044A1068C318136070470249014A45
:102660001160F6E734020020C02A00200120404219
:10267000704780239B014B6000207047012070470A
:102680000020704770B582B005000E0000226B4636
:10269000DA80064C6B46991D2800A0470028F9D126
:1026A0006B4606331B88337002B070BD45150000C1
:1026B00070B505008CB2034E21002800B0470028F9
:1026C000FAD170BD1915000010B582B06B46DC1D43
:1026D000012221000F48104B984772B6BFF35F8F5D
:1026E00000220E4B1A700E4B1B7821780D4AD154E4
:1026F0009B2B0AD001330A4A13700122074B1A7030
:10270000BFF35F8F62B602B010BD0022044B1A7097
:10271000F3E7C04638020020B5150000080000208D
:10272000080300206C020020F0B591B08023DB0587
:10273000009300230193FF2269460A8100228B72D5
:10274000CB729621890108910124242168464454C2
:102750000131445401314354013143540A9305314A
:1027600043540131435405930382C37602760277C2
:10277000427613238376427780235B0303932E4BA9
:102780000C932E4B0D9301235B420E930F932C4D14
:102790002C4B1D602C4A2D4B1A602D4A2D4B1A6074
:1027A0006A462D4928002D4B98472D4F3B68986865
:1027B00000212C4EB0473B6858680021B0472E6876
:1027C0003000294B98471F2318408440274B1C603A
:1027D0002A68D369002BFCD133680222134333608B
:1027E000174B1B68DA69002AFCD159688022520213
:1027F0000A435A600121124AD171DA69002AFCD1D8
:10280000DA69002AFCD15968802292020A435A6090
:1028100001210B4A9171DA69002AFCD11449002088
:10282000144B984704220C4B9A75FD32FF320F4B24
:102830001A6011B0F0BDC04603000400030005009B
:1028400038020020B0090020B1260000AC090020A9
:1028500085260000A809002000080042D9110000C8
:102860000C000020993E0000910D000000E100E006
:10287000C9260000550D000010B50D4A0023137144
:102880005371138058215352130040320021996034
:1028900004339342FBD1074B9847074B9847074BAC
:1028A0009847074B9847074B9847074B984710BDE9
:1028B000B4090020652B00005D2A0000E928000013
:1028C000DD280000392900009D2A00000230800028
:1028D000014BC1507047C046B40900200022014B93
:1028E0001A6070470C030020034B00221A708D21E0
:1028F0005A548D315A54704710030020002812D0CA
:102900008D300C4BA833FF33984210D20378002B44
:102910000CD1084AA832FF328D30904205D203789C
:10292000002BF9D002E00348F0E7002070470020B8
:10293000FCE7C04610030020F0B5094B023300222B
:1029400001277F42064C012600251F80D000015D33
:10295000B14301551D7101320833642AF5D1F0BD30
:10296000B804002030B50C4A023200230A4D03E0BF
:1029700001330832642B0CD014888442F8D1DC0077
:10298000645DA407E40F8C42F2D1DB000248C0185A
:1029900030BD0020FCE7C046B80400200378DB0708
:1029A00004D401235B4243800023837170470000FD
:1029B00010B5034B9847002801D0024B984710BD33
:1029C000652900009D29000010B5027B0023062A1E
:1029D00001D0180010BD83685979DA78187900029F
:1029E0001043024B98470123F3E7C046B12900008A
:1029F00010B5027B0023002A0AD083681B78002BC5
:102A000003D0012B06D0002302E0044B98470300BB
:102A1000180010BD024B98470300F9E7992B0000FE
:102A2000C929000070B50B490B1D40310024012558
:102A300002E006338B4206D01A78002AF9D0013A18
:102A40001A702C00F5E7002C00D170BD024B98479E
:102A5000FBE7C046D8070020312D000010B50A4A18
:102A6000131D40320021197006339342FBD1074BEE
:102A700064229A6000221A73054A1A6105490020EF
:102A8000054B984710BDC046D80700201408002009
:102A9000252A0000F1290000CD2800000023024A69
:102AA0001370024A136070472C0800202808002089
:102AB000F0B583B0019000240020114D86268727B1
:102AC000A847002813D00378112BF9D1825DC35D8C
:102AD0001B021343013B9BB28355190A0200863245
:102AE00051700124002BEBD113330370E8E7002C65
:102AF00001D103B0F0BD0198024B9847F9E7C046F9
:102B0000FD280000312D0000F0B583B001900024B5
:102B10000020124D86268727A847002816D0037864
:102B2000162BF9D1825DC35D1B021343013B9BB29F
:102B30008355190A0200863251700124002BEBD113
:102B40001733037010226E33C254E5E7002C01D115
:102B500003B0F0BD0198024B9847F9E7FD2800004B
:102B6000312D00000022074B1A60074B322199607B
:102B70001A7306491961064B0A2199601A73054AAE
:102B80001A6170475808002030080020092B000007
:102B900044080020B12A000070B5027B0023032AFC
:102BA00001D0180070BD856800200A4CA04700289D
:102BB0000DD00378162BF9D1027B6B789A42F5D1B0
:102BC00017230370AA787133C254873BE9E70023C7
:102BD000E7E7C046FD28000070B50E4B98470E4B46
:102BE000984700220D4B1A7001320D4B1A700D4E92
:102BF0000D4D1F2408210220B0470120A847204086
:102C00000828F7D12E210438064CA047A0210C201B
:102C1000A04770BDF92E0000153000005C080020B0
:102C20005D080020413100004530000010B5044B24
:102C30009847044B9847044B9847044B984710BD5E
:102C4000C92C0000D92E0000D92B000079280000E3
:102C500030B5144B1D68002D1CD0826869688A420B
:102C600009D32C00521A2368002B08D059689142CE
:102C700003D81C00F6E72B000024891A5960426033
:102C8000002C03D023680360206030BD0560054B35
:102C90001860FAE70023036083684360014B186003
:102CA000F3E7C0466008002010B5044A13780133EA
:102CB000DBB213700248034B984710BD100A002086
:102CC000102700004933000010B50024064B1C708B
:102CD0000648074B9847074B98470748074B9847C4
:102CE000074B1C6010BDC046100A0020A92C000034
:102CF00039340000B53300001027000049330000CC
:102D000060080020094B1B68002B0AD083420AD0C0
:102D10001B68002B03D09842FAD1012000E000206C
:102D200070470020FCE70120FAE7C0466008002059
:102D300010B50400044B9847002800D010BD2000B7
:102D4000024B9847FAE7C046052D0000512C0000C1
:102D500010B5014B984710BD1D34000010B5014B54
:102D6000984710BDD533000010B50248024B984774
:102D700080B210BD480A002051240000034B1021EE
:102D80001A6811735A7E8A435A767047480A00209F
:102D900010B50A4C20680A4B98470A4B1B5C1F224F
:102DA0001A4001239340084A1360637E10221343A4
:102DB0006376236810225A7310BDC046480A00206B
:102DC000DD210000948E000000E100E010B502005B
:102DD00000210248024B984710BDC046480A002017
:102DE0007D240000F8B5CE46474680B52D4A002325
:102DF00013709370002193809171138151709172BF
:102E0000D17211739173517311745361936111777E
:102E10001362536213859385013B5385224C2349EA
:102E20002000234B9847002222492000224DA8472A
:102E3000022222492000A8472068214B9946984742
:102E4000204B98461B5C1F26334001252A009A40E0
:102E50001D4F3A60637E01221343637623685D73DE
:102E60001800C84743461B5C1E40B5403D60637E6A
:102E7000102213436376226810235373D37B5BB213
:102E8000002BFBDB138802210B43138000200F4B28
:102E900098470F490F4B9847C0B20CBC90469946D3
:102EA000F8BDC046140A0020480A0020002C004249
:102EB000152200005D2D000015210000512D00009D
:102EC000DD210000948E000000E100E0A51E00005E
:102ED00040420F005D5E00007047000010B5012207
:102EE000034B1A61034B1B68002B00D0984710BDA1
:102EF000001800406408002030B585B0344A002333
:102F0000537093703F211170324C21706370A37025
:102F1000012269464A708B700A703F202E4B9847F9
:102F20002278D1090023002904D15309DB012B4960
:102F30008C4663441F211140012210008840986193
:102F4000274C227000236360A36023746374A2740F
:102F5000E27423752332A35420001830183A00215C
:102F6000204B984780235B02E3601F4BA3611F4BFC
:102F7000A36201235B42E3621D4B23631D4B63632A
:102F80001D4D22001D4928001D4B98472A68D36912
:102F9000002BFCD1136802252B43136001AC2000E9
:102FA000184B98472023019380239B03636025726D
:102FB000012363720022A272E37221000020124BEF
:102FC0009847002200211148114B984705B030BDA9
:102FD000680A00206C0A0020390900000044004102
:102FE000700A00209F340000404B4C000500530045
:102FF00005003E0005005200A80A0020001800420B
:10300000210E0000AD080000C1080000DD2E000008
:10301000A907000070B5084C80252D02A56180220B
:103020005203064B5A61A5204000054EB04765612A
:103030000A20B047A56170BD8044004100440041B2
:103040000D06000070B582B00500EFF310835A4200
:103050005341019372B6BFF35F8F0022334B1A7056
:10306000019C334E013233493000334B984733686B
:1030700001211A7E0A42FCD01A7ED20702D5802294
:1030800015439D6202211A7E0A42FCD004211A7E59
:103090000A42FCD01A7E52070CD55A8B520701D532
:1030A00004225A83224A9279012A34D09A6AD2B2EF
:1030B00022490A8001211A7E0A42FCD01A7ED207D8
:1030C00001D500229A6202211A7E0A42FCD0042114
:1030D0001A7E0A42FCD01A7E002552070AD55A8B66
:1030E000520701D504225A83114A9279012A18D035
:1030F0009D6AEDB200220F490D480F4B9847FF2300
:10310000234205D00122094B1A70BFF35F8F62B6CC
:10311000E8B202B070BD9A6AD205D20D07490A80A2
:10312000C8E79D6AED05ED0DE4E7C0460800002004
:10313000A80A00206C0A0020E5100000640A0020A4
:10314000F0B583B006000C00EFF310835A425341F0
:10315000019372B6BFF35F8F0022344B1A70019D4A
:10316000334F013233493800334B98473B680121D4
:103170001A7E0A42FCD01A7ED20702D5C02216431C
:103180009E6202211A7E0A42FCD004211A7E0A4263
:10319000FCD01A7E52070CD55A8B520701D5042257
:1031A0005A83234A9279012A33D09A6AD2B22349A8
:1031B0000A8001211A7E0A42FCD01A7ED20700D56D
:1031C0009C6202211A7E0A42FCD004211A7E0A4225
:1031D000FCD01A7E52070CD55A8B520701D5042217
:1031E0005A83134A9279012A19D09B6ADBB2134A97
:1031F000138000220F490E480F4B9847FF232B42A4
:1032000005D00122094B1A70BFF35F8F62B603B07D
:10321000F0BD9A6AD205D20D08490A80C9E79B6AB7
:10322000DB05DB0D054A1380E3E7C04608000020FC
:10323000A80A00206C0A0020E5100000640A0020A3
:1032400070B5154B9847154C2000154B9847154BFA
:103250009847200046300F221C21134DA84720001C
:103260003A300F220D21A847200040300F221721AD
:10327000A8470E4B98470E4B98470E4B98470E4B5E
:10328000984701220D4B1A70BFF35F8F62B60C484E
:103290000C4B984770BDC046E9200000E0080020B4
:1032A000C10400002D0400001501000021010000F0
:1032B000CD0500002D2C000029270000080000206B
:1032C000AC8E0000853E0000F0B5CE4600B50F2064
:1032D000114B99469847114C2000114FB847114E99
:1032E000B04702000B001048104DA8470F20C847F8
:1032F000A01DB847B04702000B000B48A8470F209D
:10330000C84720000C30B847B04702000B000848FF
:10331000A84704BC9146F0BD390600001A090020F8
:1033200079010000F58B0000988E0000913D0000AF
:10333000A08E000010B5024B9847024CA047FDE755
:1033400041320000C932000010B5041C134B9847ED
:10335000134B1A7862438118124B59605968090C53
:1033600059605B68002B07D00E4B596801328018FA
:1033700018810D4B984704E082180A4B1A810B4BB9
:103380009847084B1B89632B02D86433054A138185
:10339000044B1889064B984710BDC046692D0000A4
:1033A000B40A0020680800207D2D0000912D000047
:1033B000CD2D000008B50022034B1A70034B98472F
:1033C000034B187008BDC04668080020E52D0000BA
:1033D000B40A002008B50E4B5B68002B07D00C4ADE
:1033E0005368013B5360002B01D10A4B9847084AB0
:1033F00013780133DBB21370074A12789A4206D869
:10340000034B00221A70DB68002B00D0984708BDE0
:1034100068080020912D0000B40A002008B5044B74
:103420009847044B1B69002B00D0984708BDC04645
:103430007D2D000068080020014B18617047C046D0
:103440006808002070B500260C4D0D4C641BA410BC
:10345000A64209D1002605F037FF0A4D0A4C641B2D
:10346000A410A64205D170BDB300EB5898470136B1
:10347000EEE7B300EB5898470136F2E7D49200002C
:10348000D4920000D4920000D8920000002310B51E
:103490009A4200D110BDCC5CC4540133F8E703005C
:1034A0008218934200D1704719700133F9E7F0B5E3
:1034B0008BB014001D1E129953DA802424061B19A8
:1034C0001D0014002D230B702023149E03229E4305
:1034D000462E07D03300453B59424B411099013AE3
:1034E000CB18109309AB049308AB0393139B009282
:1034F0000293109B220001932B0000F0DBFE0700DB
:10350000472E02D1119BDB0724D5109BFB18079394
:10351000462E14D13B78302B0CD100220023200002
:10352000290002F021FE002804D10123109A9B1AE1
:10353000139A1360139B079A1B68D31807930022F2
:1035400000232000290002F00FFE302200280DD0B9
:10355000079B09933800099B159ADB1B13600BB07E
:10356000F0BD0023AFE7591C09911A70099B079918
:103570009942F8D8EEE7F0B52B2385B007000C0090
:103580000270861C002901DA2D234C427B70092C25
:1035900023DD02ABDD1D6B1E20000A21019302F02A
:1035A000CDFD6B1E3031197020000A2102F0E0FCC5
:1035B000040009280ADC023D30342C7002AB0733CA
:1035C0003000AB4204D8C01B05B0F0BD019DE2E75E
:1035D0002B78013533700136F0E73023E41833706F
:1035E000B01C7470EFE70000F0B595B00C000A92C3
:1035F0000B931A9D099001F0D3FD036818000D93F9
:1036000000F000FD0023129323680E900C930C9998
:10361000277E2B680722C90547D59B1893431A00BC
:1036200008322A601A685B68A264E3640122E56CD0
:10363000A66C6B005B080F935242A74B30000F99AA
:1036400005F00AFA002800D006E20122A24B5242FD
:1036500030000F9902F098FD002800D0FCE1002214
:1036600000233000290002F085FD002803D023004C
:103670002D2243331A70994D472F00D8984D0323BC
:1036800000260C9A236101339A4322600B9B13AAF4
:10369000009321000A9B099800F0F2F9431C00D026
:1036A0009CE00120404215B0F0BD0733B6E780230F
:1036B0006268DB00511C45D1073262600C9A002120
:1036C000134312AA059211AA0392232223600691A2
:1036D000019308A9636852180292009332002B00EC
:1036E00004970998FFF7E3FE20233A0005009A4368
:1036F000472A07D1119BDA1C02DB626893425BDD2B
:10370000023FFFB21199652F3BD8200001393A00E2
:1037100050301191FFF72FFF129A06008318236192
:10372000012A02DC2268D20701D501332361232359
:1037300008AA9B181B78002BA8D023002D22433306
:103740001A70A3E7672F01D0472FB7D1002A16D0F0
:103750000C9908A80B430021069112A9059111A903
:103760000391232109182360019300922B000497F1
:10377000029132000998FFF79AFE0500BAE701228C
:103780009BE7662F19D1636800290CDD2161002BAE
:1037900002D12268D20702D501335B182361119B45
:1037A0000026A365C3E7002B03D101222168114243
:1037B00000D09A1C2261F2E76727119B129883427E
:1037C00005DB22682361D207E9D50133E6E7012250
:1037D000002B01DC9218D21A1218EBE7226853056D
:1037E00008D423692A000A9909980B9DA847431C0D
:1037F00029D156E7652F00D8DCE0A06CE16C0022EF
:10380000002302F0B1FC002835D00123354A0A9983
:1038100009980B9DA847431C00D142E7119B129ABF
:10382000934202DB2368DB070DD50B9D0E9B0D9A9F
:103830000A990998A8470025431C00D131E7129B3B
:10384000013B9D420BDB236800259B0700D5FDE073
:10385000139BE068984200DB25E7180023E722006D
:1038600001231A320A9909980B9EB047431C00D1D4
:1038700017E70135E3E7119B002B35DC0123194ADB
:103880000A9909980B9EB047431C00D109E7119B88
:10389000002B05D1129B002B02D12368DB07D2D568
:1038A0000B9E0E9B0D9A0A990998B0470026431C5F
:1038B00000D1F6E6119B5B429E4201DB129B91E731
:1038C000220001231A320A9909980B9FB847431C1A
:1038D00000D1E6E60136EDE7FFFFEF7FD08E000076
:1038E000CC8E0000DC8E0000A36D129E9E4200DD97
:1038F0001E00002E35DC00230C93F343DB170F93DF
:103900000F9BA76D0C9A3340FB1A9A4232DB119B36
:10391000129A93423CDB2368DB0739D4129E119A3A
:10392000F31BB61A9E4200DD1E00002E39DCF74361
:103930000025FB170C93119A129B0C999B1A3200CD
:103940000A409B1A9D4200DB7DE7220001231A32C8
:103950000A9909980B9FB847431C00D1A1E601358D
:10396000E9E733002A000A9909980B9FB847431CDE
:10397000C1D196E6220001231A320A9909980B9FB9
:10398000B847431C00D18CE60C9B01330C93B7E77E
:103990000E9B0D9A0A9909980B9EB047431CBDD106
:1039A0007FE6EA1933000A9909980B9DA847431C42
:1039B000BDD176E6129B012B02DC01231A4238D0DE
:1039C00001232A000A9909980B9FB847431C00D18C
:1039D00067E60E9B0D9A0A9909980B9FB847431CFE
:1039E00000D15EE6A06CE16C0022002302F0BCFB7B
:1039F000002808D00025129B013B9D420DDB2200D0
:103A000033005032EFE6129B6A1C013B0A99099879
:103A10000B9DA847431CF2D143E6220001231A3232
:103A20000A9909980B9FB847431C00D139E6013524
:103A3000E1E72A00EAE72200012319320A990998EE
:103A40000B9EB047431C00D12BE60135E368139A67
:103A50009B1A9D42EFDBFBE632002B003000290071
:103A600004F0FAFF002800D121E6034D472F00D9CA
:103A700005E6024D03E6C046D88E0000D48E000055
:103A8000F7B5150001938A680B6900900C0093420A
:103A900000DA130022002B6043321278002A01D092
:103AA00001332B6023689B0602D52B6802332B6001
:103AB000062723681F4027D0230043331B785A1E54
:103AC00093412268920630D4220001994332009833
:103AD000089EB047431C25D0062320682A68E16869
:103AE00003400025042B03D18D1AEB43DB171D4047
:103AF000A3682269934201DD9B1AED180027BD429D
:103B000020D1002010E00137E3682A689B1A9F4209
:103B1000D2DA22000123193201990098089EB04799
:103B2000431CF0D101204042FEBD3020E11843315A
:103B3000087021005A1C45310978A218433202331B
:103B40001170C1E7220001231A3201990098089EE2
:103B5000B047431CE6D00137D1E70000F0B58BB089
:103B600006920A0043320793059004920A7E0C00E5
:103B7000109B6E2A00D18FE017D8632A2CD008D86A
:103B8000002A00D199E0582A54D0260042363270DB
:103B900029E0642A01D0692AF7D121681A68080649
:103BA00023D5111D1960156825E0732A00D188E01E
:103BB00008D86F2A29D0702AE7D1202209680A4341
:103BC000226003E0752A20D0782ADED122007821F5
:103BD000453211706C4A30E00E001A684236111DF1
:103BE000196013683370012379E04906D9D5111D96
:103BF00019600023D55E002D03DA2D23049A6D424F
:103C00001370624B0A2703932FE02068196805069A
:103C100003D5081D18600D6805E04006F9D50D684C
:103C2000081D1860ADB2594B082703936F2A18D0AE
:103C30000A2716E045310A70544A03921A6821682F
:103C4000101D18601568080622D5CB0702D5202361
:103C5000194321601027002D03D1202322689A43A5
:103C600022602300002243331A706368A360002B94
:103C70005CDB0422216891432160002D58D1049E11
:103C8000002B64D02600039B42361B7833705EE025
:103C90004806DAD5ADB2D8E709681A68080605D52E
:103CA000111D1960136862691A6006E04906F7D5AC
:103CB000111D19601368A28A1A800023049E2361D3
:103CC00054E01A68111D19601668002162683000FE
:103CD00001F0E2FA002801D0801B60606368236174
:103CE0000023049A137041E0236932000699059875
:103CF000079DA847431C43D0236800259B070FD48A
:103D0000099BE06898423DDA18003BE0220001235D
:103D1000193206990598079EB047431C30D00135EB
:103D2000E368099A9B1A9D42F0DBE9E7002DA9D0D0
:103D3000049E2800390002F017F9039B013E5B5CEA
:103D400028003370390002F089F8051EF1D1082FE0
:103D500009D12368DB0706D563682269934202DC38
:103D60003023013E3370049B9B1B2361079B09AAF0
:103D700000932100069B0598FFF782FE431CB3D1F8
:103D8000012040420BB0F0BDEF8E0000DE8E00003F
:103D90000FB40B4B13B51C68002C05D0A369002B86
:103DA00002D1200001F066F905AB049AA168200059
:103DB000019301F03DFE16BC08BC04B01847C04694
:103DC0000C00002070B505000E00002804D08369A7
:103DD000002B01D101F04EF9AB69AC68002B02D188
:103DE000280001F047F9244B9C420FD16C68A3894D
:103DF0001B0702D52369002B20D12100280000F0E9
:103E00005FF900281AD00120404270BD1B4B9C4234
:103E100001D1AC68EBE71A4B9C42E8D1EC68E6E7CD
:103E2000013B0136A360002B04DAA269934216DB42
:103E30000A2914D023685A1C226019703178A368AB
:103E40000029EDD1013BA360002B0FDA22000A31DB
:103E5000280000F0DFF8431CD5D00A20D5E7220067
:103E6000280000F0D7F8431CE8D1CCE70A202368EB
:103E70005A1C22601870C8E7308F0000508F000075
:103E8000108F000010B5034B01001868FFF79AFF70
:103E900010BDC0460C0000204A424A41802310B5A4
:103EA0005200DB0000F002F810BD0000F0B51D006C
:103EB0004F4B85B01E6804000F000092002E05D005
:103EC000B369002B02D1300001F0D4F8494B9C4279
:103ED00050D17468009B022B05D0012B00D984E0DF
:103EE000002D00DA81E02100300001F055F8616B0F
:103EF000002908D023004433994202D0300001F059
:103F0000C7FC002363630023A3616360A3891B06CE
:103F100003D52169300001F0BBFCA389364A134068
:103F2000A381009B022B5AD003AB02AA21003000D0
:103F300001F042F9A3891843A081002D24D1029DEC
:103F4000280001F09FF90195071E42D1029B0193C1
:103F5000AB4239D1012040420223A2891343A381FD
:103F60000023A3602300473323602361012363619F
:103F700005B0F0BD214B9C4201D1B468AAE7204BAB
:103F80009C42A7D1F468A5E7002FD9D0B369002BD4
:103F900002D1300001F06EF8009B012B03D1A38900
:103FA000009A1A43A2810820A389276027616561CE
:103FB000184018D0012018400023984211D06D42BB
:103FC000A360A5611800D3E7019801F05BF9071E13
:103FD000C0D08023A289019D1343A381D6E700208E
:103FE000BAE7A560C4E7A060C2E701204042BFE78E
:103FF0000C000020308F00005CF3FFFF508F0000AA
:10400000108F00000023C25C0133002AFBD1581E30
:1040100070470000F8B505000E001400002804D019
:104020008369002B01D101F025F8224B9C422DD150
:104030006C68A369A360A3891B0731D52369002B92
:104040002ED023682269F7B2981A6369F6B29842B3
:1040500005DB2100280000F09FFF002826D1A3687F
:104060000130013BA36023685A1C22601F70636902
:10407000984204D0A389DB071AD50A2E18D1210053
:10408000280000F089FF002812D00FE00A4B9C4264
:1040900001D1AC68CDE7094B9C42CAD1EC68C8E7B6
:1040A0002100280000F00CF80028CAD00126764232
:1040B0003000F8BD308F0000508F0000108F0000DE
:1040C000364B70B51D6806000C00002D05D0AB699D
:1040D000002B02D1280000F0CDFF314B9C420FD1C4
:1040E0006C680C23E25E93B219072DD4D90611D463
:1040F00009230120336037331343A381404270BD4D
:10410000284B9C4201D1AC68EBE7274B9C42E8D19D
:10411000EC68E6E75B0713D5616B002908D0230044
:104120004433994202D0300001F0B2FB00236363B4
:104130002422A3899343A38100236360236923601E
:104140000823A2891343A3812369002B0BD1A0214B
:104150008022A389890092000B40934203D0210062
:10416000300001F051F80123A289134011D000233F
:10417000A36063695B42A361002023698342BED1CF
:104180000C23E25E1306BAD540231343A381013802
:10419000B5E7920700D46369A360EDE70C00002047
:1041A000308F0000508F0000108F0000F0B50369C1
:1041B0000C6989B00700059100269C426DDC0B005C
:1041C000013C1433A50003935B19049303001433DB
:1041D00002935D19049B28681B68591C019301F028
:1041E0003DFE0190B0422DD0039B02989C4606965E
:1041F000624608CA9446019A99B251431B0C534334
:1042000089190A0C9B18079302881E0C069B89B219
:10421000D2180368521A190C6B469B8BCB1A1114D7
:104220005B18191492B21B041A43049B069104C034
:104230006345DDD22B68002B04D1029B043DAB42C9
:104240002ED33C610599380001F043FA002823DBA6
:104250000025019B029801330399019308C9028844
:1042600055199AB2AA1A05681B0C2D0CEB1A1514D5
:104270005B191D1492B21B04134308C0049B8B42AC
:10428000ECD2029AA300D3181A68002A04D1029A29
:10429000043B9A4209D33C61019E300009B0F0BD55
:1042A0002B68002BCDD1013CC7E71A68002AF2D158
:1042B000013CECE7F0B516001F00446A9DB0049085
:1042C000259D06960797002C08D1102000F0DAFFF4
:1042D000049B5862446084600460C460049B5B6A11
:1042E000196800290BD05A68012393404A608B60FB
:1042F000049801F014F80022049B5B6A1A60079B83
:10430000002B1FDA01232B607B005B080793079CBF
:10431000B74B220019931A409A4216D1B54B249AF2
:104320001360069B002B03D1240301D100F091FD03
:10433000B14B269A0A93B14B002A01D000F08FFDB1
:1043400000F08FFD00232B60E1E7069E079F00220F
:1043500000233000390001F007FF051E0ED00123B5
:10436000249A1360A64B269A0A93002A01D100F0E2
:1043700078FDA44A26990A6000F073FD1AAB0193F8
:104380001BAB009332003B00049801F01FFA63005E
:1043900005905B0D00D17FE03A039B4C120B144358
:1043A00021009A4A300018959E180022984B04F07C
:1043B0003DF8984A984B03F0B9FD984A984B02F0A3
:1043C00071FE040030000D0004F09AFB954A964BF4
:1043D00003F0ACFD02000B002000290002F062FE99
:1043E00004000D0004F058FB00220390002320007D
:1043F000290001F0BFFE00280ED0039804F080FBD6
:104400000B0002002900200001F0AEFE030058421C
:104410005841039B1B1A039301231693039B162BEE
:104420000FD88249DB00C91808684968069A079BBB
:1044300001F0B4FE00284BD0039B013B0393002303
:1044400016931A9B9E1B00230B933300013B0C9386
:1044500004D501239B1B0B9300230C93039B002B80
:1044600038DB039A0C9B944663440C9300230F9211
:104470000893229B0125092B00D991E0052B02DD31
:104480000025043B2293229B981E032800D991E02B
:1044900001F0DAFC828429761A9B1B9A9E18644BE1
:1044A000F218202A0FDD634B0698F318D8404023FA
:1044B0009B1A9C40204304F065FB01235E4C013EA7
:1044C0000919189371E7202306989B1A9840F2E780
:1044D0001690B6E70B9B039A9B1A0B9353420893D3
:1044E00000230F93C5E701230E93239B002B65DD6B
:1044F0001F000D93049A546A002262600432110076
:10450000143199425FD96168049800F0D0FE049B91
:1045100020605B6A1B680A930E2F00D905E1002D0D
:1045200000D102E1069B079C14931594039B002B7A
:1045300000DC85E01A000F213C4B0A40D2009B189A
:104540005C681B6810931194039B02241D11EB06F9
:104550000AD53A4B0D401A6A5B6A1498159903F014
:10456000B1F8069007910134344E002D30D1109AE5
:10457000119B0698079903F0A5F8069007917AE039
:104580000123239A0E939446039B63445F1C0D936F
:104590003B1EAFDC0123ADE70023A5E70023F0E7D6
:1045A00000230E952293013B00220D931F0013332D
:1045B00023929FE701230E93023BF5E701230D931E
:1045C0001F001A00F4E7616852000131616096E74C
:1045D00001231D4208D010981199E41832687368BD
:1045E00003F0A4FC109011916D100836BDE7C04691
:1045F0000000F07F0F270000098F00000C8F0000E3
:10460000DC8E0000DD8E00000000F03F01FCFFFFAB
:104610000000F83F61436F63A787D23FB3C8608B48
:10462000288AC63FFB799F501344D33F988F0000E0
:104630003204000012040000000010FE708F000021
:10464000039B0224002B16D0149815995D420F236A
:10465000CA4A2B40DB00D3181A685B6803F066FC7B
:10466000002306900791C64E2D11002D00D08CE03E
:10467000002B00D081E7169B002B00D191E0069A19
:10468000079B10921193109811990022BD4B01F0D5
:1046900071FD002800D184E0002F00D181E00D9B46
:1046A000002B3EDD10981199039B00225E1EB64B35
:1046B00003F03CFC069007910D9D0134200004F0AE
:1046C0001FFA069A079B03F031FC0022AF4B02F061
:1046D000E9FC12901391129B139CAD4A1093119414
:1046E000139B9C181194002D5ED106980799002207
:1046F000A84B03F09BFE109A23000690079101F04F
:104700004DFD002800D001E3A3481399844661447D
:104710000B0006980799109A01F02CFD002800D094
:10472000E8E2149B159C069307941B9B002B00DA70
:1047300057E1039A0E2A00DD53E1904BD2009B18FB
:104740005C681B6808930994239B002B00DBCEE078
:10475000002F00DDCBE000D0CFE2089809990022BD
:104760008C4B03F0E3FB069A079B01F021FD3E0012
:104770000897002800D0A4E20A9B0A9A5D1C312306
:104780001370039B013303939FE20122154205D06E
:10479000A4183268736803F0C9FB01236D10083652
:1047A00063E7039E3D0089E70A9A691E5219179232
:1047B0000E9A724BC900002A4AD05B181A685B68CF
:1047C0000020764902F07EFF109A119B03F02EFE26
:1047D0000A9B1090119112930698079904F05CF9C6
:1047E000040004F08DF902000B000698079903F00D
:1047F0001DFE129B30345D1C1C70109A119B06909C
:10480000079101F0B7FC002865D1069A079B0020AC
:104810005C4903F00BFE109A119B01F0ABFC0028E1
:1048200000D0BEE0179B9D4200D17AE71098119905
:104830000022554B03F07AFB00221090119106984C
:104840000799514B03F072FB129506900791C3E74D
:10485000591808684968109A119B03F067FB10907B
:1048600011910A9C179D0698079904F015F912906A
:1048700004F046F902000B000698079903F0D6FDF4
:10488000129B0690079130332370179B013400224E
:10489000A34224D1414B1098119902F003FC02006D
:1048A0000B000698079901F079FC002800D078E009
:1048B000109A119B0020394903F0B8FD02000B004B
:1048C0000698079901F056FC002800D129E76B1ED5
:1048D0001A78302A01D003963FE01D00F7E70698CA
:1048E0000799294B03F022FB06900791BBE70A9E2C
:1048F000089A099B0698079902F0E4FE04F0CCF8A8
:10490000040004F0FDF8089A099B03F00FFB0B006C
:1049100002000698079903F089FD230030333370B5
:104920000A9B751CEB1A9F424CD102000B0002F04F
:10493000B9FB06000F0002000B000898099901F06E
:1049400019FC00282CD10898099932003B0001F08D
:104950000BFC002801D0E30722D40599049800F04D
:10496000DEFC00232B70039B249A01331360269BEB
:10497000002B00D175E21D6073E2C046988F0000E5
:10498000708F00000000F03F0000244000001C4039
:104990000000C0FC000014400000C07C0000E03FAC
:1049A000039E6B1E1A78392A06D10A9A9A4207D1B9
:1049B00030231370130001361A7801321A708AE717
:1049C0001D00EEE70022CF4B03F0B0FA00220023D7
:1049D000069007912E0001F0C7FB002800D187E761
:1049E000BBE70E9A002A00D187E0229A012A6EDCEA
:1049F000189A002A67D0C44A9B18089D0B9C0B9AF2
:104A00000121D2180B920C9A0498D3180C9300F041
:104A100024FD0600002C0EDD0C9B002B0BDD0C9AF8
:104A20002300944200DD13000B9AE41AD21A0B9271
:104A30000C9AD31A0C93089B002B1ED00E9B002BB4
:104A40005FD0002D11DD31002A00049800F09EFD9A
:104A5000059A01000600049800F008FD05991090E1
:104A6000049800F05CFC109B0593089B5A1B04D033
:104A70000599049800F08AFD05900121049800F042
:104A8000ECFC0F9B0890002B3DDD1A000100049800
:104A900000F07CFD229B08900025012B3BDC0025CB
:104AA000069BAB4233D1079B1B03AB422FD1199B13
:104AB000079A13422BD00B9B013501330B930C9BB0
:104AC00001330C9323E036231A9A9B1A95E7089B2F
:104AD0007D1EAB4206DB5D1B002F0BDA0B9BDC1B44
:104AE00000238CE7089B0895EA1A0F9B00259B186A
:104AF0000F93F1E70B9C3B0081E7089D0B9C0E9EFA
:104B000088E7089AB4E7229B0025012BC7DD0F9B9D
:104B10000120002B0BD0089B089A1B690F930333CD
:104B20009B00D318586800F04FFC2023181A0C9BE8
:104B3000C0181F23184000D1ABE001331B1A042B0F
:104B400000DC9BE01C23181A0B9B24181B180B93EA
:104B50000C9B1B180C930B9B002B05DD1A00059971
:104B6000049800F065FD05900C9B002B05DD1A00F4
:104B70000899049800F05CFD0890169B002B00D16A
:104B800089E00899059800F0A4FD002800DB82E088
:104B9000039B0A22013B039305990023049800F02C
:104BA000D7FB0E9B0590002B00D15DE10023310067
:104BB0000A22049800F0CCFB0D9B0600002B02DCBF
:104BC000229B022B6DDC002C05DD310022000498B5
:104BD00000F02EFD06003000002D11D07168049801
:104BE00000F065FB3100040033690C319A1C92001F
:104BF0000C30FEF74BFC01222100049800F018FD58
:104C00000D9F0A9B013F0B93DB19370006000F93A2
:104C100008990598FFF7CAFA39000D900400059825
:104C200000F057FD32000E900899049800F06AFDDC
:104C300001230C93C36830340500002B04D101001C
:104C4000059800F046FD0C902900049800F067FBE1
:104C50000C9B229A134300D089E0069A0133134239
:104C600000D084E0392C00D1A3E00E9B002B01DDA5
:104C70000D9C31340B9B5D1C1C7027E0042B00D174
:104C800069E70B9A1C33D2180B920C9AE418D318CC
:104C900060E70300F5E7002F3CDC229B022B39DDA7
:104CA0000D970D9B002B0CD108990522049800F05C
:104CB0004FFB08900100059800F00BFD002800DD77
:104CC0005AE5239B0A9DDB43039300270899049828
:104CD00000F025FB002E00D13FE6002F05D0B742A3
:104CE00003D03900049800F01AFB3100049800F05A
:104CF00016FB32E608952E00E3E7002308931E001A
:104D0000DFE7C04600002440330400000396089506
:104D10002E0031E50E9B0D97002B00D053E70A9D26
:104D200008990598FFF742FA0A9B30300D9A2870CF
:104D300001350400EB1A9A4278DC151E00DC0125CF
:104D400000270A9B5D1905990122049800F070FC68
:104D50000899059000F0BDFC00282FDC01D1E30785
:104D60002CD46B1E1A78302AB0D11D00F9E70E9BA7
:104D7000002B07DB1D00229B1D4326D10123069A31
:104D8000134222D10C9B002B00DC73E70599012212
:104D9000049800F04DFC0899059000F09AFC00285A
:104DA00004DC00D066E7E30700D463E7392C00D0C9
:104DB0005EE70B9B0B9A5D1C392313706B1E1A78F0
:104DC000392A3BD001321A7080E70B9B01330D93D7
:104DD0000C9B002B05DD392CEBD00D9D01340B9B7A
:104DE0004AE70B9B0F9A0D9D1C709342ABD000239A
:104DF0000A220599049800F0ABFA002305900A22D4
:104E000039000498B74206D100F0A2FA0700060064
:104E10000D9B0B93FCE600F09BFA3100070000238A
:104E20000A22049800F094FA0600F1E700230A220F
:104E30000599049800F08CFA059071E70A9A9A4255
:104E400005D1039B01330393312313703EE71D000B
:104E5000B4E70A4B269A0A93094B002A01D0269AF6
:104E600013600A981DB0F0BD0D9B002B00DD56E7C6
:104E7000229B022B00DC52E713E7C046008F0000A4
:104E8000088F0000F7B58A8905000C00130760D46D
:104E90004B68002B04DC0B6C002B01DC0020FEBDFA
:104EA000E76A002FFAD000232E682B6080235B0175
:104EB0001A4034D0606DA3895B0706D56368C01AB9
:104EC000636B002B01D0236CC01A0200216A0023FF
:104ED0002800E76AB847A189431C06D12B681D2B1F
:104EE00031D82C4ADA40D3072DD5002363602369DB
:104EF0002360CB0405D5431C02D12B68002B00D1C5
:104F00006065616B2E600029C8D02300443399424C
:104F100002D0280000F0BCFC00206063BFE7012342
:104F2000216A2800B847431CC5D12B68002BC2D08A
:104F30001D2B01D0162B01D12E60AFE74023A28993
:104F40001343A381ABE740230B430120A3814042DD
:104F5000A5E70F69002FA1D00B680F60DB1B019341
:104F60000023920700D14B69A360019B002B00DC5A
:104F700094E7019B3A00216A2800A66AB0470028FE
:104F800003DC4023A2891343DFE7019B3F181B1A70
:104F90000193EAE7010040200B6970B505000C00A1
:104FA000002B01D1002070BD002804D08369002BA4
:104FB00001D100F05FF80B4B9C4209D16C680C22C8
:104FC000A35E002BEED021002800FFF75BFFEAE78D
:104FD000054B9C4201D1AC68F1E7044B9C42EED1F9
:104FE000EC68ECE7308F0000508F0000108F00005D
:104FF00010B5024900F0B2F810BDC046994F00004C
:10500000002310B504000360436083608181436620
:10501000C281036143618361190008225C30FEF79D
:105020003EFA054B24626362044BA362044BE362C5
:10503000044B236310BDC0468D5C0000B55C0000CE
:10504000ED5C0000195D000070B568254A1E5543EF
:105050000E002900743100F065FC041E08D0002108
:105060002A00016046600C30A0606832FEF717FA33
:10507000200070BD836913B50400002B28D1836420
:10508000C3640365134B144A1B6882620193984200
:1050900001D101238361200000F020F8606020002E
:1050A00000F01CF8A060200000F018F80022E0607A
:1050B00004216068FFF7A4FF01220921A068FFF71F
:1050C0009FFF02221221E068FFF79AFF0123A361EC
:1050D00013BDC046C88E0000F14F0000F8B51E4B4E
:1050E00007001E68B369002B02D13000FFF7C2FF32
:1050F0004836B4687368013B04D53368002B07D089
:105100003668F6E70C22A55E002D0DD06834F2E774
:1051100004213800FFF798FF30600028F0D10C23FD
:1051200004003B602000F8BD012320005B42E381C6
:105130000233A38165662560A560656025616561B0
:10514000A561082229005C30FEF7A9F96563A56313
:10515000A564E564E6E7C046C88E0000F7B5040024
:105160000700002601914834002C01D13000FEBD1B
:105170006368A5680093009B013B009301D52468F8
:10518000F2E7AB89012B08D90E22AB5E013304D0C4
:1051900029003800019B984706436835EBE700007B
:1051A000034B1B68186A002800D10248F030704792
:1051B0000C0000207000002070B50E001D000E23B2
:1051C000C95E90B01400002907DA00232B60B38970
:1051D0001B0611D48023DB000FE001AA00F0C8FDFC
:1051E0000028F2DBF022029B12021340054A9B18B2
:1051F0005A4253412B60EDE740230020236010B05A
:1052000070BDC04600E0FFFFF7B502268B890500A0
:105210000C00334206D0230047332360236101236F
:105220006361F7BD01AB6A46FFF7C6FF009907004F
:10523000280000F077FB002806D10C22A35E9A0517
:10524000EFD41E43A681E6E70D4BAB628023A28913
:1052500020601343A381009B20616361019B002BAD
:105260000AD00E23E15E280000F094FD002803D050
:105270000123A2891343A381A0893843A081D0E7E9
:10528000F14F000010B5034B0100186800F04AFB15
:1052900010BDC0460C000020C9B28218904201D156
:1052A0000020704703788B42FBD00130F6E770B5E1
:1052B000466A04000D00002E07D11020FFF7E2FF20
:1052C0006062466086600660C660666AF368002BAE
:1052D00013D0636AAA00DB689B181868002818D1ED
:1052E00001210E00AE40721D9200200000F0C2FAB3
:1052F00000280CD0456086600DE0212204212000AA
:1053000000F0B8FA636AF060DB68002BE1D100209E
:1053100070BD02681A6000230361C360F8E770B5CE
:10532000446A06000D00002C07D11020FFF7AAFFE9
:105330007062446084600460C460002D07D0736AAA
:105340006A68DB6892009B181A682A601D6070BD4D
:10535000F7B51E0014239C4607000C0000200D69C1
:105360008C44634619881B6851431B0C53438919AD
:105370000E0C9B1989B21E0C1B045B186146013090
:1053800008C18C468542ECDC002E1BD0A3689D42F0
:1053900012DB63683800591CFFF789FF210023697D
:1053A00001909A1C92000C310C30FEF76FF821002E
:1053B0003800FFF7B4FF019C2B1D9B00E31801355B
:1053C0005E6025612000FEBD0300020C00208242C9
:1053D00001D11B0410301A0E01D108301B021A0F24
:1053E00001D104301B019A0F01D102309B00002B28
:1053F00003DB01305B0000D42020704707220368E4
:1054000010B501001A400DD001240020234205D11F
:105410000230034203D0E34020000B6010BD9B0824
:105420000B60FBE79CB21000002C01D110201B0C7C
:10543000DAB2002A01D108301B0A1A0701D1043060
:105440001B099A0701D102309B08DA07E8D45B08F0
:1054500001D00130E4E72020E0E710B50C00012185
:10546000FFF725FF01234461036110BDF0B50B690F
:105470001500126989B00C00934201DA2C000D006E
:1054800027692E69A268BB1961680193934200DD08
:105490000131FFF70CFF030014330093009ABB198E
:1054A00094469B009C4413000022049063451CD347
:1054B0002A001434BF00E3191432B600059393197F
:1054C00002940693069B9A4211D3019B002B06DDA2
:1054D00004235B429C4463461B68002B51D0049B11
:1054E000019A18001A6109B0F0BD04C3DEE7148800
:1054F000002C1ED00026009D029F01CF079508CDED
:10550000039383B2634319006B46000C9B8960438D
:10551000CB1803999B19090C4118180C09180E0C8B
:105520009BB209040B4307990B60059BBB42E4D86F
:105530002E6013681B0C03931ED00026009B029C58
:105540001B68009807002188039D9BB2694320C80F
:105550002D0C49198E1931040B433B6008CC03997B
:105560001B0C4B437968360C89B25B1805999B1963
:105570001E0CA142E6D80360009B04320433009362
:10558000A0E7019B013B01939FE700000323F7B5D0
:10559000134005000E001400002B08D02249013BE7
:1055A0009A00525800233100FFF7D2FE0600A310E4
:1055B000019336D06C6A002C07D11020FFF762FEF1
:1055C0006862446084600460C4606F6ABC68002CD8
:1055D00007D116492800FFF740FF00230400B860F8
:1055E00003600122019B13420AD0310022002800EF
:1055F000FFF73CFF070031002800FFF790FE3E0058
:10560000019B5B1001930CD02068002807D1220079
:1056100021002800FFF72AFF002320600360040018
:10562000DFE73000FEBDC046609000007102000060
:10563000F0B50D0017002B69541185B0E3180293E3
:10564000013301934968AB680390019A934234DBBC
:105650000398FFF72CFE0023020006001900143205
:10566000A3422DDBE343DB171C402B001F21A400CA
:1056700014192A69143392009A180F4024D001316A
:10568000C91B8C4600211868B84001436046216060
:1056900002CB0434C1409A42F5D82160002902D0DF
:1056A000029B02330193019B0398013B3361290064
:1056B000FFF735FE300005B0F0BD01315B00C4E7F7
:1056C000980011500133CBE702CB02C49A42FBD8B9
:1056D000E9E70A69036930B59B1A0ED192001430CC
:1056E000143184188918043C043922680D68AA42D0
:1056F00005D0AA42924101231343180030BDA042B5
:10570000F1D3FAE7F0B50D0085B0070011002800CD
:105710001400FFF7DEFF061E08D101003800FFF776
:10572000C6FD01234661036105B0F0BD012301936D
:10573000002804DB23002C001D0000230193616876
:105740003800FFF7B4FD2F000022019B2669C360DB
:105750001434B300E31802932B6914379B00FB1831
:10576000039303009446143320CC04CF0192AAB2D1
:1057700094446A46614692882D0C8A1A0199090C54
:10578000691A151449190D1492B209040A431A60D2
:10579000039AAC460433BA42E6D802991A008C4206
:1057A00005D3043A1368002B0ED00661BCE704CC85
:1057B00091B261440D14120C5219151489B21204DD
:1057C0000A43AC4604C3E8E7013EEAE7F7B51D002B
:1057D0000121089F1400FFF76AFD2B036D000600EE
:1057E0001B0B6D0D24D10193002C27D0684600942B
:1057F000FFF704FE009C00281ED0019B20211A0008
:10580000091A8A40C340224372610193019CB4612A
:10581000631E9C4101343461002D18D0124BED18E9
:1058200035232D183D60181A099B18603000FEBD05
:10583000802252031343D6E77461E7E701A8FFF71C
:10584000DDFD0124019B346173612030E4E7074BE7
:10585000C018074B3860E3189B00F3185869FFF72E
:10586000B3FD6401201ADFE7CDFBFFFFCEFBFFFF96
:10587000FFFFFF3F4A4370B51100140000F052F8DB
:10588000051E03D022000021FDF709FE280070BD8F
:1058900070B50500002910D00C1F2368002B00DA1A
:1058A000E418280000F0AEFA1D4A1368002B05D159
:1058B00063601460280000F0A6FA70BDA34209D905
:1058C000216860188342F3D118685B684118216031
:1058D000EEE713005A68002A01D0A242F9D91968EC
:1058E0005818A0420BD12068091858181960824234
:1058F000E0D110685268411819605A60DAE7A04296
:1059000002D90C232B60D5E721686018824203D1AD
:10591000106852684118216062605C60CAE7C04646
:105920007C080020032370B5CD1C9D43083506007C
:105930000C2D1ED20C25A9421DD8300000F062FAB1
:10594000254A14682100002919D1244C2368002B12
:1059500003D1300000F088F920602900300000F009
:1059600083F9431C2CD10C233000336000F04BFA38
:1059700003E0002DDFDA0C233360002070BD0B68DC
:105980005B1B1AD40B2B03D90B60CC18256003E0EA
:105990008C420ED163681360300000F034FA2000AE
:1059A00007220B30231D9043C31AE7D05A42E2501E
:1059B000E4E74B6863600C00EEE70C004968C2E75F
:1059C0000323C41C9C43A042E0D0211A300000F005
:1059D0004BF9431CDAD1C6E77C0800208008002080
:1059E000936810B5013B9360002B05DA9469A342DC
:1059F00008DBCBB20A2B05D01368581C1060197055
:105A0000C8B210BDFEF706FBFBE7F8B506000F00B5
:105A10001400D518AC4201D1002007E021783A00EB
:105A20003000FFF7DDFF0134431CF3D1F8BD000067
:105A3000F0B59FB006000F0014000593002804D0B5
:105A40008369002B01D1FFF715FB7F4B9F425CD18F
:105A50007768BB891B0762D53B69002B5FD00023A9
:105A600006AD6B6120336B761033AB760294029CEB
:105A70002378002B5DD1029BE31A04930DD0049B85
:105A8000029A39003000FFF7C0FF431C00D1CCE080
:105A90006A69049B944663446B612378002B00D1B0
:105AA000C3E00122002352426A6002A95432521814
:105AB00001342B60EB60AB601370AB65217805227D
:105AC0006248FFF7E9FB631C9C46002835D1296832
:105AD000CB0604D5532302AA20309B1818700B075D
