:10000000E82C0020912000008D2000008D200000B1
:1000100000000000000000000000000000000000E0
:100020000000000000000000000000008D20000023
:1000300000000000000000008D2000008D20000066
:100040008D2000008D2000008D2000008D200000FC
:100050002D0300008D2000008D2000008D20000069
:100060008D20000031090000410900005109000005
:100070006109000071090000810900008D20000065
:100080008D2000008D200000251D0000351D000082
:10009000451D000000000000000000008D20000051
:1000A0008D200000000000008D20000000000000F6
:1000B0000000000010B5064C2378002B07D1054B3B
:1000C000002B02D0044800E000BF0123237010BDC4
:1000D0007800002000000000C0610000084B10B54F
:1000E000002B03D00749084800E000BF0748036819
:1000F000002B00D110BD064B002BFBD09847F9E731
:10010000000000007C000020C0610000C061000011
:100110000000000070B50020084B98470500084C0F
:10012000FA218900A047074B186007492800A0471B
:10013000064B18600522064B1A6070BD291A000094
:10014000114D00000400002040420F00000000207C
:1001500010E000E030B5084B1C68084A00258021FB
:10016000490206E0002C04D05460956013680B42ED
:10017000FCD00138F6D230BD0000002010E000E0D5
:100180000C4B1B68002B10D1EFF31083002B09D10F
:1001900072B6BFF35F8F0022074B1A700132074B14
:1001A0001A7002E00022054B1A70024A13680133EC
:1001B0001360704794000020080000209800002081
:1001C000084B1A68013A1A601B68002B09D1064BCC
:1001D0001B78002B05D00122044B1A70BFF35F8FF0
:1001E00062B67047940000209800002008000020AC
:1001F000F0B5474680B482B001AC01266670002796
:10020000A770267021001320274DA847274B98463A
:1002100080231B03424693612770667021001C20D7
:10022000A8476670A770267021005220A8472100B9
:100230003E20A84721003F20A84721002F20A847A3
:1002400021001420A8478022D202194B9A61803BDA
:100250008022D2059A61802212069A6180221202BF
:100260009A6180235B0342469361277021005320EB
:10027000A847104A136A802189030B4313620422A2
:100280000D4B1A806B469E70DF7005236A46137013
:10029000567069460920094CA04769460C20A047C2
:1002A00002B004BC9046F0BDA1040000004400412F
:1002B000004500410004004000540042391C000089
:1002C0001723002A0DD18B00074A9B58002B03D11E
:1002D00089008850002304E0834201D01D2300E000
:1002E000002318007047C04670070020172300291C
:1002F00007D100221F2800D8034A01238340D3607E
:10030000002318007047C04600180040172300293A
:1003100007D100221F2800D8034A0123834093609D
:10032000002318007047C0460018004070B5002236
:10033000154B1A7000231F25144E134C1F2B19D96F
:100340000FE0002100E012490A619B009B59002B3D
:1003500000D0984723780133DBB223700F2BEDD9FF
:1003600011E02900194001228A4000210969114247
:10037000E7D1EFE72900194001228A4004490969C1
:100380001142E0D1E6E770BD6C0700207007002045
:1003900000180040044A117802230B43137053786D
:1003A0005BB2002BFBDB70470018004000B583B048
:1003B000124A916940230B43936101A900230B70FA
:1003C00005200F4B984705200E4B98470E4A117891
:1003D00001230B43137053785BB2002BFBDB0B4BF9
:1003E00019004031002204C39942FCD11022084B6D
:1003F0001A60084B984703B000BDC0460004004097
:10040000411B0000B51A00000018004070070020D2
:1004100000E100E095030000002303604360012237
:100420000272427283720233C3727047F0B583B0B6
:1004300005000C0001A900234B70CB7023790B70D1
:10044000237A8B702078144B984700201F2D00D8FA
:100450001248072129408900E27AA37A002B01D0B3
:1004600008231A43EB089B00C3189E690F278F408F
:10047000BE438A4032439A61637A002B05D04269B9
:100480000123AB401343436104E043690122AA40C6
:100490009343436103B0F0BD391C000000180040D5
:1004A00000B583B001AB80221A700A785A704A787E
:1004B0009A708A78DA701900014B984703B000BD32
:1004C000391C000010B5490840230024814201D2A4
:1004D0000AE01C00091A631C9BB28842F9D9402328
:1004E000FF2C01D814800023180010BDF0B55F4622
:1004F00056464D464446F0B489B00C00059212AA07
:10050000117802004A434025A24200D9C6E0002BE0
:1005100051D1020008000021644DA84783462600FF
:1005200000270023002400930194002200233F2091
:1005300020218C461F390296039720246442041917
:1005400003D40D00A540A84604E06446241A0D001B
:10055000E540A8460C008440A14614001D00A418E4
:100560005D4122002B0046465F463E4203D00E000E
:10057000264332002B00029C039D9D420FD801D1DF
:1005800094420CD8029C039D121BAB414D46009E29
:10059000019F35433C0046463443009501940138A1
:1005A000CBD20022012300980199121A8B41120C20
:1005B0001B041A436FE00022012B6CD1630F0493DC
:1005C000E30098460A0000230021384CA0470400AD
:1005D0000D0000239C46069320339B46012663466C
:1005E000079300230293002200233F2100940195EA
:1005F0000F0020214942791803D4300088408446F6
:1006000004E05946C91B3000C84084463100B94057
:100610008946100019008018594102000B00444619
:100620004D462C40A2466446049D2C40A4465446A8
:1006300065462C4303D03400044322000B0000988D
:10064000019999420AD801D1904207D8009801999E
:10065000121A8B410299484601430291013FC8D2C8
:10066000009C019D0299079A8B1ADB0810498B4266
:100670000BD9069B0133DBB219000693130001333B
:1006800007930829ADD1402508E04025069A082A9D
:1006900004D052031A43059B1A800025280009B094
:1006A0003CBC90469946A246AB46F0BD294E0000A0
:1006B000FF1F000010B582B004000E4B1B78002B0A
:1006C00001D000290DD001A90C7013200A4B9847C6
:1006D00013200A4B9847074B5C7001221A700020C8
:1006E00006E0044B5B78834201D01D2000E000202F
:1006F00002B010BD9C000020411B0000B51A000094
:10070000444B984233D006D8434B98420DD0434BCC
:1007100098421BD06FE0424B98424AD0414B9842DE
:1007200058D0414B984266D132E0012906D00029C9
:1007300063D0022906D0032906D001E03B4867E0D8
:10074000002065E03A4863E03A4861E0012906D0BC
:10075000002954D0022906D0032906D001E03648EA
:1007600056E0002054E0354852E0354850E0012979
:1007700006D0002945D0022906D0032906D001E081
:10078000304845E0002043E02F4841E02F483FE05B
:10079000012906D0002936D0022906D0032906D027
:1007A00001E02B4834E0002032E02A4830E02A48BB
:1007B0002EE0012906D0002927D0022906D00329DE
:1007C00006D001E0254823E0002021E024481FE076
:1007D00024481DE0012906D0002918D0022906D09E
:1007E000032906D001E0204812E0002010E01F4855
:1007F0000EE01F480CE000200AE01E4808E003203D
:1008000006E01D4804E01D4802E01D4800E01D48C8
:100810007047C0460010004200080042000C004231
:1008200000180042001C00420014004203000500B2
:1008300003000600030007000300010003001E0080
:1008400003001F0002000D0002000E0002000F0056
:1008500003001100030012000300130005003F0015
:1008600005003E00050052000300170003001800B9
:10087000030019000300040002000C000300100034
:10088000050053000300160030B587B00C4B6A46D4
:1008900032CB32C232CB32C2009B834206D001231C
:1008A0009A0069465258824203D100E00023D8B230
:1008B00003E00133062BF3D1002007B030BDC04662
:1008C0001C6000007047C046F0B50A4B1B78002B37
:1008D0000CD1094F094E0A4D0024DE515A191460FB
:1008E0000433182BF9D10122024B1A708000024BFD
:1008F000C150F0BD9E000020A0000020C5080000EF
:10090000B007002010B582B00400062205496846F1
:10091000054B98472000054B98476B46185602B088
:1009200010BDC04634600000CD4E000089080000B4
:1009300010B5024B1B680020984710BDA000002096
:1009400010B5024B5B680120984710BDA000002045
:1009500010B5024B9B680220984710BDA0000020F4
:1009600010B5024BDB680320984710BDA0000020A3
:1009700010B5024B1B690420984710BDA000002051
:1009800010B5024B5B690520984710BDA000002000
:10099000F0B557464E464546E0B48AB005000E0015
:1009A000140029600B689B0700D48CE0936A0593C0
:1009B000D36A0693136B0793536B089300271F2387
:1009C0009946F9B2BB0005AA9858002802D1300018
:1009D0008F4B9847431C29D00204130C9846000CF7
:1009E000C1B200239C46030604D44B09DB01894AAB
:1009F00094469C444B460B406046C01840300078FB
:100A0000824680205246D2070AD55B0863443033C1
:100A10001878C0B2CB0701D5000901E00F231840B8
:100A2000804503D000232B601C20EAE00137042F0F
:100A3000C7D11320784B984722780021012A12D180
:100A400004AA0100A069754B984703001720002BEA
:100A500000D0D6E0337BDBB204AA127805309A428C
:100A600000D0CEE00C216368A2681343E268134310
:100A70000B43217C627C002A01D080221343A27C9C
:100A8000002A02D0802292021143E27C002A02D086
:100A9000802292001143227D002A02D080229201FE
:100AA0001143306802221343834208D173688B429A
:100AB00005D123786B71237CAB710020A1E000236A
:100AC0002B601C209DE00B680520DB0700D598E01B
:100AD0000800534B984753490A6A871C0123BB40BF
:100AE00013430B6209A92427E35D0B701430C3B2D2
:100AF000019318004C4B984701984C4B9847E05D88
:100B000000214B4B98472378012B03D132680B33DC
:100B1000134333602E6804AB80221A7000225A708F
:100B200001219970DA702378002B01D104AB9A70FF
:100B3000A36A0593E36A0693236B0793636B089399
:100B40000027F9B2BB0005AA9858002802D130004E
:100B50002F4B9847431C06D002AB1872000CC0B252
:100B600004A9344B98470137042FEAD123786B71DD
:100B7000237CAB71A37CEB71237D2B72002202AB33
:100B8000DA802378012B14D12868254B984714303C
:100B9000C0B2214B9847010002AB9A1DA0691F4BC0
:100BA000984703001720002B2BD102AB06331B788C
:100BB00033736368A2681343E2681343227C617C49
:100BC000002903D11C498978890701D580210B436D
:100BD000A17C002902D0802189020A43E17C0029FE
:100BE00002D0802189000A43217D002902D0802182
:100BF00089010A4331680B433360736813437360A0
:100C000000200AB01CBC90469946A246F0BDC046E2
:100C100001070000004400415D1B0000C504000006
:100C20008908000000040040411B0000B51A0000C4
:100C3000B5060000391C00000020004110B54479C1
:100C40001523012C6ED1047A0023002C6AD1002ACE
:100C500058D04B78002B44D003681B7EDB0710D4A0
:100C60000B78D9090022002904D15A09D2012E4952
:100C70008C4662441F210B401E3999409161052327
:100C800050E00B78DC090022002C04D15A09D20173
:100C9000254CA44662441F2423401E3C9C405461C2
:100CA00003681A7ED20701D58A789A62C279002336
:100CB000002A37D102680421137E0B42FCD0117E3A
:100CC000002349072ED5538B5B0701D5042353839B
:100CD0008379012B02D1936A002323E0936A0023D6
:100CE00020E00B78D9090022002904D15A09D20149
:100CF0000D498C4662441F210B401E3999405161B9
:100D000000230FE00B78D9090022002904D15A09E9
:100D1000D20105498C4662441F210B401E3999407F
:100D200091610023180010BD00440041F0B55F46FA
:100D300056464D464446F0B491B005000C001600EE
:100D400029600800B94B984722680523D20700D5CF
:100D500064E122681733920700D55FE1B4490A6A5B
:100D6000871C1B3BBB4013430B620FA92D27F35D70
:100D70000B701430C3B202931800AE4B9847029820
:100D8000AD4B9847F05D0021AC4B9847F37A6B71FF
:100D90002423F35CAB712523F35CEB71F37E2B72A0
:100DA000337F6B722B6899461800A04B984714301C
:100DB00000220E2306A98C4663441A80328A0292CE
:100DC0008023DB019A421AD004D880239B019A42E7
:100DD0000BD004E1C023DB01029A9A420AD080239F
:100DE0001B029A4200D1FFE0F9E0102306930F3B6B
:100DF0000793FDE008230693073B0793F8E0336869
:100E00000493F3689B4673690393337E98462623C5
:100E1000F35C059373689A46002B15D080235B051D
:100E20009A4536D12723F35C002B36D1336A1F0055
:100E3000C0B2834B984701000E2206AB9C46624429
:100E40003800804B984725E008230693002307933A
:100E50002723F35C002B0BD0069B0093079B0E22ED
:100E600006A98C466244B16A306A774FB84711E0F0
:100E7000336A1F00C0B2724B98470100069B009373
:100E8000079B0E2206A88446624438006E4FB8477E
:100E900000E00020031E00D0C0E0737E002B02D0D3
:100EA000B37E4A4693732A68029FD369002BFCD114
:100EB0000E3306AA944663441B884A469381049BDA
:100EC0005A461343039A1343524613433B43424645
:100ED00012021343059A57071F432723F35C002B85
:100EE00001D104331F43717E8902337F5B021943B2
:100EF000737F1B0219432423F35C5B0419432523EE
:100F0000F25C12041143F37A19433389FF2B04D0A6
:100F1000802252041743194305E0F37E002B02D0D0
:100F20008023DB041F432C23F35C002B03D1474BAE
:100F30009B789B0701D580231F432A68D369002B28
:100F4000FCD14B4659602A68D369002BFCD14B4633
:100F50001F600EAB80221A7000225A70DA709A70ED
:100F6000336B0A93736B0B93B36B0C93F36B02931A
:100F70000D9300270EAEF9B2BB000AAA98580028BC
:100F800002D12000324B9847431C05D03070000C32
:100F9000C0B231002F4B98470137042FEBD100230B
:100FA000EB602B616B61AB61EB612B62AB626B62DF
:100FB0000022EB85AB853033EA540133EA54013328
:100FC000EA540133EA542868184B98470400224930
:100FD000224B9847A400224BE55000231EE010232B
:100FE00006930023079303E003230693002307934C
:100FF00033680493F3689B4673690393337E984682
:101000002623F35C059373689A46002B00D11FE7F3
:1010100080235B059A4500D104E73EE7180011B034
:101020003CBC90469946A246AB46F0BD89080000FC
:1010300000040040411B0000B51A0000B506000086
:101040005D1B0000C5040000ED040000002000410D
:1010500001070000391C00004D120000C908000003
:10106000B0070020C2791C23002A0ED0C28D92B294
:10107000173B002A09D10368DA69002AFCD11985D7
:1010800002211A7E0A42FCD0002318007047C04695
:1010900082791C23002A30D0828D92B2173B002A1D
:1010A0002BD10268107E400727D5D369002BFCD1D5
:1010B000538BDBB298061DD0980703D502235383C8
:1010C00018331AE0580703D5042353831A3314E066
:1010D000D80703D50123538312330EE0D80603D576
:1010E00010235383323308E09B0603D52023538318
:1010F000213302E0138D0B80002318007047C04697
:10110000F0B54F4680B482B0040001911720002A48
:1011100049D0E3790530002B45D02768FB69002BC7
:10112000FCD191460025012620E03A7E324204D1CE
:10113000012B2AD0013B002BF7D16A1C92B2019BF4
:101140005B5D6179012902D099B2150005E0A91C07
:101150008DB20199895C090219432000144B98470C
:101160004A46013A93B29946002B16D03B7E334251
:10117000E3D1104BD9E73A7E0A4208D1012B08D0BF
:10118000013B002BF7D100200DE012200BE00020E6
:1011900009E0122007E0002005E03B7E9B07FAD41F
:1011A000044B0221E7E702B004BC9146F0BDC04603
:1011B00065100000FFFF0000F0B5574680B484B012
:1011C000040001911720002A38D0A3790530002BA4
:1011D00034D026689246002504272AE0327E3A421F
:1011E00004D1012B23D0013B002BF7D1002302AA0D
:1011F000D380911D2000134B984700281ED16B1CF3
:101200009BB202AAD28801994A556179012905D178
:10121000A91C8DB2120A0199CA5400E01D00524661
:10122000013A93B29A46002B03D1002006E0122027
:1012300004E0337E3B42D9D1034BCFE704B004BC7A
:101240009246F0BD91100000FFFF0000F8B580004D
:10125000604BC5582C68E369002BFCD1237EA67D2A
:101260001E403023EB5C3122AF5C1F40F30722D5D8
:10127000EB8D9BB2002B1CD0AA6A1378DBB2511CF9
:10128000A9626979012901D09BB204E05178090271
:101290000B430232AA62DB05DB0D2385EB8D013B9C
:1012A0009BB2EB85002B06D1013323750133A37567
:1012B00001E001232375B30709D50223237500221A
:1012C0003133EA54FB0702D52800EB6898477307CF
:1012D00060D5AB8D9BB2002B5AD0638BDBB21A0763
:1012E00002D43F22134001E037221340002B2DD0BF
:1012F0009A0705D51A223223EA54303B63831FE054
:101300005A0705D51E223223EA542E3B638317E089
:10131000DA0705D513223223EA54313B63830FE009
:10132000DA0605D542223223EA54223B638307E0E2
:1013300020221A4204D021323223EA54123B638322
:101340007B0727D528006B69984723E0238DDB05B1
:10135000DB0DDAB2696A0A706A6A511C69626979DE
:10136000012904D11B0A53706B6A01336B62AB8D88
:10137000013B9BB2AB85002B0CD1043323750022BB
:101380002E33EA54BB0705D528002B69984701E0A6
:1013900004232375F30607D5102323752376FB0654
:1013A00002D52800EB699847B30607D5202323759B
:1013B00023763B0702D52800AB699847330707D54A
:1013C000082323752376BB0602D52B6A280098478D
:1013D000F8BDC046B007002010B5082803D880002B
:1013E0001B4B1B589F46002030E01A4B18692DE01C
:1013F000194B1B6A9B059B0F1848D84026E0154BDC
:10140000586923E0134B1B68022018401ED0124974
:101410001022CB681A42FCD00E4B1B685B0714D518
:1014200000200F4B98470B4B9B681B041B0C584329
:101430000CE05023084AD35C00205B0706D5054B1F
:10144000D86803E08020000200E0064810BDC046D6
:101450003C600000B80000200008004000127A0044
:101460005D1B0000006CDC0270B50C4C236A017837
:10147000857842780120024092014026B34313430D
:1014800002002A40D2017F308343134303220A40E3
:10149000120203490B401343236270BD0008004051
:1014A000FFFCFFFFF0B557464E464546E0B41C4EE4
:1014B000B3699C46417805780779C37899464479A1
:1014C0008378012003409B009A460422904662469E
:1014D00043469A43130052461A4313000140C90081
:1014E000082293430B434A460240920140218B431A
:1014F00013430740FF01802293433B43793A154051
:101500002D02084F3B402B4304402003064C1C4057
:101510000443B4611CBC90469946A246F0BDC04647
:1015200000080040FFF8FFFFFFEFFFFFF0B55F4648
:1015300056464D464446F0B483B02E4EB38A9C4680
:10154000457803785A425A41914683789B46C3783E
:1015500002799046477B027B0192847B8268264811
:10156000426101204A469200914604229246624618
:1015700051468A4394464A4661460A439446424647
:101580000240D200904608229146624649468A436C
:101590009446424661460A43944603401B0110228A
:1015A0009046624641468A431343594601404901E9
:1015B000202293430B43019A0240920140218B4326
:1015C00013430740FF01802293433B43793A154080
:1015D0002D020A4F3B402B4304402003084C1C4083
:1015E0000443B48203B03CBC90469946A246AB4645
:1015F000F0BDC04600080040B8000020FFF8FFFF23
:10160000FFEFFFFF10B5037A9B061A0C43899B0579
:101610009B0D1343194C63608179C3791943438847
:10162000828813430B434278D2011343236003782B
:10163000042B0FD1037B9B06028A13431900C38935
:101640001B040F4A13400B43A360216804230B4380
:10165000236011E0202B0FD1037B9B06028A1343EA
:101660001900C3891B04064A13400B43034A9360C5
:10167000136804490B43136010BDC046B800002036
:101680000000FF0324040000082803D88000254B35
:101690001B589F46172044E0234A116A02230B433C
:1016A000136200203DE0204A916902230B439361BD
:1016B000002036E01C4A118A02230B4313820020CB
:1016C0002FE0194A918A02230B439382002028E0DD
:1016D00016490B68022213430B60134B9A841900BE
:1016E0000E32CB681A42FCD0104A91680E4BD96278
:1016F00052689A6200229A8419001032CB681A420A
:10170000FCD00A4B1B689BB2074A9384002008E078
:1017100005494422885C022303438B54002000E0E7
:10172000002070476060000000080040B800002002
:10173000F0B557464E464546E0B490B0C222D200BE
:10174000624B9A6062494B681E2293431A3A1343D4
:101750004B60013A01AB1A7000245E4DE0B201A962
:10176000A8470134252CF9D10CA80023037080224E
:1017700012028260C3700122027103738373062117
:10178000417082704373544B98470520534B9847E0
:101790004E490222CB681A42FCD04C498A8A8023E7
:1017A00013438B824E4C2368DA048869520E12046C
:1017B0004C4B034013438B610AA801234370837091
:1017C00003710722027000254571C370464B98478C
:1017D0000420424B984705AB00225D809D809A71A2
:1017E000DA713F2159813B3919705A7023689B0E79
:1017F0003F2B00D1203B05A80372B723DB000382F7
:10180000072303733833C381384B984704A8002556
:10181000457005708570364B984706202F4B9946CA
:101820009847344B984701AC012666606570257275
:10183000657205232370210001202F4B984698479D
:1018400001202E4FB84765706572042323701C3346
:101850009A466360267221000220C0470220B847E2
:1018600065702572657203232370534663602100FF
:101870000420C0470420B847267021000020154BE3
:10188000984700201E4B98470720C8470F49D02291
:10189000CB681340D02BFBD11A4A0023137253722A
:1018A0009372D37201A901224A604B700B724B7282
:1018B00007330B700020104B984700200F4B9847C0
:1018C00010B01CBC90469946A246F0BD00080040EE
:1018D00000400041411B00002D150000891600004A
:1018E00024608000FFFF80FFA514000005160000A3
:1018F00069140000091900002D190000E519000005
:10190000B51A000000040040064A916908230B4301
:1019100093610122044B1A7019000B781342FCD119
:101920007047C04600040040000C004070B506003F
:1019300005000C78240204434B78002B02D080234E
:10194000DB021C434B7A002B02D080231B031C4379
:101950004868012818D9431E184210D1022806D918
:101960000223002201325B009842FBD800E00022F3
:1019700012023243150080235B031C4304E005027E
:10198000354380239B021C430B7A002B02D080231B
:101990009B031C430F4A53785BB2002BFBDB0E4BBF
:1019A00098470E4B1E700B4A53785BB2002BFBDB43
:1019B000084B9D601A0053785BB2002BFBDB054A95
:1019C000516880235B020B401C435460044B9847D2
:1019D00070BDC046000C004081010000080C0040B2
:1019E000C101000010B504000B4A53785BB2002B14
:1019F000FBDB0A4B98470A4B1C70074A53785BB2D3
:101A0000002BFBDB044A5368802149020B435360DF
:101A1000044B984710BDC046000C004081010000F7
:101A2000040C0040C101000070B504001A4A53784C
:101A30005BB2002BFBDB194B9847194B1C70164A05
:101A400053785BB2002BFBDB134E7068C004C00EF2
:101A5000144B98470500124B1C707668F602F60F7F
:101A6000114B1C700C4A53785BB2002BFBDB0A4B0A
:101A70009C682402240C0D4B9847002E07D1012CA2
:101A800007D9210028000A4B9847050001E00134DE
:101A9000E540280070BDC046000C004081010000F8
:101AA000040C0040D9130000080C0040C1010000E4
:101AB000114D000010B50400064B9847064B1C70F2
:101AC000064A51888023DB010B435380044B98471F
:101AD00010BDC04681010000020C0040000C004017
:101AE000C101000010B504000F4B98470F4B1C704C
:101AF0000F4B5A881205100F59880E4A0A405A8017
:101B000059880D4A0A405A8019008022D2014B8818
:101B10001342FCD106494C880202064B2340134372
:101B20004B80064B984710BD81010000020C00401D
:101B3000000C0040FFF0FFFFFFBFFFFFC1010000EE
:101B400010B50C7824020443024B9847A4B2024B10
:101B50005C8010BDE51A0000000C004010B50400C8
:101B6000064B9847064B1C70064B5C882405240FD7
:101B7000054B98472000054B984710BD8101000098
:101B8000020C0040000C0040C1010000291A0000B6
:101B900030B5D378002B1ED11378802B04D01B06D0
:101BA00080246402234300E0002354780225AC43E0
:101BB0000AD19478002C03D18024A402234302E0AC
:101BC000C024E402234341605478013C012C12D824
:101BD000184C23400FE041600B041B0CA024E405CB
:101BE000234383620B0CD024240623438362D378DF
:101BF000002B18D01CE00C04240CA025ED052C4370
:101C00001C4384620C0CD0252D062C431C4384629B
:101C1000D478002C0CD15B0305D59378012B01D12E
:101C2000816100E041615378013B012B00D8816064
:101C300030BDC046FFFFFBFF10B503000A00C1091D
:101C40000020002904D15809C00105498C46604490
:101C50001F210B401E399940024B984710BDC046CA
:101C600000440041911B00007047C04610B5054B71
:101C70009847054B9847054B9847054B9847054BA8
:101C8000984710BD31170000F1010000691C0000E9
:101C9000AD030000691C0000931C9B001950022A30
:101CA00004D1027E1023134303760BE0032A04D1F0
:101CB000027E20231343037604E001239340027E37
:101CC000134303760020704770B58000144BC5584D
:101CD0002B689C7B2B7E1C406B7E1C40E30705D54C
:101CE0002800AB68984701232A689373A30705D59A
:101CF0002800EB68984702232A689373E30605D50A
:101D000028002B69984710232A689373A30605D5EA
:101D100028006B6998472B6820229A7370BDC046D3
:101D2000C807002010B50020014B984710BDC046E1
:101D3000C91C000010B50120014B984710BDC046DA
:101D4000C91C000010B50220014B984710BDC046C9
:101D5000C91C000030B585B001AA0B4B32CB32C292
:101D6000019B98420AD0029B984205D00023039A17
:101D7000824205D1023302E0012300E00023DBB2FE
:101D8000180005B030BDC04684600000F0B54F4675
:101D90004646C0B487B004000E0090460800924B3F
:101DA00098478146914D29000C31032205A8904F98
:101DB000B84729001031062203A8B8470023A360C2
:101DC000E36023616361237663764B469A00894B17
:101DD000D450266043469B78082B04D117204A46EE
:101DE000D20700D4FBE0237133880520DB0700D540
:101DF000F5E0F37B1730DB0600D5F0E033889B0776
:101E000000D5ECE043461B7C002B0CD002A901233B
:101E10008B700022CA704246127E0A704B70434695
:101E2000187D754B984743461B7F002B0DD002A9A8
:101E300001238B700022CA704246526A0A704B70AE
:101E400043461B6AD8B26C4B98476C490B6A4A46AA
:101E5000520003A8125A13430B6243469B78082B87
:101E600006D10B6A4A4601325200125A13430B62E2
:101E700001A943461B780B7005AB4A469D5C2800C0
:101E80005F4B984728005F4B9847434698789B796B
:101E900002001A43434618899B8803431A431000E3
:101EA00043465B78002B02D080231B011843216836
:101EB0007F22CB7B9343FCD130804346587B431E2B
:101EC0009841800043469B7B002B01D0012318439F
:101ED00021687F22CB7B9343FCD1FF3333710028F1
:101EE00005D021687F22CB7B9343FCD170714346A0
:101EF000987ADB7A002B01D01023184343461B7BD2
:101F0000002B01D02023184321687F22CB7B9343F1
:101F1000FCD1B07122687F21D37B8B43FCD1237924
:101F2000042B05D0082B41D01720002B57D124E0DB
:101F30007F21D37B8B43FCD128334246D35C33745F
:101F400021687F22CB7B9343FCD129334246D35C6B
:101F5000337521687F22CB7B9343FCD12A334246E1
:101F6000D35C337621687F22CB7B9343FCD12B3328
:101F70004246D35C7376002031E07F21D37B8B43D4
:101F8000FCD143461B8D338221687F22CB7B934358
:101F9000FCD143465B8D338321687F22CB7B934307
:101FA000FCD143469B8D7383002018E07F21D37BB7
:101FB0008B43FCD143469B6A336121687F22CB7BF4
:101FC0009343FCD14346DB6AB36121687F22CB7B1C
:101FD0009343FCD143461B6BF3610020FFE707B03E
:101FE0000CBC90469946F0BD551D00008460000071
:101FF000CD4E0000C8070020391C0000000400403E
:10200000411B0000B51A000002687F21D37B8B437F
:10201000FCD10379042B05D0082B09D00020002B1C
:1020200008D102E0107CC0B204E0108A80B201E066
:102030001069FFE77047C04630B504687F25E37B31
:10204000AB43FCD10379042B05D0082B14D0172007
:10205000002B19D107E01720012915D8D2B2611839
:102060000A76002010E0172001290DD892B20C3119
:1020700049000A53002007E01720012904D806313F
:1020800089000A510020FFE730BDC046FEE7C04688
:1020900070B52E4B2E4A9A4203D02E4B2B4A9A42B1
:1020A00004D32D4B2D4A9A4210D31EE02C4A294BC3
:1020B00003339B1A9B0801339B00002223482449C9
:1020C0008C58845004329A42FAD1EAE7254A224BCE
:1020D00003339B1A9B0801339B0000221F480021F9
:1020E0001418216004329A42FAD11F4AFF211F4B73
:1020F0008B439360FD3990235B001D4AD1501D48EE
:10210000C3780324A34302221343C370C3780C266D
:10211000B34308210B43C370174B987B3025A8436A
:102120000500202028439873987BB043014399739E
:10213000997BA1430A439A73104A516880230B4349
:1021400053600F4B98470F4B9847FEE70000002065
:10215000C061000078000020E80C0020780000201A
:10216000040000207C00002000ED00E000000000E2
:102170000070004100500041004800410040004113
:10218000814E0000314B0000F0B5474680B40C0092
:10219000904600280DD1002A0EDD8F18084E094DFB
:1021A000306821002B6898470134A742F8D1404697
:1021B00003E00120404200E0002004BC9046F0BD56
:1021C000DC070020D4070020F0B5474680B40E009D
:1021D00015000138022811D8002A12D000240C4B17
:1021E00098460C4F43461868315D3B689847002875
:1021F00009DB0134A542F5D1200006E00120404270
:1022000003E0002001E00120404204BC9046F0BD04
:10221000DC070020D80700200300064A1268002AC5
:1022200002D10549034A1160024A1068C3181360BD
:102230007047C046D0000020E82C0020012040421A
:102240007047C04680239B014B6000207047C0460A
:10225000012070470020704710B50D4A002313710C
:10226000537113805821535213004032002199605A
:1022700004339342FBD1074B9847074B9847074BD2
:102280009847074B9847074B9847074B984710BD0F
:10229000E007002061310000A9290000CD240000E2
:1022A00049230000C12500003D2E000010B5024B5F
:1022B0001880024B984710BDE00700208D350000C4
:1022C00010B5024B5880024B984710BDE007002024
:1022D0006D35000002308000014BC1507047C04690
:1022E000E007002010B5044B9847044B9847044B77
:1022F0009847044B984710BD492A000061330000FD
:10230000892300001D2F000010B50D4B1B68002B0A
:1023100012D05A6890420CD102E05A68824208D129
:102320008522825C1A778822825C5A7702221A728E
:1023300002E01B68002BF0D1024B984710BDC0464D
:10234000D4000020512500000022014B1A60704784
:10235000D400002000230372037743600849582209
:102360008B5A01338B52074B1B68002B03D1036040
:10237000044B186002E00360024B18607047C046CF
:10238000E0070020D400002070B54A4B1A68002AEC
:1023900000D18EE01400237A002B02D0022B6FD0E4
:1023A00083E0454B9847051E03D102232372237710
:1023B0007FE0606001262672404B89228354190A0F
:1023C000020089325170190C91701B0ED370A37BDF
:1023D0009B080122134088214354A17B114008002F
:1023E000E97AB1430143E972A17BC9081140880031
:1023F000E97A042399430143E972A37B5B08134004
:102400005A00CBB202218B431343EB722C4A13794F
:102410000133DBB213712B7313786B735378AB7387
:102420006389A27AEA731B0A2B74627B0F20024035
:1024300011006A7C0F239A430A436A74227B1201BB
:102440006B7C034013436B748123E95C0133EB5CC9
:102450001B020B431A008323E85C000403001343B0
:102460008422A85C00061843227D2169154B9847F9
:102470006A78237DD3186B702800134B984718E0B7
:10248000A24204D112680B4B1A6005E01A001368CF
:10249000A342FBD123681360094958228B5A013BA0
:1024A0008B52A3692000984703E02468002C00D0D9
:1024B00071E770BDD4000020E12400000923000072
:1024C000E0070020CD4E000095310000034B0022B4
:1024D0001A708D215A548D315A547047D8000020FB
:1024E00010B5184B1B78002B0ED08D23154AD35CEA
:1024F000002B07D08D235B00D35C0024002B1FD161
:10250000023402E0012400E000248D235C430D4BE3
:102510001C198D22002120000B4B9847102363705B
:1025200023001233220081321370190A5170190CE2
:1025300091701B0ED370054958228B5A01338B5270
:10254000200010BDD8000020DF4E0000E007002072
:1025500000230370024958228B5A013B8B5270476B
:10256000E0070020002806D08D300C4BA833FF3345
:10257000984201D30FE009480378002B0CD1074A99
:10258000A832FF3202E00378002B05D18D30904253
:10259000F9D3002000E000207047C046D80000209A
:1025A00000228523C254054A13790133DBB213712B
:1025B000037313784373537883737047E0070020E5
:1025C000F0B5094B0233002201277F42064C012659
:1025D00000251F80D000015DB14301551D710132FE
:1025E0000833642AF5D1F0BD8002002070B50B4A93
:1025F00002320023094E1488844209D1DC00A45D14
:10260000A407E40F8C4203D1DD000448401904E024
:1026100001330832642BEED1002070BD800200200F
:1026200030B50022124801240300C825AD00AC4695
:102630006344190003781C420AD18379002B0BD024
:10264000002A04D095799D4202D9020000E00200E0
:1026500008308842EED110000378022293430D32F5
:1026600013403022134303708023837130BDC04672
:10267000800200200378DB0704D401235B424380FF
:10268000002383717047C04610B5044B984700285B
:1026900001D0808800E0024810BDC046ED25000052
:1026A000FFFF000010B5034B9847002801D0024BF4
:1026B000984710BDED2500007526000070B5040098
:1026C000427A857A2D0215432BB2002B05DA427B24
:1026D000837B1B0213439D423FD16279A3791B0286
:1026E00013431E4A934238D0637BA07B00021843F9
:1026F00000211B4B9847002816D0E279237A1B0251
:102700001343164A93421FD1E27B237C1B021549D7
:1027100009881343994217D1858003780F2213400B
:102720003022134303700BE00F4B9847617BA27B71
:1027300012020A434280627AA37A1B021343838007
:102740008523E35CC37108E08388AB42F8D0C2798B
:102750008523E35C9A42DFD3F2E770BDFFFF000000
:10276000ED250000E00700202126000010B5040040
:10277000C37B007C000218431B4B984233D0E17AA4
:102780000907C90F194B984700282CD00378DB079D
:1027900029D48523E35C002B18D103780F22134042
:1027A00030221343037083790133DBB28371FF2B33
:1027B00019D10F498A1D0F4B9C46614413785B0861
:1027C0000133137008328A42F8D10CE00278130901
:1027D0000F330F242340190122400A430270002BBB
:1027E00001D1054B984710BDFFFF0000ED2500000B
:1027F00080020020260300007526000010B50400AA
:10280000C37B007C000218430B4B984204D1012388
:102810005B42E37123720EE0E37A5B0703D5E0715C
:10282000000A207207E0E17A0907C90F034B9847B5
:10283000E071000A207210BDFFFF00008926000031
:10284000F0B5474680B40600C27B077C3F021743C1
:10285000C47A2407E40FE1B238002A4B98472A4B88
:1028600098420ED000228923F254330089335A70E3
:102870009A70DA7002328823F2543000234B984762
:102880003DE0727BB37B1B0213439846204B984775
:10289000051E31D01F4B98476B7806336B700022B2
:1028A0008923EA542B0089335A709A70DA70FF2317
:1028B00042461A409446EA7343461B0A98462B74D4
:1028C0008123E85C0133EA5C120202430133EB5CD2
:1028D0001B0413431A008423EB5C1B0613430122E1
:1028E0001A7062465A7042469A70DF703F0A1F7132
:1028F0005C712800054B98473000074B984704BC93
:102900009046F0BD89260000FFFF000095310000D1
:10291000E1240000A12500005125000010B5027B34
:102920000023062A08D182685179D37810790002F1
:102930001843024B98470123180010BDA52600003C
:1029400010B5027B0023002A0FD083681B78002B70
:1029500002D0012B04D007E0054B9847030004E0A8
:10296000044B9847030000E00023180010BDC04648
:10297000D93200001D29000070B509490B1D4031F6
:10298000002401251A78002A02D0013A1A702C007E
:1029900006338B42F6D1002C01D0024B984770BD14
:1029A000A00500206938000010B50A4A131D403206
:1029B0000021197006339342FBD1074B64229A60C1
:1029C00000221A73054A1A6105490020054B9847F1
:1029D00010BDC046A0050020E005002079290000B8
:1029E00041290000D522000010B5040003685A7880
:1029F000882A1BD11B78683A9343412B16D103795F
:102A00000F2B13D90A4B984700280FD020230370AF
:102A10002379437062798523C2540622A25601337A
:102A2000C254023022792168024B984710BDC0463B
:102A3000E1240000CD4E0000002902D022230370C3
:102A400001E0242303707047F0B54F464646C0B4FA
:102A500087B00024D84DD94ED5E12378203BDAB297
:102A6000042A00D9CFE19300F3589F462423237012
:102A7000E17A0B0700D5C6E16279A3791B02134303
:102A8000CF4A934213D1E27B237C1B021343CD4AEE
:102A900012889A4203D0CA4A934200D0B3E18B070E
:102AA00002D521232370AEE122232370ABE1E27B28
:102AB000237C1B021343C24A934202D1CB0700D5A9
:102AC000A1E1627BA37B1B02BE49098813439942A3
:102AD00000D198E12000BC4B9847BC4B002200215C
:102AE0008C46A01C01921979002954D0C77A017B29
:102AF00009028846198889464146394389454BD1A0
:102B0000277B11005300944663445B00AF4AD318FF
:102B10009A78D21BD2B2072A27D84B0063445B00B5
:102B2000AA49CB18DB7819001141C90712D5E279FF
:102B3000237A1B02A34909881343994200D062E11A
:102B4000E17A0907C90FE37B207C00021843A04B00
:102B5000984758E101984100081840009B4909181E
:102B6000012090400343CB7053E1984B01994800FA
:102B70004118490059188F70CF785242D2B297400D
:102B800001223A43CA7001998C46604440001B18E8
:102B90001F221A713DE19C46013206330A2AA1D157
:102BA0006346002B00D12EE1617BA27B12020A4317
:102BB00061460A80237B8B700123CB701E330B711F
:102BC0008448854B984724E17E4B1988E27B237C1F
:102BD0001B021343994210D0E27A52070AD4200014
:102BE0007E4B9847774B1988E27B237C1B0213436B
:102BF000994202D0724A934208D1E37A9B0702D5E8
:102C000021232370FFE022232370FCE0E279237A62
:102C10001B0213438B4200D0F5E023232370F2E024
:102C2000002120006E4B9847EDE000226D4B1A709A
:102C3000607C0009C3B202339B00624A9B589846ED
:102C4000002B5AD0A71C637BA27B12021A43914629
:102C500002AB1A80E37B217C0902194302AB598045
:102C6000637C1B071B0F02AA137150718123E35C65
:102C70008220205C000218438323E35C1B0418437A
:102C80008423E35C1B0603430493DB1B6078C31AB5
:102C900013738523E35C53738623E35C9373E07AB9
:102CA000032303409C464307DB0F5B01624613434B
:102CB0000007C00F800118434B4B9C4661444B42B8
:102CC0004B419B000343F879397A090201434A4694
:102CD000521A51424A41D200134302AA9371F97821
:102CE0003A7912020A43624451424A4112011343A3
:102CF00002AA93711000C04700E00020E17ACB07E0
:102D0000DB171840E279237A1B0213432C4A9342C3
:102D10000AD1E27B237C1B022A4F3F8813439F4248
:102D200002D10B0700D401206279A3791B0213435F
:102D3000234A93423CD0234B1A88214B9A4237D0E6
:102D4000002835D0294B9847071E31D0284B98478B
:102D50007B7803337B7000228923FA543B0089334C
:102D60005A709A70DA70E27A02231A40FB7A0221D2
:102D70008B431343FB72627BA37BFA733B74812307
:102D8000F85C0133FA5C120202430133FB5C1B0462
:102D900013431A008423FB5C1B06134300221A70A2
:102DA000104A12789A70227B5A703800114B98475B
:102DB0002423237027E0C046652500009C600000A6
:102DC000FFFF0000E0070020BD260000A005002056
:102DD000A5260000E00500206938000051320000FF
:102DE000512E0000DC0500200100FFFFE12400005F
:102DF000A12500009531000020000D4B984702E00E
:102E000020000C4B98472000A847041E00D024E661
:102E100008E0E279237A1B021343074A934200D069
:102E2000E0E6D1E607B00CBC90469946F0BDC0463E
:102E30004128000051250000FFFF00000023024A46
:102E40001370024A13607047F4050020F805002053
:102E5000002902D03023037001E031230370024ABD
:102E60001378013313707047F4050020F0B547461E
:102E700080B4254B1B689C4681236246D05C01339D
:102E8000D35C1B0203431A0083236146CB5C1B0403
:102E900013438422895C090619431C4B1B7898460E
:102EA0001B4B1E78371C102E00D91027FFB2002FA5
:102EB00016D0184B1D784144174B7C1EE4B20134E8
:102EC0001C1908781A7842400A70002D01D01A7037
:102ED00002E0187842401A7001310133A342F0D168
:102EE0004346DB19094A1370F61BF6B2084B1E70F5
:102EF000002E03D032236246137002E03423624670
:102F0000137004BC9046F0BDF8050020FC050020BD
:102F1000FD050020FE0500200006002070B582B0EF
:102F2000574B1B78002B00D1A8E0564B1C68002C97
:102F300000D19EE02378342B47D14D33E15C01333F
:102F4000E35C1B020B431A008323E05C00040300D4
:102F500013438422A05C000618434B4B1978401899
:102F60004A4B1E685A6856409A685640DB685E4075
:102F70000096474B1D78002D07D004226946454B2B
:102F8000984763780433637009E00422010001A8C4
:102F9000404B9847019B9D1B6B426B41DDB23C4B04
:102FA0001B78002B04D0374B18683B4B984704E044
:102FB000344B18682900394B98470022314B1A606E
:102FC0002F4A1378013B137058E0322B56D101334E
:102FD000237033492D48334B98474FE00378303BFB
:102FE000012B48D8274B1860284D027B2A60C47BF0
:102FF000027C120222431104427C12090A436A60D5
:10300000447B827B120222431104427C1207120F7E
:103010000A43AA60427983791B0213431B04C27AD4
:103020001343EB600578312D02D14378043B4370A4
:103030008123C45C0133C25C120222430133C35CAE
:103040001B0413431A008423C35C1B061343821C16
:103050009B1A4278D31A144A137000220A4B1A7032
:103060002B00303B59425941094A117032230370F9
:1030700004E000200D4CA0470028AFD102B070BD85
:10308000F4050020F8050020FC05002000060020C3
:10309000FE050020CD4E000019330000392A000043
:1030A000280800202D370000FD05002065250000C0
:1030B000F0B583B0019000240020104D86268727AC
:1030C00012E00378112B0FD1825DC35D1B02134305
:1030D000013B9BB28355190A0200863251700124CC
:1030E000002B01D113330370A8470028E9D1002C2D
:1030F00002D00198024B984703B0F0BD652500004F
:1031000069380000F0B583B0019000240020124D12
:103110008626872715E00378162B12D1825DC35DC2
:103120001B021343013B9BB28355190A02008632EE
:1031300051700124002B04D11733037010226E3319
:10314000C254A8470028E6D1002C02D00198034BB6
:10315000984703B0F0BDC0466525000069380000FF
:103160000022074B1A60074B322199601A730649F7
:103170001961064B0A2199601A73054A1A61704752
:10318000240600201006002005310000280600203B
:10319000B130000010B504008823C35C9A0702D543
:1031A0001222027007E0C27A920702D51022027042
:1031B00001E01222027000218522A154DA0704D511
:1031C000012252426271A27104E01D4A917861713C
:1031D000D278A27105221A4203D12000194B9847D8
:1031E00003E0E27B237CE271237215490B78637262
:1031F0004B78A3724B790133DBB24B712371E179C8
:10320000237A1B020B43104A93420ED14123A37031
:10321000B93BE3700D4B98470723184001307F33CB
:10322000E05486340023637009E06123A370D93B26
:10323000E3700022FE33E25486340023637010BD35
:10324000E0070020FD270000FFFF0000FD4F000009
:1032500070B505001C4B9847041E33D01223037031
:103260006B78437000228523C254184B984707237C
:10327000184001307F33E054000C2300863358702F
:1032800000228923E254230089335A709A70DA703D
:10329000A01C6A78A91C0E4B98474123A370B93B28
:1032A000E3707733E37123726A79AB796271A3714A
:1032B000084A137863725378A37253790133DBB2EF
:1032C0005371237170BDC046E1240000FD4F000022
:1032D000CD4E0000E007002070B5027B0023032ADA
:1032E00015D10DE00378162B0DD1027B6B789A4235
:1032F00009D117230370AA787133C254873B06E0C3
:1033000085680020034CA0470028EBD1002318005B
:1033100070BDC04665250000122303707047C0468B
:103320000D4B1B68012805D0002807D02122022858
:1033300005D001E0202202E0012200E000228521E8
:103340005A5415221A700022034B1A60034958324E
:103350008B5A013B8B52704724060020E007002067
:1033600070B50024384D394E68E02378103BDAB24E
:10337000072A63D89300F3589F4601212000344B5D
:1033800098475BE08623E25C0133E35C1B02134356
:1033900005D0112323702F482F4B98474EE013235D
:1033A00023704BE02D4B1B68002B47D12B4B1C602F
:1033B00014232370601C2A4B98472A4958228B5AA1
:1033C00001338B523AE08523E35C002B1AD1627BF8
:1033D000A37B1B0223490988134399420FD1E37A47
:1033E000DB070CD51623237015227033E25400221C
:1033F000230086335A701C48174B98471EE017234A
:1034000023701BE01723237018E02000174B984708
:103410008923E05C0133E25C120202430133E35C86
:103420001B0413431A008C23E35C1B06134303D1D4
:1034300020000F4B984701E0200098472000A84744
:10344000041E92D170BDC04665250000B06000002A
:10345000512E0000280600206938000024060020B4
:10346000B9350000E0070020100600206D2700009D
:1034700051250000F8B504000B4F0C4E1F25032109
:103480000220B8470120B04728400828F7D1064F4E
:10349000064E1F2521000220B8470120B0472840D2
:1034A0008442F7D1F8BDC046B53E0000B93D0000EA
:1034B00010B50820064B98470F20064B9847064B3F
:1034C0001B78002B02D01620014B984710BDC04638
:1034D00075340000B93D0000BD06002070B50E4BEC
:1034E00098470E4B984700220D4B1A7001320D4B36
:1034F0001A700D4E0D4D1F2408210220B0470120E7
:10350000A84720400828F7D12E210438064CA047B0
:10351000A0210C20A04770BD6D3C0000893D00003B
:10352000BD060020BC060020B53E0000B93D0000ED
:1035300010B5024B1870024B984710BDBD06002015
:10354000B134000010B504000820064B98471F2333
:103550000100994320000843C1B20820024B98475C
:1035600010BDC046B93D0000B53E000030B583B087
:103570006B469D1DD880C1B22220034CA0476978BC
:103580002320A04703B030BDB53E000070B582B027
:103590006B469C1DD880C5B229002020054EB0473F
:1035A000647821002120B0472C19E1B22D20B047CA
:1035B00002B070BDB53E000010B5040019200C4BE0
:1035C00098470F200B4B984721788B1C23700131B3
:1035D000C9B22000084B98470322084B1A70084BC9
:1035E000802252039A61C046C0465A6110BDC0464F
:1035F00075340000B93D0000E5400000BC06002025
:103600000044004110B50400080000220021054BD1
:10361000984700212000044B98472000034B98470F
:1036200010BDC046053B0000993A00003D3C00003B
:10363000F0B585B0264B1B78022B47D00F20254BC9
:103640009847030742D5224B1B78012B24D1072032
:10365000204B984705006B46DC1D012120001E4FC2
:10366000B84721780231C9B21C4E3000B84702A8D1
:10367000731C029323789A1E0271F3185B784371CE
:103680005B3D8571164B9847124D1F240120A847BA
:1036900020401628FAD119E0032B17D102200D4B38
:1036A00098474009C4B2002C08D0032C05D0053C33
:1036B000634263410324E41A00E00124094B984764
:1036C0000122034B1A702000074B984705B0F0BD4C
:1036D000BC060020B93D0000B53F00003C060020BC
:1036E000E9290000B13400002133000010B5044B7B
:1036F0009847044B9847044B9847044B984710BD94
:10370000BD370000953A0000DD340000592200006A
:1037100010B5034B9847034B9847034B984710BD90
:1037200031360000E52200008538000010B5024B5C
:103730009847024B984710BD053600006D2E0000DB
:1037400030B5154B1D68002D1ED0826869688A420D
:1037500005D32C0009E05968914205D901E02B00FE
:103760000024891A596004E01C00521A2368002BB7
:10377000F1D14260002C03D023680360206009E08F
:103780000560054B186005E0002303608368436013
:10379000014B186030BDC046C006002010B5044A79
:1037A00013780133DBB213700248034B984710BD06
:1037B0003C08002010270000154C000010B5002424
:1037C000064B1C700648074B9847074B984707481D
:1037D000074B9847074B1C6010BDC0463C080020B3
:1037E0009D370000054D0000814C000010270000AF
:1037F000154C0000C00600200F4B1A68002A1AD092
:10380000824215D106E0984211D1002A03D01968EE
:10381000116003E00300084A196811601B68002B5F
:1038200009D0426859688C4662445A6003E01A0025
:103830001368002BE7D17047C0060020094B1B68B6
:10384000002B09D0834202D108E0984208D01B68BF
:10385000002BFAD1002004E0002002E0012000E06B
:1038600001207047C006002010B50400034B9847A4
:10387000002802D12000024B984710BD3D380000BF
:1038800041370000F0B583B01C4B1B78002B33D0C0
:10389000EFF3108253425341019372B6BFF35F8F2F
:1038A0000022174B1A700199144B1D78EDB21A7053
:1038B000002905D00132124B1A70BFF35F8F62B638
:1038C000AB005D196D000F4E37000DE0ED1A236857
:1038D0003B60237B012B02D120000B4B98472369CF
:1038E000002B01D0200098473468002C04D0636876
:1038F0009D42EBD25D1B656003B0F0BD3C0800202B
:1039000008000020C00600204137000010B5014B20
:10391000984710BDE94C000010B5014B984710BD09
:10392000A14C000010B50248024B984780B210BD70
:103930007408002009200000034B10211A6811733D
:103940005A7E8A435A7670477408002010B50A4C94
:1039500020680A4B98470A4B1B5C1F221A40012320
:103960009340084A1360627E1023134363762368F2
:1039700010225A7310BDC04674080020551D000067
:10398000D060000000E100E010B502000021024814
:10399000024B984710BDC046740800203920000033
:1039A000F8B54F464646C0B42D4A002313709370B5
:1039B000002193809171138151709172D1721173B2
:1039C0009173517311745361936111771362536250
:1039D00013859385013B5385224C23492000234BBB
:1039E0009847002222492000224DA847022222495E
:1039F0002000A8472068214B99469847204B9846BD
:103A00001B5C1F273B4001252A009A401D4E326057
:103A1000627E01231343637623685D731800C847F1
:103A200043461B5C3B409D403560627E1023134340
:103A300063762268102353737F21D37B8B43FCD1A1
:103A4000118802330B43138000200F4B98470F4916
:103A50000F4B9847C0B20CBC90469946F8BDC04683
:103A60004008002074080020002C00428D1D00003A
:103A700019390000991C00000D390000551D000087
:103A8000D060000000E100E0291A000040420F0071
:103A9000114D00007047C04670B503000D00144C76
:103AA000601C10221900134B9847647C124B1B7842
:103AB000002B08D012220E498320104B9847002279
:103AC0000D4B1A7005E011220949013184200B4B7E
:103AD0009847002D05D01022054901312800054BDB
:103AE0009847034B5C741820054B984770BDC0463F
:103AF000E8060020CD4E0000FA060020F144000048
:103B000055010000F0B5474680B484B006000D00B2
:103B10001400002817D000223E4B1A7002323E4B90
:103B20001A700E3201003D483D4B984698473D4F74
:103B300010233B70781C10223100C047112239003D
:103B40008320394B9847002C02D0012C12D05AE028
:103B5000314B1B78012B3DD1324E0F333370701C2B
:103B600010222E492E4B98471122310083202E4BD4
:103B700098472FE0284B1B78012B2BD01022294B84
:103B80001A70244B1B78002B16D1264E33708033CD
:103B900073740F3A254B1A7000216846244B9847DE
:103BA000102333700122310083201F4B98471022CD
:103BB00020498420204B98471A4E701C10221D4922
:103BC000174B9847112231008320174B9847114B10
:103BD00001221A70104B1C70002D02D00020022D03
:103BE00013D12D0170231D40E30008241C402C43F9
:103BF0000C4B1C708022524214435C7481320B4B7C
:103C00001A70012001E00020FFE704B004BC9046D8
:103C1000F0BDC046C406002009000020D8060020E0
:103C2000CD4E0000E806002001420000FA06002008
:103C3000993A0000C80600206943000010B5010051
:103C400010228420014B984710BDC04669430000F4
:103C500010B50122034B1A61034B1B68002B00D0E7
:103C6000984710BD00180040FC06002030B585B014
:103C7000344A0023537093703F211170324C2170ED
:103C80006370A370012269464A708B700A703F20EE
:103C90002E4B98472378DA090021002A04D15909CC
:103CA000C9012B4A944661441F2213401E3A10005A
:103CB00098408861274C227000236360A3602374BE
:103CC0006374A274E27423752332A3542000183065
:103CD000183A0021204B984780235B02E3601F4B7A
:103CE000A3611F4BA36201235B42E3621D4B23636D
:103CF0001D4B63631D4D22001D4928001D4B984735
:103D00002A68D369002BFCD1136802252B4313606A
:103D100001AC2000184B98472023019380239B037C
:103D200063602572012363720022A272E372210094
:103D30000020124B9847002200211148114B984750
:103D400005B030BD9408002098080020A1040000B0
:103D5000004400419C080020DF4E0000404B4C0016
:103D60000500530005003E0005005200D408002065
:103D70000018004291090000190400002D04000001
:103D8000513C0000C102000070B5094B1C0080349A
:103D900080252D02A561802252035A61A520400092
:103DA000044EB04765610A20B047A56170BDC046AA
:103DB000004400415501000070B582B00500EFF3EA
:103DC00010835A425341019372B6BFF35F8F0022B2
:103DD000334B1A70019C334E013233493000334B60
:103DE0009847336801211A7E0A42FCD01A7ED20716
:103DF00002D5802215439D6202211A7E0A42FCD020
:103E000004211A7E0A42FCD01A7E520712D55A8B20
:103E1000520701D504225A83224A9279012A05D1F8
:103E20009A6AD205D20D22490A8003E09A6AD2B278
:103E30001F490A8001211A7E0A42FCD01A7ED2074D
:103E400001D500229A6202211A7E0A42FCD0042186
:103E50001A7E0A42FCD01A7E002552070ED55A8BD4
:103E6000520701D504225A830E4A9279012A03D1BE
:103E70009D6AED05ED0D01E09D6AEDB200220A4953
:103E800008480A4B9847FF23234205D00122044BE0
:103E90001A70BFF35F8F62B6E8B202B070BDC04661
:103EA00008000020D4080020980800203D0C0000E5
:103EB00090080020F0B583B006000C00EFF31083EB
:103EC0005A425341019372B6BFF35F8F0022344BC5
:103ED0001A70019D334F013233493800334B9847F4
:103EE0003B6801211A7E0A42FCD01A7ED20702D515
:103EF000C02216439E6202211A7E0A42FCD004218F
:103F00001A7E0A42FCD01A7E520712D55A8B5207EB
:103F100001D504225A83234A9279012A05D19A6A4B
:103F2000D205D20D22490A8003E09A6AD2B2204912
:103F30000A8001211A7E0A42FCD01A7ED20700D5DF
:103F40009C6202211A7E0A42FCD004211A7E0A4297
:103F5000FCD01A7E520712D55A8B520701D5042283
:103F60005A83104A9279012A05D19B6ADB05DB0D41
:103F70000F4A138003E09B6ADBB20D4A13800022D4
:103F800009490848094B9847FF232B4205D00122D5
:103F9000034B1A70BFF35F8F62B603B0F0BDC0462B
:103FA00008000020D4080020980800203D0C0000E4
:103FB00090080020F0B557464E464546E0B482B022
:103FC00005000C00EFF310835A425341019372B67F
:103FD000BFF35F8F00223E4B1A70019B98463D4F06
:103FE00001323D4938003D4B98473B6801211A7E1C
:103FF0000A42FCD01A7ED20701D520229A62022101
:104000001A7E0A42FCD004211A7E0A42FCD01A7E93
:10401000520712D55A8B520701D504225A832D4AD2
:104020009279012A05D19B6ADB05DB0D2C4A1380AE
:1040300003E09B6ADBB22A4A1380631EDBB2002CCA
:1040400030D001339C46AC442027224E012000236F
:104050009A4602240421B14622E01A7E0242FCD094
:104060001A7E024201D052469A621A7E2242FCD047
:104070001A7E0A42FCD01A7E0A420DD05A8B0A429E
:1040800000D059834A469279012A03D19F6AFF05DD
:10409000FF0D01E09F6AFFB22F700135AC4501D0E2
:1040A0003368DAE700220C490A480C4B9847FF2393
:1040B0004246134205D00122054B1A70BFF35F8FB1
:1040C00062B602B01CBC90469946A246F0BDC046FE
:1040D00008000020D4080020980800203D0C0000B3
:1040E00090080020F0B5474680B482B004000D006F
:1040F000EFF310835A425341019372B6BFF35F8FBF
:1041000000223A4B1A70019B9846394F01323949C7
:104110003800394B98473B6801211A7E0A42FCD08F
:104120001A7ED20701D560229A6202211A7E0A42C3
:10413000FCD004211A7E0A42FCD01A7E520712D506
:104140005A8B520701D504225A83294A9279012AAF
:1041500005D19A6AD205D20D28490A8003E09A6AED
:10416000D2B226490A80224A927994462100012738
:104170000220042422E01A7E3A42FCD01A7E3A42FF
:1041800001D00A789A621A7E0242FCD01A7E22423C
:10419000FCD01A7E224210D05A8B224200D05C837F
:1041A0006246012A05D19A6AD205D20D134E328099
:1041B00003E09A6AD2B2114E32800131013DEDB274
:1041C000FF2DD8D100220B4909480B4B9847FF23FC
:1041D0004246134205D00122044B1A70BFF35F8F91
:1041E00062B602B004BC9046F0BDC0460800002094
:1041F000D4080020980800203D0C00009008002002
:10420000F0B5474680B482B006000D001400EFF30D
:1042100010835A425341019372B6BFF35F8F00225D
:104220004C4B1A70019B98464B4F01324B4938005A
:104230004B4B98473B6801211A7E0A42FCD01A7EFC
:10424000D20701D540229A6202211A7E0A42FCD08E
:1042500004211A7E0A42FCD01A7E520712D55A8BCC
:10426000520701D504225A833B4A9279012A05D18B
:104270009A6AD205D20D3B490A8003E09A6AD2B20B
:1042800038490A8001211A7E0A42FCD01A7ED207E0
:1042900000D59E6202211A7E0A42FCD004211A7EB9
:1042A0000A42FCD01A7E520712D55A8B520701D50A
:1042B00004225A83284A9279012A05D19A6AD205A2
:1042C000D20D28490A8003E09A6AD2B225490A80B1
:1042D000214A92799446280001260225042122E0F1
:1042E0001A7E3242FCD01A7E324201D002789A62A3
:1042F0001A7E2A42FCD01A7E0A42FCD01A7E0A425A
:1043000010D05A8B0A4200D059836246012A05D147
:104310009A6AD205D20D134F3A8003E09A6AD2B25C
:10432000104F3A800130013CE4B2FF2CD8D100227A
:104330000A4909480A4B9847FF234246134205D0D1
:104340000122044B1A70BFF35F8F62B602B004BC47
:104350009046F0BD08000020D408002098080020F6
:104360003D0C000090080020F0B557464E464546EB
:10437000E0B482B004000D0017000120564B9847AE
:10438000EFF310835A425341019372B6BFF35F8F2C
:104390000022524B1A70019B9846514E01325149EE
:1043A0003000514B9847336801211A7E0A42FCD0F5
:1043B0001A7ED20701D500229A6202211A7E0A4291
:1043C000FCD004211A7E0A42FCD01A7E520712D574
:1043D0005A8B520701D504225A83414A9279012A05
:1043E00005D19A6AD205D20D40490A8003E09A6A43
:1043F000D2B23E490A8001211A7E0A42FCD01A7EBE
:10440000D20700D59C6202211A7E0A42FCD0042108
:104410001A7E0A42FCD01A7E520712D55A8B5207D6
:1044200001D504225A832E4A9279012A05D19B6A2A
:10443000DB05DB0D2D4A138003E09B6ADBB22B4AC0
:1044400013807B1EDBB2002F30D001339C46AC447E
:104450000027234E012000239A4602240421B1465E
:1044600022E01A7E0242FCD01A7E024201D052465D
:104470009A621A7E2242FCD01A7E0A42FCD01A7E30
:104480000A420DD05A8B0A4200D059834A4692798B
:10449000012A03D19F6AFF05FF0D01E09F6AFFB269
:1044A0002F700135AC4501D03368DAE700220D49A1
:1044B0000B480D4B9847FF234246134205D001227B
:1044C000064B1A70BFF35F8F62B602B01CBC9046F9
:1044D0009946A246F0BDC0465501000008000020E4
:1044E000D4080020980800203D0C0000900800200F
:1044F000F0B557464E464546E0B406008A461400DD
:104500000120764B984700210020754B9847754F46
:10451000012275493800754B98473B6801211A7E86
:104520000A42FCD01A7ED20701D540229A620221AB
:104530001A7E0A42FCD004211A7E0A42FCD01A7E5E
:10454000520712D55A8B520701D504225A83654A65
:104550009279012A05D19A6AD205D20D64490A805E
:1045600003E09A6AD2B262490A8001211A7E0A42A5
:10457000FCD01A7ED20700D59E6202211A7E0A4222
:10458000FCD004211A7E0A42FCD01A7E520712D5B2
:104590005A8B520701D504225A83524A9279012A32
:1045A00005D19A6AD205D20D51490A8003E09A6A70
:1045B000D2B24F490A8001211A7E0A42FCD01A7EEB
:1045C000D20702D5524612789A6202211A7E0A4216
:1045D000FCD004211A7E0A42FCD01A7E520712D562
:1045E0005A8B520701D504225A833E4A9279012AF6
:1045F00005D19B6ADB05DB0D3D4A138003E09B6A16
:10460000DBB23B4A1380002C31D05646013CE4B269
:104610000134A244D0460027324D01200224042157
:10462000A94622E01A7E0242FCD01A7E024201D044
:1046300072789A621A7E2242FCD01A7E0A42FCD01C
:104640001A7E0A420DD05A8B0A4200D059834A463C
:104650009279012A03D19F6AFF05FF0D01E09F6A4D
:10466000FFB237700136464502D02B68DAE70027E3
:104670001C4B1B6801211A7E0A42FCD01A7ED2070D
:1046800001D500229A6202211A7E0A42FCD004213E
:104690001A7E0A42FCD01A7E52070ED55A8B520758
:1046A00001D504225A830F4A9279012A03D19F6AC5
:1046B000FF05FF0D01E09F6AFFB253461F70002205
:1046C00009490848094B984700210020094B9847A1
:1046D0001CBC90469946A246F0BDC046550100005C
:1046E0000D030000D4080020980800203D0C0000B5
:1046F00090080020ED0200000022014B1A70704764
:104700002C0700200022014B1A7070472C07002054
:1047100070B582B005000E0000226B46DA80064CB0
:104720006B46991D2800A0470028F9D16B46063337
:104730001B88337002B070BD9110000070B5050089
:104740008CB2034E21002800B0470028FAD170BD7A
:104750006510000010B50A4B1B78002B0FD10948DB
:104760000B334381012404734473074B0361052316
:104770000375064B8361064B9847014B1C7010BDB7
:104780002C07002030070020DC0C0020054700002B
:104790005523000070B50F4B1B78002B18D10E4825
:1047A0000B3343810124047344730C4D2A68530175
:1047B0009A1A0B4BD31803611F230375094B8361AE
:1047C000094B9847034B1C7029680848084B9847C9
:1047D00070BDC0462C0700203007002028070020AD
:1047E00018090020F946000055230000F46000007D
:1047F000F14E000010B5040080221203144BDA6160
:104800008068144B9847A46813492000134B9847BD
:1048100000280FD1124A136801331360114A12782D
:104820000132934211D11048104B984700220C4B93
:104830001A600AE0084908312000084B9847002810
:1048400003D1074A136801331360012010BDC0462D
:1048500000440041E94F0000D4600000E95100002D
:1048600028070020E008002000070020F93700009A
:1048700070B590B08023DB05009300230193FF22E5
:1048800069460A8100228B72CB72962189010891B8
:10489000012124206C4621540130215425316354D8
:1048A000013163540A930531635401316354059314
:1048B0002382E3762276227762761323A3766277C9
:1048C00080235B0303932D4B0C932D4B0D930123FE
:1048D0005B420E930F932B4D2B4C6A462B492800BD
:1048E000A0470028F9D1274D2C682000284B984775
:1048F0001F2318401E3B8340264A13602A68D36951
:10490000002BFCD122680233134323601D4C224B41
:104910001C60224A224B1A60224A234B1A606A46C4
:104920001A492000184B9847204E33689868002198
:104930001F4DA847336858680021A8472368DA69E3
:10494000002AFCD15A68802149020A435A60012199
:104950000C4AD171DA69002AFCD1DA69002AFCD14B
:104960005A68802189020A435A600121054A9171DF
:10497000DA69002AFCD110B070BDC0460300040003
:1049800003000500E40800202D0D0000000800428F
:104990000509000000E100E0DC0700203D470000C1
:1049A000D807002011470000D40700207400002021
:1049B00075500000F0B583B0052200216846244BF5
:1049C0009847244F244C254D1035244E1836B847AF
:1049D000052269462000224B98470028F7D129007C
:1049E0006846204B9847002805D0310068461D4B8B
:1049F00098470028EBD1802212031B4BDA6117493C
:104A000010316846174B9847002809D1174B0122EF
:104A10001A7001325A70FD329A70DA70FC3A1A71CB
:104A20000E49183168460F4B9847002809D10F4BA3
:104A300001221A7001325A70FD329A70DA70FB3A14
:104A40001A7105220A4904480A4B984703B0F0BD81
:104A5000DF4E000011370000E4080020D4600000A1
:104A6000B9110000E951000000440041DC0C0020B5
:104A70000C0000200111000030B583B001AB002212
:104A80001A705A700D4D0E4C022201A92800A04741
:104A90000028F9D1802212030A4BDA6101AA1178A9
:104AA000094B197052785A70084B19705A700522C8
:104AB00007490248074B984703B030BDE40800207F
:104AC000B911000000440041E0080020180900204E
:104AD0000C00002001110000F8B501250D4F0E4C0F
:104AE0000E4E6901491BC9191F222000B04700283A
:104AF000F7D1802212030A4BDA61013505220949F8
:104B00000548094B9847094B1B7801339D42E8DB68
:104B1000F8BDC04618090020E4080020B9110000C3
:104B2000004400410C00002001110000E0080020BA
:104B3000F8B5224B9847224B9847224B9847224B77
:104B400098470124214B1C70BFF35F8F62B60A2087
:104B50001F4B98471F48204B98470E201F4B9847E4
:104B600001201F4B98471F4901201F4B98471F4B9F
:104B7000C82252009A601C731D4A1A611D4BC8223C
:104B80009A6000221A731C4A1A611C4E1C4D1D4C5F
:104B9000B047A8472379032B09D11B4B98471B4BE0
:104BA000984714481A4FB8471048B847F0E7042B05
:104BB000EED11048164B9847EAE7C0466D1C00003E
:104BC00015010000ED3600007148000008000020CB
:104BD000AD22000067450000C122000045350000FD
:104BE00031350000F5470000D52200000007002005
:104BF00095470000140700205547000011370000BA
:104C0000B5490000DC0C0020794A0000D94A0000B8
:104C10006938000010B5041C134B9847134B1A78E1
:104C200062438118124B59605968090C59605B68DE
:104C3000002B07D00E4B59680132801818810D4B9C
:104C4000984704E082180A4B1A810B4B9847084B8F
:104C50001B89632B02D86433054A1381044B1889DE
:104C6000064B984710BDC04625390000E10C0020D6
:104C700050070020393900004D3900008939000003
:104C800008B50022034B1A70034B9847034B18706A
:104C900008BDC04650070020A1390000E10C0020EB
:104CA00008B50E4B5B68002B07D00C4A5368013BDC
:104CB0005360002B01D10A4B9847084A13780133FF
:104CC000DBB21370074A12789A4206D8034B0022CF
:104CD0001A70DB68002B00D0984708BD50070020F1
:104CE0004D390000E10C002008B5044B9847044BF7
:104CF0001B69002B00D0984708BDC0463939000019
:104D000050070020014B18617047C0465007002033
:104D1000002243088B4274D303098B425FD3030AFA
:104D20008B4244D3030B8B4228D3030C8B420DD30D
:104D3000FF22090212BA030C8B4202D3121209029B
:104D400065D0030B8B4219D300E0090AC30B8B42D9
:104D500001D3CB03C01A5241830B8B4201D38B0387
:104D6000C01A5241430B8B4201D34B03C01A52412C
:104D7000030B8B4201D30B03C01A5241C30A8B426F
:104D800001D3CB02C01A5241830A8B4201D38B025A
:104D9000C01A5241430A8B4201D34B02C01A5241FE
:104DA000030A8B4201D30B02C01A5241CDD2C30970
:104DB0008B4201D3CB01C01A524183098B4201D3EC
:104DC0008B01C01A524143098B4201D34B01C01AD7
:104DD000524103098B4201D30B01C01A5241C3084F
:104DE0008B4201D3CB00C01A524183088B4201D3BE
:104DF0008B00C01A524143088B4201D34B00C01AAA
:104E00005241411A00D20146524110467047FFE715
:104E100001B5002000F006F802BDC0460029F7D019
:104E200076E770477047C046F0B54F464646C0B477
:104E30001604360C9946330005042C0C070C150C8F
:104E400063437E436F4365431C0CAD1964199C4654
:104E5000A64203D980235B02984647446346250C4B
:104E6000EF191D044B464A4343432D0C2404641997
:104E70009918C91920000CBC90469946F0BDC0464F
:104E80000E4B70B500251E000D4CE41AA410A5426F
:104E900004D0AB00F35898470135F8E701F080F9EA
:104EA000084B00251E00084CE41AA410A54204D0AB
:104EB000AB00F35898470135F8E770BDAC610000CE
:104EC000AC610000AC610000B0610000002310B5CF
:104ED0009A4203D0CC5CC4540133F9E710BD0300FF
:104EE0008218934202D019700133FAE7704700002C
:104EF0000FB40B4B13B51C68002C05D0A369002B15
:104F000002D1200000F03CFB05AB049AA168200010
:104F1000019300F0FBFC16BC08BC04B01847C04667
:104F20007400002070B505000E00002804D08369CD
:104F3000002B01D100F024FBAB69AC68002B02D13F
:104F4000280000F01DFB254B9C4201D16C6808E055
:104F5000234B9C4201D1AC6803E0224B9C4200D120
:104F6000EC68A3891B0702D52369002B11D121000E
:104F7000280000F09BF900280BD0012040422BE0D4
:104F8000013B0136A360002B08DB23685A1C22601A
:104F900019703178A3680029F2D10BE0A26993421D
:104FA00001DB0A29F1D12200280000F027F9431C77
:104FB000EFD1E2E7013BA360002B08DA22000A31BF
:104FC000280000F01BF9431CD7D00A2004E00A2077
:104FD00023685A1C2260187070BDC0460C61000026
:104FE0002C6100004C61000010B5034B01001868F3
:104FF000FFF798FF10BDC04674000020154B10B598
:105000001C68A36B002B15D1182000F0B1FB124BCC
:10501000A0630380114B01224380114B8380114B0D
:10502000C380114B03810523438106338381002311
:1050300002614361A46B0D4A206961690C4BFFF763
:10504000F3FE01220023801859412061616148006C
:10505000400810BD740000200E330000CDABFFFFF0
:10506000341200006DE6FFFFECDEFFFF2D7F954C54
:105070002DF451584A424A41802310B55200DB00BA
:1050800000F002F810BD0000F0B51D00514B85B0D6
:105090001E6804000F000092002E05D0B369002B9B
:1050A00002D1300000F06CFA4B4B9C4201D1746885
:1050B00008E04A4B9C4201D1B46803E0484B9C4253
:1050C00000D1F468009B022B05D0012B00D97CE0B5
:1050D000002D00DA79E02100300000F0E3F9616B87
:1050E000002908D023004433994202D0300000F058
:1050F00049FB002363630023A3616360A3891B064C
:1051000003D52169300000F03DFBA289354B1340E7
:10511000A381009B022B21D003AB02AA2100300007
:1051200000F0C2FAA3891843A081002D01D1029D8D
:1051300001E0002F25D1280000F01AFB0195071E81
:105140001AD1029B0193AB4202D10120404206E0FA
:10515000019800F00DFB071E0ED1F6E70020022299
:10516000A3891343A3810023A36023004733236053
:105170002361012363612AE08022A389019D1343F7
:10518000A381B369002B02D1300000F0F9F9009B34
:10519000012B03D1A389009A1A43A2810823A28973
:1051A0002760134027616561181E0CD001231A4047
:1051B0000023101E984204D06D42A360A561180020
:1051C00005E0A56003E0A36001E00120404205B0D6
:1051D000F0BDC046740000200C6100002C6100008E
:1051E0004C6100005CF3FFFF02780B78002A03D0CB
:1051F000013001319A42F7D0D01A7047F8B5050056
:105200000F001400002804D08369002B01D100F0A6
:10521000B7F9234B9C4201D16C6808E0214B9C42BA
:1052200001D1AC6803E0204B9C4200D1EC68A3693B
:10523000A360A3891B070AD52369002B07D0236825
:105240002269FEB2981A636998420FDB08E02100D8
:10525000280000F02BF80028F1D0012040421DE08A
:105260002100280000F01EF90028F6D1A3680130C3
:10527000013BA36023685A1C22601F706369984237
:1052800005D0A3893000DB0708D50A2E06D12100FE
:10529000280000F007F90028DFD13000F8BDC04633
:1052A0000C6100002C6100004C610000364B70B5B1
:1052B0001D6806000C00002D05D0AB69002B02D143
:1052C000280000F05DF9314B9C4201D16C6808E088
:1052D0002F4B9C4201D1AC6803E02E4B9C4200D185
:1052E000EC680C22A35E9AB2110723D4D10607D42E
:1052F00009220120326037321343A381404242E049
:10530000530713D5616B002908D023004433994219
:1053100002D0300000F036FA002363632422A38910
:105320009343A38100236360236923600822A38938
:105330001343A3812369002B0BD1A023A2899B00D7
:10534000134080229200934203D02100300000F0ED
:10535000D1F90123A289134005D00023A36063691A
:105360005B42A36103E0920700D46369A36000205D
:105370002369834207D10C22A35E1A0603D540227B
:105380001343A381013870BD740000200C6100003C
:105390002C6100004C610000F7B58A8905000C0003
:1053A00013075AD44B68002B02DC0B6C002B19DD61
:1053B000E76A002F16D000232E682B6080235B0144
:1053C0001A4001D0606D14E00123216A2800B8471B
:1053D000431C0ED12B68002B0BD01D2B01D0162B9C
:1053E00002D12E6000205AE04022A3891343A381FA
:1053F00055E0A3895B0706D56368C01A636B002B71
:1054000001D0236CC01A00230200216A2800E76A39
:10541000B847A389421C06D129681D293AD8204AD9
:10542000CA40D20736D50022626022692260DB04BE
:1054300005D5431C02D12B68002B00D16065616B40
:105440002E600029CED023004433994202D0280098
:1054500000F098F90020606321E00F69002FC1D0AF
:105460000B680F60DB1B01930023920700D14B698F
:10547000A36003E0019B3F181B1A0193019B002BC3
:10548000B0DD019B3A00216A2800A66AB0470028D7
:10549000F0DCA389402201201343A3814042FEBDDA
:1054A000010040200B6970B505000C00002B01D1F4
:1054B00000201CE0002804D08369002B01D100F0FB
:1054C0005FF80B4B9C4201D16C6808E0094B9C4291
:1054D00001D1AC6803E0084B9C4200D1EC680C227F
:1054E000A35E002BE4D021002800FFF755FF70BD1C
:1054F0000C6100002C6100004C61000010B50249F5
:1055000000F0B0F810BDC046A5540000002310B54F
:10551000040003604360836081814366C28103614C
:1055200043618361190008225C30FFF7D8FC054B0A
:1055300024626362044BA362044BE362044B236363
:1055400010BDC046895E0000B15E0000E95E00004B
:10555000155F000070B568254B1E5D430E002900E5
:10556000743100F055F9041E08D000212A000160B2
:1055700046600C30A0606832FFF7B1FC200070BDBF
:10558000836913B50400002B28D18364C3640365C9
:10559000134B144A1B6882620193984201D1012384
:1055A0008361200000F020F86060200000F01CF80B
:1055B000A060200000F018F80022E060042160687C
:1055C000FFF7A4FF01220921A068FFF79FFF022235
:1055D0001221E068FFF79AFF0123A36113BDC046C3
:1055E00008610000FD540000F8B51D4B06001D6861
:1055F000AB69002B02D12800FFF7C2FF4835AC6829
:105600006B68013B05D40C22A75E002F10D06834D4
:10561000F7E72B68002B01D02D68F0E7042130005C
:10562000FFF798FF28600028F6D10C23336016E0BE
:10563000012320005B42E3810233A3816766276078
:10564000A760676027616761A7615C300822390045
:10565000FFF745FC20006763A763A764E764F8BD14
:1056600008610000F7B504000700002601914834E6
:10567000002C16D06368A5680093009B013B009343
:105680000DD4AB89012B08D90E22AB5E013304D0B7
:1056900029003800019B984706436835EDE72468E8
:1056A000E6E73000FEBD000070B50E001D000E23C1
:1056B000C95E90B01400002906DA00232B60B3897C
:1056C0001B060FD540230FE001AA00F04FFC002875
:1056D000F3DBF023029A1B021340054A9B185A423F
:1056E00053412B608023DB000020236010B070BD8D
:1056F00000E0FFFFF7B502268B8905000C0033425E
:1057000010D101AB6A46FFF7CFFF009907002800D0
:1057100000F07EF800280CD10C22A35E9A0523D459
:105720003343A38123004733236023610123636153
:105730001AE080220D4BAB62A38920601343A38142
:10574000009B20616361019B002B0AD00E23E15E68
:10575000280000F01DFC002803D00122A389134378
:10576000A381A3891F43A781F7BDC046FD54000054
:1057700010B5034B0100186800F04AF810BDC04690
:105780007400002030B500293ED004390B68002B8E
:1057900000DAC9181D4A13681400002B02D14B60AF
:1057A000116031E08B420DD90A688818834203D119
:1057B00018685B6882180A604B60216024E08A42A6
:1057C00003D813005A68002AF9D11D685C198C426D
:1057D0000BD10968691858181960824214D11068F1
:1057E0005268411819605A600EE08C4202D90C23AD
:1057F000036009E008680C18A24203D114685268DB
:10580000201808604A60596030BDC0466807002013
:10581000032370B5CD1C9D43083506000C2D01D225
:105820000C2505E0002D03DA0C230020336040E056
:10583000A942F9D81F4B1C681A002100002913D077
:105840000B685B1B0DD40B2B02D90B60CC181EE030
:105850008C4202D1636813601AE04B6863600C00ED
:1058600016E00C004968E9E7134C2368002B03D1CC
:10587000300000F0F7FA20602900300000F0F2FA62
:10588000431CD1D00323C41C9C43A0420AD12560F1
:10589000200007220B30231D9043C31A09D05A421F
:1058A000E25006E0211A300000F0DCFA431CEED191
:1058B000BAE770BD6807002064070020936810B540
:1058C000013B9360002B05DA9469A34208DBCBB25D
:1058D0000A2B05D01368581C10601970C8B201E07B
:1058E000FFF78CFC10BDF8B506000F001400D518AA
:1058F000AC4208D021783A003000FFF7DFFF0134D6
:10590000431CF5D100E00020F8BD0000F0B59FB0C9
:1059100006000F0002920593002804D08369002B33
:1059200001D1FFF72DFE7F4B9F4201D1776808E040
:105930007D4B9F4201D1B76803E07C4B9F4200D171
:10594000F768BB891B070AD53B69002B07D00023EA
:1059500006AD6B6120336B761033AB763DE03900DA
:105960003000FFF7A3FC0028F1D001204042D6E030
:10597000059A111D12680591002A00DA7FE009924C
:10598000013423782E2B00D18DE021780322684842
:1059900000F024FB002807D0654B2A68C01A40237A
:1059A000834013432B6001342178631C0622614835
:1059B0000293297600F012FB002800D19DE05E4B97
:1059C000002B00D090E00722059B07339343083358
:1059D00005936B69039A9B186B61029C2378002BDB
:1059E00004D1029BE31A049312D003E0252BF8D0D4
:1059F0000134F3E7049B029A39003000FFF773FF8C
:105A0000431C00D186E06A69049B944663446B6141
:105A10002378002B7ED00122002352426A6002A923
:105A20005432521801342B60EB60AB601370AB65DD
:105A300021780522414800F0D1FA002808D03F4BD8
:105A40002A68C01A0123834013432B600134EFE717
:105A50002B68DA0604D55322202102A812181170EF
:105A60001A0704D553222B2102A81218117022788C
:105A70002A2A00D17CE7099B00200A2105E0524236
:105A8000EA60022213432B607AE72278303A092A2F
:105A900004D84B4301349B180120F6E7002800D1BD
:105AA0006FE709936DE763782A2B0AD1059B0234CF
:105AB0001A1D1B680592002B01DA01235B42079334
:105AC00063E700230A201A0001346B602178303923
:105AD000092904D84243013452180123F6E7002B68
